:100000000C942A050C9452050C9452050C9452053C
:100010000C9452050C9452050C9452050C94520504
:100020000C9452050C94272B0C94CC0F0C94831138
:100030000C947A240C9452050C9452050C9452059D
:100040000C9452050C9452050C9452050C945205D4
:100050000C9452050C9452050C9452050C94FB21FF
:100060000C9452050C9452050C9452050C945205B4
:100070000C9452050C9452050C9452050C945205A4
:100080000C9452050C9452050C9452050C94520594
:100090000C9452050C9452050C9452050C94520584
:1000A0000C9452050C9452050C9452058D09B40918
:1000B000E909B909BB09CF09DF09E309E509E7093E
:1000C0008D2090207F2083208920B120B120B12075
:1000D000942098209C20A220A620B120AC2044216E
:1000E00049214E2158216221AC21AC21AC216C2147
:1000F000762180218A219721AC219F2100030C0FBA
:1001000030333C3FC0C3CCCFF0F3FCFF080B000200
:10011000020201000904000001020200000524009F
:100120001001052401010104240206052406000132
:100130000705810310004009040100020A000000C5
:100140000705020240000007058302400000040387
:10015000090412010002EF0201404123378000012F
:100160000102030141726475696E6F204C4C4300BB
:1001700041726475696E6F204D6963726F00000093
:100180000000000000002A2B2800000000000000F2
:1001900000000000000000000000000000002C9E95
:1001A000B4A0A1A2A434A6A7A5AE362D3738271E29
:1001B0001F20212223242526B333B62EB7B89F84CF
:1001C00085868788898A8B8C8D8E8F909192939467
:1001D00095969798999A9B9C9D2F3130A3AD3504A5
:1001E00005060708090A0B0C0D0E0F101112131447
:1001F00015161718191A1B1C1DAFB1B0B500000059
:1002000000002300260029002C002F000404040411
:1002100004030405020202020403020202020606AB
:100220000606060604040202020404040802011081
:10023000408040102040804080080204018040201F
:100240001002011080102040402000000002000930
:100250000F0000030401000C00000000000000007B
:10026000000000000000000000982F8A42914437EF
:1002700071CFFBC0B5A5DBB5E95BC25639F111F111
:1002800059A4823F92D55E1CAB98AA07D8015B8324
:1002900012BE853124C37D0C55745DBE72FEB1DE85
:1002A00080A706DC9B74F19BC1C1699BE48647BEB5
:1002B000EFC69DC10FCCA10C246F2CE92DAA84742C
:1002C0004ADCA9B05CDA88F97652513E986DC631A5
:1002D000A8C82703B0C77F59BFF30BE0C64791A753
:1002E000D55163CA0667292914850AB72738211B07
:1002F0002EFC6D2C4D130D385354730A65BB0A6ADE
:10030000762EC9C281852C7292A1E8BFA24B661AD3
:10031000A8708B4BC2A3516CC719E892D1240699DF
:10032000D685350EF470A06A1016C1A419086C3772
:100330001E4C774827B5BCB034B30C1C394AAAD838
:100340004E4FCA9C5BF36F2E68EE828F746F63A56D
:10035000781478C8840802C78CFAFFBE90EB6C5002
:10036000A4F7A3F9BEF27871C605010906A10185BB
:1003700002050719E029E715002501750195088197
:10038000029501750881039506750815002573050A
:1003900007190029738100C0AED580A81FD3004083
:1003A0008D142002A1C8DA02817FD9F1DB40A4A616
:1003B000AF070605040100080A0B0C0D091A4C0AC8
:1003C0000D20600201030605090901030305070268
:1003D00003010305030505060505050505010206DC
:1003E0000606040A080707080706080803040807A2
:1003F0000B0808060808050708070B080807030389
:1004000002060602050504060404050603020603A7
:100410000906050606040403060609050705030187
:1004200003050600000000FE100E000E000000D0C4
:10043000785650F8561800001800001C12FF22C40D
:1004400008103810080C128C4030088640800010CC
:1004500008000000081008C0203CD28A4630100076
:100460000810101008101010080E00F00C020830D0
:1004700040020CF040300814083E08140000000050
:1004800000202020FC2020200000000800000000A8
:10049000005030808080000000001000F806180036
:1004A00000FC020202FC081010100804FE001018E4
:1004B00010040282423C101810101804022232CCA0
:1004C0001010101008C0A09884FE800000000018D2
:1004D00000000C0A12E21010100800F0281412E2BA
:1004E0000810101008040202F20E00001800008C20
:1004F0005222528C08101010083C4242C27C10104C
:100500000800001010100050302050505088880013
:1005100000000000005050505050500000000000FB
:10052000008888505050200000000000000CC222BB
:100530001C00100000F008E4120A0A927A04F8186D
:1005400020489090888890482000807846586080A5
:1005500000101810000010181002FE2222223CC0C9
:1005600010181010101008F804020202048E00087F
:10057000101010080002FE0202020204F810181007
:10058000101010080002FE2222720600101810102F
:1005900010100802FE22227206101810000000F847
:1005A0000402020224EE20000810101010080002BD
:1005B000FE22202022FE0210181000001018100247
:1005C000FE021018100002FE021810080002FE229F
:1005D0005088060202101810000018101002FE02C7
:1005E000000000001018101010100802FE0618E09D
:1005F00000E01806FE021018100000180000101885
:100600001002FE08106082FE021018100000001890
:1006100000F8040202020204F8000810101010088A
:100620000002FE2222221C101810000000F8040212
:1006300002020204F8000810103050484002FE2266
:1006400022E21C000010181000000810100C1222EA
:1006500022C61810101008060202FE020206000050
:10066000101810000002FE02000002FE0200081036
:100670001010100800021EE200E21E020000001826
:10068000000000021EE280621EE280720E02000084
:1006900000180000001800000002068A70708A0628
:1006A00002101810000010181002063AC0300A0696
:1006B000020000101810000000008642320A068274
:1006C00010181010101018FE020278404006F800B2
:1006D00000001802FE4078100C02020C100000000E
:1006E0000000000000000000008080808080800406
:1006F000080000A05050E0000810101810FE201054
:1007000010E00810101008E010103008101008E079
:10071000101022FE00081010081810E05050600859
:1007200010100810FC120210181000609090701049
:10073000689090906002FE2010E0001018100018E1
:100740001010F20010181010F2807802FE40B01065
:100750000010181000181002FE0010181010F020E1
:1007600010E02010E00010181000181000181010F1
:10077000F02010E000101810001810E0101010E029
:10078000081010100810F0201010E080F8881010E9
:1007900008E0101020F00008101088F88010F020F9
:1007A0001010181000605090B01810100810FC10B5
:1007B00000181010F00010F0000008101018103091
:1007C000D000C0301000001800000010F00090F0C1
:1007D00010C030100000180000180000001030C0D9
:1007E0003010101800181010709000D03010808059
:1007F00048300800003010D0301010181010184089
:10080000BC02003840FE7802BC404038008040C046
:1008100080400000000000FC04040404FC181010D8
:1008200010101898031980200000000000240027F1
:10083000002A002D00300000000000250028002BB9
:10084000002E00310052096AD53036A538BF40A3CA
:100850009E81F3D7FB7CE339829B2FFF87348E4345
:1008600044C4DEE9CB547B9432A6C2233DEE4C95C2
:100870000B42FAC34E082EA16628D924B2765BA299
:10088000496D8BD12572F8F66486689816D4A45CFD
:10089000CC5D65B6926C704850FDEDB9DA5E1546D8
:1008A00057A78D9D8490D8AB008CBCD30AF7E45831
:1008B00005B8B34506D02C1E8FCA3F0F02C1AFBD8D
:1008C0000301138A6B3A9111414F67DCEA97F2CF2B
:1008D000CEF0B4E67396AC7422E7AD3585E2F93715
:1008E000E81C75DF6E47F11A711D29C5896FB76263
:1008F0000EAA18BE1BFC563E4BC6D279209ADBC00E
:10090000FE78CD5AF41FDDA8338807C731B1121025
:10091000592780EC5F60517FA919B54A0D2DE57A02
:100920009F93C99CEFA0E03B4DAE2AF5B0C8EBBB4E
:100930003C83539961172B047EBA77D626E169145C
:100940006355210C7D0001020408102040801B36F5
:10095000637C777BF26B6FC53001672BFED7AB767C
:10096000CA82C97DFA5947F0ADD4A2AF9CA472C027
:10097000B7FD9326363FF7CC34A5E5F171D8311594
:1009800004C723C31896059A071280E2EB27B275B5
:1009900009832C1A1B6E5AA0523BD6B329E32F842D
:1009A00053D100ED20FCB15B6ACBBE394A4C58CF25
:1009B000D0EFAAFB434D338545F9027F503C9FA8F9
:1009C00051A3408F929D38F5BCB6DA2110FFF3D2C7
:1009D000CD0C13EC5F974417C4A77E3D645D19737B
:1009E00060814FDC222A908846EEB814DE5E0BDB75
:1009F000E0323A0A4906245CC2D3AC629195E479AC
:100A0000E7C8376D8DD54EA96C56F4EA657AAE0805
:100A1000BA78252E1CA6B4C6E8DD741F4BBD8B8AA0
:100A2000703EB5664803F60E613557B986C11D9E06
:100A3000E1F8981169D98E949B1E87E9CE5528DF7D
:100A40008CA1890DBFE6426841992D0FB054BB16A9
:100A5000542D342D11241FBECFEFDAE0DEBFCDBF01
:100A600014E0A0E0B1E0E6EDF8E602C005900D92DA
:100A7000A43BB107D9F727E0A4EBB4E001C01D9275
:100A8000A439B207E1F715E0C9E2D5E004C0219727
:100A9000FE010E949632C832D107C9F70E94622E29
:100AA0000C945E340C940000FC016093BC008091B7
:100AB000BC0087FFFCCF9091B900987F9083089588
:100AC000CF92DF92EF92FF920F931F93CF93DF931A
:100AD000EC01C62ED42E8B89882351F0411108C019
:100AE00084E98093BC008091BC0084FDFCCF1B8A0C
:100AF000EB888E010F5E1F4FE11014C0FA8864EA84
:100B0000C8010E9454058989883011F1803101F1B2
:100B1000DD2011F080E4E82EE092BB0064E8C8011B
:100B20000E945405C092BB0064E8C8010E945405AD
:100B300082E0D81204C08B898F5F8B8B11C084E94F
:100B40008093BC008091BC0084FDFCCF1B8A08C050
:100B5000FF0CF092BB0064E8C8010E945405D8CF96
:100B6000DF91CF911F910F91FF90EF90DF90CF9089
:100B70000895089580E090E0089586E08093130141
:100B800084E1EEE9F1E0ACE1B5E001900D928A95E7
:100B9000E1F7109231051092300589E080932B0720
:100BA00080911C0590911D050E94AD2A6FE277E0AF
:100BB000809119050E948D298FE297E00E946A2A90
:100BC00010921805089580932B0784E892E00E9404
:100BD0006A2A10923105109230056EE08EE40E9470
:100BE000752A109218050895CF92DF92EF92FF9226
:100BF0000F931F93CF93DF93CDB7DEB760970FB6F8
:100C0000F894DEBF0FBECDBF20E8829FC001112443
:100C10008C010C591F4F21E042E0BE016F5F7F4FF6
:100C2000C8010E94402889818F3FC9F40E949131F8
:100C3000C12CD12C7601CA94A70196010E943332AF
:100C400069830E949131A70196010E9433326A8321
:100C500042E0BE016F5F7F4FC8010E94D6188EE050
:100C6000E5EBF4E0DE01139601900D928A95E1F731
:100C700040E150E0BE016F5F7F4F8FE496E00E943D
:100C8000631560960FB6F894DEBF0FBECDBFDF913F
:100C9000CF911F910F91FF90EF90DF90CF9008952B
:100CA0004F925F926F927F928F929F92AF92BF927C
:100CB000DF92EF92FF920F931F93CF93DF93CDB705
:100CC000DEB7CE54D1090FB6F894DEBF0FBECDBF4C
:100CD00080911805882361F0F8940E94EF216093B9
:100CE0001707709318078093190790931A0725C068
:100CF00078948091B4048F5F8F3F19F08093B4048F
:100D0000A2C61092B4040E94EF2180901707909021
:100D10001807A0901907B0901A0720E8820E2EEE4F
:100D2000921E26E3A21EB11C681579058A059B0553
:100D300008F489C68DE080931805809118058730E6
:100D400009F055C080912B07823071F490911607FD
:100D5000992309F4BCC08091300590913105893008
:100D600091050CF042C61CC0813031F0883021F072
:100D70009CEF980F933050F480913005909131059D
:100D80008E3591050CF058C0019652C0893081F41F
:100D90008091300590913105853091050CF025C684
:100DA000019690933105809330050E9444191DC629
:100DB0008730A9F4809130059091310584309105F8
:100DC0000CF013C620916F07222309F40EC601967A
:100DD00090933105809330050E94441959C08330A7
:100DE00009F075C0809119050E94D92862C08091D0
:100DF0001805883009F08FC080912B07823041F4AC
:100E000080913005909131058230910544F5EDC512
:100E1000813031F0883021F09CEF980F9330A8F4A6
:100E20008091300590913105181619062CF4019720
:100E30009093310580933005E0913005F0913105B4
:100E4000EC5CFE4F6091C30462C0893081F48091F4
:100E5000300590913105181619060CF0C6C501979A
:100E600090933105809330050E943319BEC58730B9
:100E7000A1F48091300590913105181619060CF0F7
:100E8000B4C5019790933105809330050E943319C2
:100E9000809130050E94712BA8C58330C1F48091E8
:100EA0001905E0E88E9FC00111248E599F4F0E94C2
:100EB00071288F3F29F090E09093310580933005A1
:100EC00080913005809319056FE277E082C096EF3C
:100ED000980F923020F08D50823008F086C58091B6
:100EE000300590913105019729F410923105109247
:100EF000300506C081E090E0909331058093300585
:100F0000E0913005F0913105EE5CFE4F6EE080819E
:100F10000E94752A6AC580911805893061F584E1BF
:100F2000E4E1F1E0ACE1B5E001900D928A95E1F7E2
:100F30008AE08093130182E080932B07809116074B
:100F4000882339F081E090E090933105809330055B
:100F500004C01092310510923005E0913005F091F7
:100F60003105FF27EE0FFF1FE45EFA4F808191816C
:100F70000E94AD2A3AC5809118058B3079F584E13D
:100F8000E2E9F1E0ACE1B5E001900D928A95E1F77C
:100F900085E08093130187E080932B0780913005D3
:100FA00090913105059720F010923105109230058F
:100FB000E0913005F0913105FF27EE0FFF1FE45E51
:100FC000FA4F808191810E94AD2A6FE277E0809193
:100FD00019050E948D298FE297E005C580911805BB
:100FE000843009F084C180912B07813009F00AC157
:100FF00080911705882349F0409114015091150103
:101000006EE085EB94E00E947F18E0E081E08E0FB7
:10101000F0E0EB54FB4F9081E82F9111F7CF8D302A
:1010200038F4E82FF0E0EB54FB4F10828F5FF7CFDE
:101030001092C20483EE93E00E941D328F3F09F0AC
:101040005BC08E010F5B1F4F5801FEE0AF0EB11C5D
:1010500078014DE5442E512C612C712C0E94913168
:10106000A30192010E943332DC01CB018196A11DC4
:10107000B11DF70181937F01AE16BF0679F735EDFB
:10108000E32E33E0F32EF80161918F01C7010E9436
:101090002532FFEFEF1AFF0A23EEE21623E0F206F5
:1010A00091F78EE0FE01EF5BFF4FDE01919601901C
:1010B0000D928A95E1F78EE0E5EBF4E0DE019F9674
:1010C00001900D928A95E1F7CE0181960E94AC299C
:1010D0008E010F5D1F4FF80161918F01C7010E94C2
:1010E0002532FFEFEF1AFF0A2FEFE21623E0F20698
:1010F00091F70E94212A38C04CE1BE016F5D7F4FFD
:1011000083EE93E00E9483284EE0BE016F5B7F4F29
:1011100085ED93E00E9483288EE0FE01EF5BFF4F98
:10112000DE01119601900D928A95E1F78EE0E5EBD4
:10113000F4E0DE011F9601900D928A95E1F7CE0151
:1011400001960E94AC294CE150E0BE016F5D7F4FDB
:10115000CE0101960E940934892B41F40E94212A74
:1011600010921C070E94C32881E00AC00E94262A10
:1011700080911C078F5F80931C070E94C32880E02A
:1011800080931607882391F081E090E090933105D9
:101190008093300582E080932B0780911E0590910B
:1011A0001F050E94AD2A83E992E01DC480911C07AF
:1011B0008B3010F08CE045C4109231051092300550
:1011C00082E080932B0780911C0590911D050E9461
:1011D000AD2A80911C074AE0BE016F5F7F4F90E00F
:1011E0000E94E831BE016F5F7F4F8FE497E00E945D
:1011F0003A3461EA72E08FE497E00E9426340E945C
:10120000502AF3C3883069F40091190580E8089FDB
:101210008001112421E041E06DEA72E08FE297E065
:1012200010C0853089F400911905E0E80E9F800117
:101230001124005E1F4F20E042E06AEB72E085EF70
:1012400094E00E94981EFFC3863079F4009119053E
:10125000F0E80F9F80011124005C1F4F20E043E065
:1012600068EC72E085ED94E0ECCF8430F1F480918D
:101270001705882339F046ED52E062E08CE297E0F2
:101280000E947F188091190520E8829FC0011124D7
:1012900042E06CE277E0805A9F4F0E94AD281092A6
:1012A0003105109230058BE0CCC3873039F4809142
:1012B0002E078111C5C30E94BD05C5C3893019F42D
:1012C0000E94C42BC0C3833031F489E08093180599
:1012D0000E94602AB8C396EF980F923008F4B0C30A
:1012E0008E3009F4ADC38D3009F0AAC3E4CF8091EC
:1012F0001805813009F01DC380912B07823009F059
:1013000091C0E0913005F0913105EA30F10508F027
:1013100083C0EA5AFF4F0C94963281E080932B07EA
:101320008AE290E090933105809330051092C304D7
:1013300080E289831A82CE0101960E946A2A8091F6
:101340001705882349F18FEF9FEF90933F05809316
:101350003E0510910B016AE070E080E090E00E9491
:10136000B5211123B1F318C010922E070E94C42B8F
:1013700053C08DE025C081E090911705911180E068
:10138000809317054AE064E00E942B2A80911C019B
:1013900090911D010E94AD2A109218053DC081E078
:1013A00090911B07911180E080931B074DE065E051
:1013B0000E942B2A80911E0190911F01EBCF8EE09D
:1013C0008093180529C080E1FBCF8FE0F9CF8CE036
:1013D000F7CF81E080932E070E94E12880931905C2
:1013E0008F3FB1F01092F5041092D50465EE72E0D3
:1013F0008FE297E00E943A348FE297E00E946A2AD7
:1014000080916F078F5F80936F070E94E42B04C069
:1014100081EF92E00E946A2A80911805813009F0DC
:1014200012C3E3C2833009F446CF873009F050C0BD
:101430001092C3048091300590913105823091055E
:1014400041F144F40097D9F0019709F0FCC26AE237
:1014500085E024C083309105F9F0049709F0F3C2C8
:1014600086E080932B0705ED14E095EFE92E94E0DC
:10147000F92E2DE5822E912CA12CB12C12C0809139
:101480002E07882319F06AE288E008C08AEF92E00C
:10149000AAC26AE286E002C06EE184E00E940E2CDD
:1014A000D2C20E949131A50194010E943332DC0125
:1014B000CB018196A11DB11DF80181938F0110927E
:1014C000F404EE16FF0669F70E94602A84E0B9C2B0
:1014D000883021F460E08FE297E011C0853021F47C
:1014E00060E085EF94E00BC0863021F461E085ED8B
:1014F00094E005C0843031F460E08CE297E00E9413
:10150000432CA1C2893009F0B0C04FEF60E08AEAF5
:101510000E94072A1092180580913005909131059C
:101520008230910509F490C054F40097A9F0019716
:1015300009F098C00E94B82A8DE193E089C08430F8
:10154000910509F48DC00CF486C0059709F08AC096
:1015500082E18093180586C06FE277E080911905DB
:101560000E948D29809119050E94821F80E2E5EF7B
:10157000F4E0DE01919601900D928A95E1F7809159
:1015800019050E94A01F80E2E5EDF4E0DE0111964E
:1015900001900D928A95E1F780911905F0E88F9FEF
:1015A000C001112421E042E06CE277E0805A9F4FB5
:1015B0000E94402880912C078F3F11F410922C0735
:1015C00080E011E0180FE1E2F0E0EC0FFD1FE80F02
:1015D000F11D8081882369F0E0E2F0E0EC0FFD1F4F
:1015E000E10FF11D60818BE995E00E946918812F60
:1015F000E8CF6CE073E08CE297E00E943134892BF5
:1016000039F465E174E08BE995E00E9429110AC084
:1016100063EB8BE995E00E94FF1763EB8BE995E0A4
:101620000E94BD17789468EB7BE080E090E00E9418
:10163000B521F894BE016F5F7F4F8BE995E00E9462
:1016400029118EE093E004C00E94DF2A8BE293E030
:101650000E946A2A07C00E94102B89E393E0F8CF0A
:101660000E94E42B0E94212AEEC1813079F58091FD
:10167000C30490E0E0913005F0913105EC5CFE4F41
:101680004081FC01EB54FB4F40839C012F5F3F4F97
:10169000F901EB54FB4F108250911B07FC01E15BF9
:1016A000F84F552311F0408302C08AE28083F9018C
:1016B000E15BF84F10820E94502A8091C30480326F
:1016C00008F093C18F5F8093C3048FC18A3061F4A7
:1016D000E0913005F0913105EE5CFE4F8081893557
:1016E00009F0AEC180E00DC08B3071F4E09130059F
:1016F000F0913105EE5CFE4F8081893509F0A0C183
:1017000081E00E94AE2C9CC18E3009F098C0E0911F
:101710003005F0913105EE5CFE4F8081893509F08E
:101720008FC180911607811105C080911C078B30F5
:1017300008F482C110926F071092190510921605D5
:10174000109215050E3039F0E02FF0E0EB54FB4F0E
:1017500010820F5FF7CF1092160788E493E00E9483
:10176000AD2A00E010E0FF24F39417FD25C001111D
:101770000AC0FF2021F00E94262AF12C04C00E94FA
:101780001C2AFF24F3940E9427282E9882E00E94AE
:101790002228C8010E94372880E2E82E8FEF0E949D
:1017A0002228EA94E110FACF2E9A005E1F4F0E9481
:1017B0002D2880FDFCCFD9CF0E941C2AFF24F39452
:1017C00000E010E0C8018F739927892B51F4FF20A6
:1017D00021F00E94262AF12C04C00E941C2AFF241A
:1017E000F3946FEFC8010E9425320F5F1F4F011560
:1017F00024E0120739F70E941C2A61E08FEF9FE76F
:101800000E9400190E941C2A10921C070E94C328E3
:1018100081E080931B0761E081EC9FE70E94001943
:101820004DE065E080911B070E942B2A10922F0744
:101830001092D5041092F50488E593E0FFC08D3036
:1018400009F001C1E0913005F0913105EE5CFE4FE9
:101850008081893509F034CDF090190587E793E050
:101860000E946A2A80E8F89E80011124C8018E59DE
:101870009F4F0E947128E82E8F2D0E94D928D82EC4
:10188000EFEFEE1629F0682F8E2D0E94D12802C0AE
:1018900080931605FFEFDF1629F06E2D8D2D0E9427
:1018A000C92802C0E09215056FEF8F2D0E94D12844
:1018B0006FEF8F2D0E94C928FE013196BE016F5D2A
:1018C0007F4F7F0111926E177F07E1F78FEF89A39A
:1018D0001AA222961FAE229740E2C8010E94AD28AC
:1018E00040E2BE016F5B7F4FC80180960E94AD2829
:1018F00040E2B701C801805C9F4F0E94AD28109262
:101900002F0780E2F701A5EDB4E001900D928A95D2
:10191000E1F71092F50480916F07815080936F0773
:10192000809116058093190585E893E00E946A2A44
:10193000C7CC809118058E3019F48AE090E014C06D
:10194000809118058F3019F48BE090E00DC08091E4
:1019500018058C3019F48EE090E006C080911805CF
:10196000823129F48DE090E00E94E3056CC0809103
:1019700018058031E9F582E993E00E946A2A4FEF69
:1019800060E08AEA0E94072A809116058093190573
:10199000809119058F3F19F10E94102B65E174E0C9
:1019A0008BE995E00E9429110E94DF2A65E174E02D
:1019B0008BE995E00E9429110E94B82A65E174E044
:1019C0008BE995E00E94291165E174E08BE995E0CF
:1019D0000E942911809119050E94D928D7CF0E9411
:1019E000212A81EA93E00E946A2A109218052BC0EE
:1019F000809118058D3039F5809116078823E1F024
:101A00008DEA93E00E946A2A109231051092300507
:101A1000109219051E3039F0E12FF0E0EB54FB4F26
:101A200010821F5FF7CF1092160710921C070E94BA
:101A3000C3280E941C2A04C089E693E00E946A2AF7
:101A400089E080931805C25BDF4F0FB6F894DEBFC4
:101A50000FBECDBFDF91CF911F910F91FF90EF90FF
:101A6000DF90BF90AF909F908F907F906F905F902E
:101A70004F9008954091D2045091D3042091D00406
:101A80003091D10442175307B4F49091E800957057
:101A9000E1F39091E80092FD19C08093F1008091EC
:101AA000D2049091D30401968F739927892B19F44E
:101AB0008EEF8093E8008091D2049091D304019638
:101AC0009093D3048093D20481E0089580E0089538
:101AD0002FB7F89487708093E9009091E800892FE0
:101AE000807295FF04C09091F20080E4891B2FBFA3
:101AF0000895615030F02091F100FC01208301969F
:101B0000F8CF289A84E680931A050895CF92DF9241
:101B1000EF92FF920F931F93CF93DF936C017A01A3
:101B20008B01C0E0D0E0CE15DF0581F0D8016D91CA
:101B30008D01D601ED91FC910190F081E02DC6015F
:101B40000995892B11F02196EECF7E01C701DF9117
:101B5000CF911F910F91FF90EF90DF90CF9008955C
:101B6000CF93DF931F92CDB7DEB76983DC01ED9190
:101B7000FC910280F381E02D41E050E0BE016F5FF7
:101B80007F4F09950F90DF91CF91089583E0809367
:101B9000E9008091F200882319F08AE38093E8003D
:101BA000089583E00E94680D90E00895FC0184850B
:101BB000958597FD0BC09FB7F89482E08093E9006C
:101BC0008091F2009FBF90E0019608959FB7F8942E
:101BD00082E08093E9008091F2009FBF90E0089539
:101BE0000F931F93CF93DF931F92CDB7DEB78C0176
:101BF000FC018485958597FF0EC0CE0101960E9459
:101C00005919019719F4898190E002C08FEF9FEF75
:101C1000F80195878487F801848595850F90DF9179
:101C2000CF911F910F910895CF93DF931F92CDB75E
:101C3000DEB7FC018485958597FD05C02FEF3FEF4A
:101C4000358724870BC0CE0101960E945919019750
:101C500019F4898190E002C08FEF9FEF0F90DF9120
:101C6000CF9108952F923F924F925F926F927F9201
:101C70008F929F92AF92BF92CF92DF92EF92FF929C
:101C80000F931F93CF93DF93CDB7DEB729970FB68E
:101C9000F894DEBF0FBECDBFDC011D962D913C91A7
:101CA0001E972115310509F459C199878887F901D3
:101CB0003296449031967491E72EF12CB7E0EB0EFA
:101CC000F11C93E0F594E7949A95E1F7EA82319656
:101CD000A4913196E4916A1758F0462F50E08E2F68
:101CE00090E0FC01EA0FF11D4E175F070CF46AC08B
:101CF0006D3031F460E0888599850E941D2431C1E2
:101D00006A3009F02BC160E0888599850E941D2406
:101D1000E885F98500890E9DE02C11242781269500
:101D20002695269565816E0D8E2D821B860F9485D6
:101D3000992309F40EC118160CF00BC1A885B985BA
:101D40001B969C911B97890F87701B968C931B97F2
:101D50002E1915962C9315971D96ED91FC911E97B3
:101D6000309769F03396E491F0E0379683E0F5958B
:101D7000E7958A95E1F70E9FE02D112401C0E0E080
:101D80000FEF020F0E0FE885F985468141506481FF
:101D9000CF010E943C24A885B9851C968C911C9784
:101DA000813009F0DEC01B966C911B97660F660FA1
:101DB000660F6F731A966C931A976064CD010E9438
:101DC0000524CFC0A9014A5F5F4F6A1BA885B9856A
:101DD0001996FC9119975096EC91FE9FE02D1124D5
:101DE000EF83F901A4913196249130E03A2B22300F
:101DF000310570F44E9CC0014F9C900D1124689FDA
:101E00008001699F100D1124040F151F312C22C071
:101E1000777021F028E0322E371A01C0312CFA01F8
:101E200020E0A0E0B0E0261731F03491A30FB11DFF
:101E30002F5F3196F8CFFA01E20FF11D4490EA9E30
:101E40008001EB9E100DFA9E100D1124080F191F32
:101E5000040F151FA885B9851496BC91BB83E8852E
:101E6000F985F581FC83842D90E09E838D83812C00
:101E7000912CC12CD12CC9829A81C91608F068C056
:101E8000212C3601BFEF6B1A7B0AE885F985808922
:101E9000281608F055C0F981F11102C0222079F00E
:101EA000A885B9851596BC901597B3946B81CD0123
:101EB0000E941D246B2D888599850E940D24A12CDC
:101EC000B12CA41410F0B12C2FC0F401EA0DFB1DAD
:101ED000E00FF11F5490332061F0E614F70449F449
:101EE000E52DF0E0032C02C0F595E7950A94E2F7A2
:101EF0005E2EE885F9858089823069F4E52D211010
:101F0000E295EF70F0E0E450FF4F5490652D888526
:101F100099850E94EE23652D888599850E94EE2380
:101F2000FFEFAF1ABF0ACDCF8F81B81639F060E04E
:101F3000888599850E94EE23B394F6CF2394A5CF8C
:101F40009FEFC91AD90AAD81BE818A0E9B1E93CF1D
:101F50006C81888599850E940D2403C080E090E003
:101F600002C081E090E029960FB6F894DEBF0FBE64
:101F7000CDBFDF91CF911F910F91FF90EF90DF9038
:101F8000CF90BF90AF909F908F907F906F905F9019
:101F90004F903F902F9008951F920F920FB60F927F
:101FA00011248F939F938091E1009091E100937FA2
:101FB0009093E10083FF0FC01092E90091E09093AD
:101FC000EB001092EC0092E39093ED0010921B0551
:101FD00098E09093F00082FF20C093E09093E90096
:101FE0009091F200992319F09AE39093E800909170
:101FF000D404992339F09091D40491509093D4044F
:10200000992389F190911A05992339F090911A0535
:10201000915090931A05992341F184FF10C080914B
:10202000E2008E7E81608093E2008091E1008F7EED
:102030008093E100809114078E7E806111C080FF43
:1020400016C08091E2008E7E80618093E2008091D4
:10205000E1008E7E8093E100809114078E7E816086
:102060008093140704C05D98CDCF2898D6CF9F9158
:102070008F910F900FBE0F901F901895DF92EF92E7
:10208000FF920F931F93CF93DF93D82E8A017B018A
:10209000E40EF51EEB01CE15DF0571F0D7FE03C08F
:1020A000FE01849101C088810E943A0D2196811120
:1020B000F2CF8FEF9FEF01C0C801DF91CF911F9149
:1020C0000F91FF90EF90DF9008957F928F929F92F3
:1020D000AF92BF92CF92DF92EF92FF920F931F9336
:1020E000CF93DF93C82E8B017A0180911B0581115C
:1020F00003C08FEF9FEF74C08091140780FF05C06D
:102100008091E00082608093E000CE2DDF2DD12C05
:102110008AEFB82E8C2D8770982E8C2D8072882E89
:102120008C2D8074782E9AE3A92E209719F4DD2047
:1021300009F451C08C2D0E94680D81110AC0BA9417
:10214000BB20B9F261E070E080E090E00E94B52130
:10215000ECCF282F30E0C217D3070CF48C2F9FB799
:10216000F8949092E9002091E80025FF32C0282FD2
:1021700030E0C21BD30B882029F08150A0F01092D0
:10218000F100FBCFF801C7FE0AC0815050F0449126
:102190004093F1003196F9CF41914093F100815085
:1021A000D8F7020F131FDD2019F0A092E8000AC033
:1021B0008091E80085FD08C0A092E800DD24D3945A
:1021C000209739F0D12C05C0209719F47110A092F6
:1021D000E8009FBFAACF5D9A84E68093D404C7012C
:1021E000DF91CF911F910F91FF90EF90DF90CF90F3
:1021F000BF90AF909F908F907F900895CF93DF9383
:10220000EC0180910B01882331F083E00E9465107E
:102210001816190634F081E090E09B838A8380E0F1
:1022200090E0DF91CF9108956115710579F0FB0180
:1022300001900020E9F73197AF01461B570BDC01F5
:10224000ED91FC910280F381E02D099480E090E013
:1022500008950F931F93CF93DF93EC010E94141105
:102260008C0163E174E0CE010E941411800F911F74
:10227000DF91CF911F910F9108958091C804811132
:102280000DC082E08093C40484E08093C504109262
:10229000C7041092C60481E08093C80484EC94E0E3
:1022A00008950F931F93CF93DF931F92CDB7DEB79F
:1022B00082E0898342E450E06CE071E080E80E94B3
:1022C0003E100E943D11DC0112960D911C91139756
:1022D0000115110589F0D801ED91FC910280F3817F
:1022E000E02DBE016F5F7F4FC801099597FD04C0C7
:1022F000F80100851185ECCF89810F90DF91CF9196
:102300001F910F9108951F920F920FB60F921124F3
:10231000CF92DF92EF92FF920F931F932F933F93F1
:102320004F935F936F937F938F939F93AF93BF93DD
:10233000EF93FF93CF93DF93CDB7DEB76C97DEBFFC
:10234000CDBF1092E9008091E80083FFEFC168E003
:10235000CE0145960E94790D82EF8093E8008D8929
:1023600087FF05C09091E80090FFFCCF03C09EEF6F
:102370009093E800982F907609F0C6C09E894F8907
:10238000588D2F89F88C91110CC0803829F48091D8
:1023900015078093F10002C01092F1001092F10035
:1023A000BEC1913051F48111BAC14130510509F0DB
:1023B000B6C1809115078D7F0BC0933061F48111F8
:1023C000AEC14130510509F0AAC180911507826064
:1023D00080931507A4C1953049F48091E80080FFEF
:1023E000FCCF822F80688093E30099C1963009F07A
:1023F0005EC00B8D1C8D22E01092E9001092D30478
:102400001092D204F21232C01092D1041092D00471
:102410000E94511199E0BE016F5F7F4FDB01E92FF0
:102420001D92EA95E9F79983FA8291E09E8390EAFA
:1024300098879AEF99872091D2043091D304275F2F
:102440003F4F3C832B838D831092E9001092D3047D
:102450001092D2041093D1040093D00449E050E0CC
:1024600080E00E943E100E94511159C11093D10486
:102470000093D0040E943D11DC0112960D911C9135
:1024800013970115110509F4BFC0D801ED91FC9116
:102490000480F581E02DBE016B5E7F4FC801099578
:1024A000009709F0ACC0F80100851185EACF97309C
:1024B00009F439C1983021F481E08093F1002FC1F3
:1024C000993009F02CC1837009F02DC1EDE0F1E0E5
:1024D00081E031E096E32081211109C08EE78093ED
:1024E000EA001092EA008F8980931B0518C180933F
:1024F000E9003093EB0021912093EC009093ED00E4
:102500008F5F873041F7EACF8B8D9C8D1092E90069
:102510001092D3041092D2049093D1048093D004EB
:10252000898D811150C08E899D89913A49F48132FB
:1025300009F0F9C047E050E064E071E080E0B8C025
:10254000913209F0F0C0833269F48F89988DA0E050
:10255000B0E08093000190930101A0930201B09339
:102560000301DDC0803269F48091E80082FFFCCF76
:1025700067E084E091E00E94790D8BEF8093E800A2
:1025800006C0823209F0CBC08F8980930B01809105
:102590001307811103C0E0E0F8E002C0EEEFFAE0BB
:1025A0008091040190910501A0910601B09107016D
:1025B000803B9440A105B10509F07DC080910B01DD
:1025C00080FF95C078C00E943D11DC0112960D91EC
:1025D0001C9113970115110509F4A5C0D801ED91BF
:1025E000FC910190F081E02DBE016B5E7F4FC80130
:1025F0000995811194C0F80100851185EBCF18165B
:1026000019060CF48CC08FC0F1E0FF1609F447C026
:10261000F3E0FF1288C08F89882309F443C0823019
:1026200029F440E86DE080E791E006C0813051F484
:1026300040E86BE084E691E00E94792C882309F45D
:1026400072C06DC0833009F06EC00E943D11DC0184
:102650001296ED90FC9013978E010F5F1F4F68014B
:10266000E114F10479F0D701ED91FC910680F78136
:10267000E02DB801C7010995080F111DF701E0848D
:10268000F184EECFD8011C92F60101900020E9F709
:102690003197BF016C197D0940E0C601CDCF62E5DD
:1026A00071E002C06EE471E0FB01449150E080E80B
:1026B0000E943E1034C00FB6F894A8958091600037
:1026C000886180936000109260000FBEA895EE3F75
:1026D0002AE0F20739F08091FE0A9091FF0A918377
:1026E00080831DC01092FF0A1092FE0A18C0EE3FB0
:1026F0008AE0F80731F0808191819093FF0A8093FE
:10270000FE0A87E797E7918380839BE088E10FB615
:10271000F894A895809360000FBE909360008EEFB0
:102720008093E80003C081E28093EB006C960FB6C3
:10273000F894DEBF0FBECDBFDF91CF91FF91EF9137
:10274000BF91AF919F918F917F916F915F914F91C9
:102750003F912F911F910F91FF90EF90DF90CF90BD
:102760000F900FBE0F901F901895089580E190E094
:102770000895DC01FB0112968C91129790E0248160
:10278000358182179307D1F491818081813A31F4A8
:1027900081E0913091F0933089F411C0813271F46D
:1027A0009B3021F482811F968C9305C09A3031F4BE
:1027B000828150968C9381E00895089580E0089579
:1027C000DC01FB0188E4808389E4818384E48283E3
:1027D0001D969C911D979F709F5B93831D968D9175
:1027E0009C911E9724E0969587952A95E1F78F7026
:1027F0008F5B848385E00895FC0182818F5BFB0100
:10280000808381E00895CF92DF92EF92FF920F9341
:102810001F93CF93DF936C01EB017B01E40EF51E58
:1028200000E010E0CE15DF0581F069916D30D1F345
:10283000D601ED91FC910190F081E02DC601099542
:10284000892B19F00F5F1F4FEDCFC801DF91CF919A
:102850001F910F91FF90EF90DF90CF900895CF934D
:10286000DF93EC0160E170E042960E94F72460E1A2
:1028700070E0CE010296DF91CF910C94F72460E1D5
:1028800070E002960C94F7247F928F929F92AF9201
:10289000BF92CF92DF92EF92FF920F931F93CF934D
:1028A000DF93CDB7DEB7E4970FB6F894DEBF0FBE67
:1028B000CDBF962EE72E20E1FC017296DE01119627
:1028C00001900D922A95E1F7BA01CE0101966C01B3
:1028D000FE017196AF017E2E8F2EDB013D91BD0171
:1028E000DC012D91CD0123272193A417B507A9F76A
:1028F000672D782DCE0181960E940E2729858D8522
:1029000082278D879A858E8589278E878B853F853F
:1029100038273F874C8538893427388B3D812327DA
:1029200029872E8192279A879F8189278B8788857F
:1029300048274C87498134273D833A8123272E83BA
:102940002B8192279F839C81892788878E010F5C2A
:102950001F4F4AE0BE01635F7F4FC8010E94A5255B
:10296000998189A9892789839A818AA989278A8354
:102970009B818BA989278B839C818CA989278C8338
:1029800089E0F82ECE0181965C01FC01DE011196F2
:102990008D91908189278193E017F107C9F7BE01D6
:1029A0006F5D7F4F872D982D0E94CF25BE016B5DF7
:1029B0007F4FCE0145960E94CF25BE01675D7F4FB8
:1029C000CE0149960E94CF25BE01635D7F4FCE01A7
:1029D0004D960E94CF25672D782DCE0181960E94BD
:1029E0000E2729858D8582278D879A858E85892753
:1029F0008E878B853F8538273F874C8538893427DC
:102A0000388B3D81232729872E8192279A879F81A2
:102A100089278B87888548274C87498134273D83C0
:102A20003A8123272E832B8192279F839C8189279C
:102A300088874F2DBE01635F7F4FC8010E94A52587
:102A4000998189A9892789839A818AA989278A8373
:102A50009B818BA989278B839C818CA989278C8357
:102A6000FA94F1108FCFE92DFE2DD5019D915D01D6
:102A7000D6018D916D0189278193A016B106A9F722
:102A8000E4960FB6F894DEBF0FBECDBFDF91CF91B5
:102A90001F910F91FF90EF90DF90CF90BF90AF907C
:102AA0009F908F907F9008954031510551F4DC0143
:102AB000129680E1FB0101900D928A95E1F781E089
:102AC000089580E00895CF92DF92EF92FF920F93E6
:102AD0001F93CF93DF9300D000D0CDB7DEB78C012A
:102AE0007B010E945415C82E882309F44DC080E153
:102AF000F701D801529601900D928A95E1F7DD24F5
:102B0000D39478018EE1E80EF11C4D2DB701CE0172
:102B100001960E94A525F801428989814827428BA8
:102B200033898A813827338B24898B812827248B0A
:102B300095898C818927858B96894927468B97892A
:102B40003927378B908D2927208F918D8927818F69
:102B5000928D4927428F938D3927338F948D292762
:102B6000248F958D8927858F968D4927468F978D40
:102B70003927378F90A1292720A391A1892781A3E5
:102B8000D394FBE0DF12C1CF8C2D0F900F900F90EC
:102B90000F90DF91CF911F910F91FF90EF90DF90F9
:102BA000CF9008957F928F929F92AF92BF92CF92D3
:102BB000DF92EF92FF920F931F93CF93DF93CDB7E6
:102BC000DEB7E4970FB6F894DEBF0FBECDBF5B0152
:102BD00020E1FC013296DE01119601900D922A95BA
:102BE000E1F7BA01CE0101966C017E0191E1E90E97
:102BF000F11C9701D601FB019191BF018D918927AD
:102C0000F90181939F01AE15BF05A9F7772473944D
:102C10004E01F1E28F0E911C472DBE01635F7F4F85
:102C2000CE01C1960E94A525498189A948274983DB
:102C30003A818AA938273A832B818BA928272B83AD
:102C40009C818CA989278C839D8149274D839E81F6
:102C500039273E839F8129272F8398858927888755
:102C60009985492749879A8539273A879B85292756
:102C70002B879C8589278C879D8549274D879E8535
:102C800039273E879F8529272F8798898927888B11
:102C9000B701C4010E949227B401C7010E94C62651
:102CA000BE016B5D7F4FCE0145960E94C626BE01D8
:102CB000675D7F4FCE0149960E94C626BE01635DC7
:102CC0007F4FCE014D960E94C6268701FE013196A8
:102CD0008191D8019C9189278D938D01A815B90503
:102CE000B9F77394BAE07B1297CF4AE0BE01635FF5
:102CF0007F4FCE01C1960E94A525498189A9482709
:102D000049833A818AA938273A832B818BA92827BE
:102D10002B839C818CA989278C839D8149274D8396
:102D20009E8139273E839F8129272F839885892774
:102D300088879985492749879A8539273A879B85C6
:102D400029272B879C8589278C879D8549274D8737
:102D50009E8539273E879F8529272F879889892730
:102D6000888BB701C8010E949227F801A5019E0136
:102D70002F5C3F4F9191D6018D916D018927DA012A
:102D80008D93AD01E217F307A9F7E4960FB6F89417
:102D9000DEBF0FBECDBFDF91CF911F910F91FF908E
:102DA000EF90DF90CF90BF90AF909F908F907F90EB
:102DB0000895EF92FF920F931F93CF93DF93FB0140
:102DC0002081213851F52381223239F5DC01129618
:102DD0002C9130E04481558142175307F1F4EC0106
:102DE0000B851C85E12CF12C0115110591F0F801E2
:102DF000448155816281738180E80E943E108F3F3B
:102E0000FFEF9F0769F0E80EF91ED8010D911C91A4
:102E1000EBCF81E08F87C70105C080E090E002C062
:102E20008FEF9FEFDF91CF911F910F91FF90EF9068
:102E30000895CF93DF93CDB7DEB769970FB6F894B7
:102E4000DEBF0FBECDBFFC01DB018C918F5F8C9389
:102E5000BE016F5F7F4F89E1DB011D928A95E9F723
:102E600029E0298384E08A8391E09D8383E08E8337
:102E70002A8721E22B879C879D879F8722E2288BC8
:102E800027E02B8B25E02C8B8E8B20E430E0388FD5
:102E90002F8B998F82818B8395858685998B8A8BE1
:102EA000838180688D8B49E150E080E00E943E1074
:102EB00069960FB6F894DEBF0FBECDBFDF91CF91FC
:102EC00008950F931F93CF93DF931F92CDB7DEB773
:102ED0008B0180919305811105C00E94301E81E015
:102EE0008093930582E0898341E050E0BE016F5FEB
:102EF0007F4F809185050E94651097FD08C08091E5
:102F0000850548E050E0B80180640E9465100F908C
:102F1000DF91CF911F910F9108952CEF31E0FC01CB
:102F200021933193CF0160E170E00C94F724CF93AB
:102F3000DF93EC010E948D17CE01DF91CF910C94AD
:102F40007B33CF93DF93EC0180E192E09983888318
:102F500060E170E0CE0142960E94F724CE01DF913D
:102F6000CF910C948D17CF93DF93EC010E94A117A2
:102F7000CE01DF91CF910C947B33DC01683810F0E7
:102F8000685825C0E62FF0E067FF12C0E058F1094D
:102F900081E090E001C0880FEA95EAF780951496E9
:102FA0009C911497892314968C93149760E00FC01A
:102FB000E258FE4F64916623F9F067FF08C014964B
:102FC0008C9114978D7F14968C9314976F77FD01D5
:102FD00086E0662321F09681691301C01682815034
:102FE00031968111F6CFCD01BD016C5F7F4F0E94FC
:102FF000611781E090E0089580E090E00895DC01A1
:10300000683810F068582DC0E62FF0E067FF11C057
:10301000E058F10981E090E001C0880FEA95EAF7F5
:1030200014969C911497892B14968C93149760E0B6
:1030300018C0E258FE4F6491611109C081E090E030
:1030400013969C938E93129780E090E0089567FF0B
:1030500008C014968C911497826014968C931497E0
:103060006F7716968C911697681751F117968C9179
:103070001797681729F118968C911897681701F11E
:1030800019968C9119976817D9F01A968C911A97FE
:103090006817B1F01B968C911B97681789F0FD019A
:1030A000369680E090E02191211105C0FD01E80FE6
:1030B000F91F668305C0019686309105A1F7BECF42
:1030C000CD01BD016C5F7F4F0E94611781E090E0F0
:1030D0000895EF92FF921F93CF93DF93EC01162F89
:1030E0000E94FF177C01612FCE010E94BD17C7010E
:1030F0009927DF91CF911F91FF90EF900895AF92A4
:10310000BF92CF92DF92FF920F931F93CF93DF93E3
:103110006C01C62F8A01789465E174E082E395E042
:103120000E942911B80182E395E00E94291182E3EF
:1031300095E00E94D60DC81708F48C2F882359F10A
:10314000F12CC82FD0E05E0181E0A81AB1088F2DC4
:1031500090E08A159B0584F48601080F191F82E30D
:1031600095E00E94140EF8018083682F82E395E0B9
:103170000E94B00DF394EBCFCC0DDD1D219718828A
:1031800082E395E00E94D60D892B29F082E395E039
:103190000E94140EF5CFF894DF91CF911F910F91FB
:1031A000FF90DF90CF90BF90AF900895FF920F9364
:1031B0001F93CF93DF93EC01F62E072F142F0E945D
:1031C00027282E9882E00E942228CE010E943728CC
:1031D000CF2DD02FCE01810F911D8C01C017D107AB
:1031E00021F089910E942228F9CF2E9A0E942D2841
:1031F00080FDFCCFDF91CF911F910F91FF9008953B
:103200000F931F93CF938C01C62F0E9427282E98CF
:1032100082E00E942228C8010E9437288C2F0E9439
:1032200022282E9A0E942D2880FDFCCFCF911F913D
:103230000F9108950F93CF93DF93EC011B861A86AD
:1032400060E40E9405240F810695069506950150BD
:103250004E81415020E060E0CE010E943C24DF918D
:10326000CF910F910895809130059091310597FD90
:103270000AC0FC01FF27EE0FFF1FE45EFA4F8081BA
:1032800091810C94AD2A089580913005909131057B
:103290002091130130E08217930754F4FC01FF27BB
:1032A000EE0FFF1FE45EFA4F808191810C94AD2AEE
:1032B000089520911B05211103C08FEF9FEF089502
:1032C0005FB7F89422E02093E9002091F20030E00B
:1032D0001216130614F421E030E0422FFC0184E6BC
:1032E000415038F0289A80931A059091F1009193FB
:1032F000F7CF2115310521F08091F200882319F0D4
:103300005FBFC90108958BE68093E800F9CF2F9243
:103310003F924F925F926F927F928F929F92AF9265
:10332000BF92CF92DF92EF92FF920F931F93CF93B2
:10333000DF93CDB7DEB7CA54D1090FB6F894DEBF1C
:103340000FBECDBF1C018C010E5D1F4F27961FAF16
:103350000EAF27979C012E593F4F38A32F8FF801AE
:1033600060817181828193810E949C32619371930B
:10337000819391934F8D58A14E175F0789F7D10123
:1033800012968D919D910D90BC91A02D89A39AA329
:10339000ABA3BCA3D10116968D909D90AD90BC902F
:1033A00019978DA29EA2AFA2B8A61A968D909D9055
:1033B000AD90BC901D9789A69AA6ABA6BCA61E96FA
:1033C0008D909D90AD90BC9051978DA69EA6AFA676
:1033D000B8AA52968D909D90AD90BC90559789AAB1
:1033E0009AAAABAABCAA56968D909D90AD90BC901F
:1033F00059978DAA9EAAAFAAB8AE5A968D909D9065
:10340000AD90BC905D9789AE9AAEABAEBCAE5E9609
:103410008D909D90AD90BC90919721968CAE9DAE75
:10342000AEAEBFAE219709E612E01E8B0D8B2DA527
:103430003EA54FA558A925962CAF3DAF4EAF5FAF27
:10344000259789A59AA5ABA5BCA58F8B988FA98F29
:10345000BA8F8DA09EA0AFA0B8A489869A86AB86AD
:10346000BC86A9A0BAA0CBA0DCA0A982BA82CB82DC
:10347000DC82C9ACDAACEBACFCACCB8EDC8EED8E76
:10348000FE8EEDA8FEA80FA918ADE98AFA8A0B8B6B
:103490001C8B09A91AA92BA93CA90D831E832F8374
:1034A000388721964CAC5DAC6EAC7FAC2197ED8932
:1034B000FE8905911591259134910D871E872F87DF
:1034C000388B2796AEADBFAD27970D911D912D91ED
:1034D0003D912796BFAFAEAF2797CD80DE80EF80BE
:1034E000F884BE2DEF2CFC2CCD2CDB2EB701A601D1
:1034F000440F551F661F771F411D440F551F661F40
:10350000771F411D8D809E80AF80B884E82D8B2C65
:10351000BA2CA92C9E2E80FAB794A79497948794DE
:10352000B7F884269526A626B726B701A60140FB44
:10353000779567955795479577F940FB7795679508
:103540005795479577F940FB779567955795479538
:1035500077F9482559256A257B258D809E80AF8087
:10356000B88480949094A094B094CB8CDC8CED8C37
:10357000FE8C8C209D20AE20BF20CD80DE80EF8091
:10358000F88489899A89AB89BC89C822D922EA2220
:10359000FB22C824D924EA24FB248D849E84AF8492
:1035A000B888080D191D2A1D3B1DC00ED11EE21E34
:1035B000F31EC40ED51EE61EF71E4C0C5D1C6E1CC1
:1035C0007F1C89819A81AB81BC81982E8B2FBA2F69
:1035D000A92F992D880F991FAA1FBB1F811D8C0130
:1035E0009D01000F111F221F331F011D49815A81A8
:1035F0006B817C8140FB779567955795479577F967
:1036000040FB779567955795479577F9D901C8019C
:1036100084279527A627B72749815A816B817C810A
:103620005A01AB01B501440F551F661F771F411D9D
:10363000440F551F661F771F411D8A019B01000F14
:10364000111F221F331F011DAC01BD01402751274F
:10365000622773278F89988DA98DBA8DC984DA84E2
:10366000EB84FC848C259D25AE25BF25E980FA805E
:103670000B811C818E219F21A023B12309851A85EE
:103680002B853C858F88988CA98CBA8C08211921B0
:103690002A213B2180279127A227B327840F951F3A
:1036A000A61FB71F2596ACACBDACCEACDFAC259742
:1036B000A40CB51CC61CD71CAD86BE86CF86D88A86
:1036C000840D951DA61DB71D0D891E890C5F1F4F0A
:1036D0001E8B0D8B4B8C5C8C6D8C7E8C2F89388D6A
:1036E000498D5A8D25962CAF3DAF4EAF5FAF2597D4
:1036F0004F8D58A127968EAC9FAC2797481559053A
:1037000069F129853A854B855C852F8B388F498FE8
:103710005A8F89809A80AB80BC8089869A86AB86D6
:10372000BC8689839A83AB83BC83A988BA88CB88FB
:10373000DC88AB8EBC8ECD8EDE8ECD80DE80EF80C1
:10374000F884C98ADA8AEB8AFC8AED84FE840F85C4
:103750001889ED82FE820F831887A9CE09EA12E04C
:103760001E8B0D8B21E030E023963FAF2EAF2397C9
:103770002396EEADFFAD2397EF70FF273896EE0F3F
:10378000FF1FEE0FFF1FE20DF31D02811381248145
:1037900035812396EEADFFAD23973D96EF70FF2761
:1037A0003896EE0FFF1FEE0FFF1FE20DF31D828014
:1037B0009380A480B58022964FAD2297415F4F70D1
:1037C0004F8F74016501C0FAF794E794D794C794BA
:1037D000F7F8702F412F522F632F440F551F661F8C
:1037E000771F411D28013901E3E0769467945794CF
:1037F0004794EA95D1F74426552666267726A801F0
:1038000089019A0100FB379527951795079537F998
:1038100000FB379527951795079537F9042515254A
:10382000262537252396EEADFFAD23973896EF700A
:10383000FF273896EE0FFF1FEE0FFF1FA1014E0F5F
:103840005F1FB101FF8DE4E0FE9F600D711D11242B
:10385000FB01B096F8A3EF8FFA0142805380648099
:103860007580EF8DF8A14281538164817581440D8B
:10387000551D661D771D040F151F261F371F2601B6
:10388000370140FA779467945794479477F840FA51
:10389000779467945794479477F85AE0B694A7942E
:1038A000979487945A95D1F78C249D24AE24BF24F5
:1038B00084249524A624B724B901A801480D591DD4
:1038C0006A1D7B1D4283538364837583ED89FE8962
:1038D00085909590A590B4902B968CAE9DAEAEAE93
:1038E000BFAE2B97CD84DE84EF84F8889E2CEF2C1E
:1038F000FC2CCD2CD92C26013701440C551C661C00
:10390000771C411C440C551C661C771C411C0D8502
:103910001E852F853889A02E032F322F212F1A2D97
:1039200000FB379527951795079537F90425152539
:1039300026253725C0FAF794E794D794C794F7F86B
:10394000C0FAF794E794D794C794F7F8C0FAF794BD
:10395000E794D794C794F7F80C251D252E253F250D
:103960004D845E846F847888409450946094709401
:10397000C988DA88EB88FC884C205D206E207F2087
:10398000CD84DE84EF84F8888D809E80AF80B884FB
:10399000C820D920EA20FB20C424D524E624F7241B
:1039A0002B968CAC9DACAEACBFAC2B97C80CD91C85
:1039B000EA1CFB1CC00ED11EE21EF31EC40ED51E57
:1039C000E61EF71E4B8D5C8D6D8D7E8D4C0D5D1D45
:1039D0006E1D7F1D582E692E7A2E4B2E440C551CC1
:1039E000661C771C411C53014201880C991CAA1CBF
:1039F000BB1C811C6C017D01C0FAF794E794D7943D
:103A0000C794F7F8C0FAF794E794D794C794F7F8F7
:103A1000240135014C245D246E247F247C016D013A
:103A2000CC0CDD1CEE1CFF1CC11CCC0CDD1CEE1CE8
:103A3000FF1CC11C97018601000F111F221F331F9D
:103A4000011D73016201C026D126E226F3260985F5
:103A50001A852B853C8589809A80AB80BC8008259F
:103A600019252A253B25082319232A233B23240132
:103A7000350189849A84AB84BC84482059206A200B
:103A80007B204026512662267326C40CD51CE61CDA
:103A9000F71C8F88988CA98CBA8C840E951EA61E54
:103AA000B71EC40ED51EE61EF71E23960EAD1FAD23
:103AB00023970F5F1F4F23961FAF0EAF23972D89BC
:103AC0003E892C5F3F4F3E8B2D8B09891A892B89AC
:103AD0003C890B8F1C8F2D8F3E8F29853A854B8516
:103AE0005C852F8B388F498F5A8F23964EAD5FADF3
:103AF00023974133510519F109811A812B813C81AA
:103B000009871A872B873C8789839A83AB83BC8379
:103B1000D701C6012D813E814F815885298B3A8B73
:103B20004B8B5C8BCD84DE84EF84F888CD82DE8283
:103B3000EF82F8868D869E86AF86B88A19CE09A157
:103B40001AA12BA13CA1C00ED11EE21EF31EF10151
:103B5000C282D382E482F582CDA0DEA0EFA0F8A4D9
:103B60008C0D9D1DAE1DBF1D86839783A087B187D9
:103B700089A59AA5ABA5BCA5C980DA80EB80FC809D
:103B80008C0D9D1DAE1DBF1D82879387A487B587B1
:103B90008DA59EA5AFA5B8A9C984DA84EB84FC8461
:103BA0008C0D9D1DAE1DBF1D86879787A08BB18B89
:103BB000C9A8DAA8EBA8FCA88C0C9D1CAE1CBF1CE5
:103BC000828A938AA48AB58A8DA99EA9AFA9B8AD25
:103BD0008D849E84AF84B888880D991DAA1DBB1D55
:103BE000868B978BA08FB18F89AD9AADABADBCADF5
:103BF0008D809E80AF80B884880D991DAA1DBB1D45
:103C0000828F938FA48FB58F21968CAD9DADAEAD75
:103C1000BFAD219789889A88AB88BC88880D991D8B
:103C2000AA1DBB1D868F978FA0A3B1A3C65BDF4FD4
:103C30000FB6F894DEBF0FBECDBFDF91CF911F91BD
:103C40000F91FF90EF90DF90CF90BF90AF909F903B
:103C50008F907F906F905F904F903F902F9008953E
:103C600081E080938605809387052CE835E03093CA
:103C700089052093880510928B0510928A0520EB08
:103C800031E0309383052093820510928E051092C7
:103C90008D051092900510928F0580939105809369
:103CA000920581EC80938C050E943D11FC012181DD
:103CB0008091860590E0820F911D0897C4F5A2813E
:103CC000B381109729F482E895E0938382830EC034
:103CD00018968D919C911997009711F0DC01F8CFFF
:103CE00082E895E019969C938E9318978081809333
:103CF0008405818180938505908180918705890F56
:103D0000808380E090918605891788F4A0918805CA
:103D1000B0918905A80FB11D9C91A181B0E0A45F6D
:103D2000BE4F9C9391819F5F91838F5FEBCF0895EE
:103D3000BF92CF92DF92EF92FF920F931F93CF9398
:103D4000DF93CDB7DEB7C055D1090FB6F894DEBF0B
:103D50000FBECDBF7C01C42ED22E809117058823C3
:103D600029F0AB0160E2C7010E947F1890E081E07A
:103D7000890FF701E90FF11D2081982F2111F7CF4D
:103D8000803230F4F701E80FF11D10828F5FF8CF19
:103D9000809119050E94F40580E1F701DE01AF5B17
:103DA000BF4F01900D928A95E1F780E1F70170967F
:103DB000DE01919601900D928A95E1F7AE014F5B7D
:103DC0005F4FBA018FE496E00E94D215AE014F5DBD
:103DD0005F4FBA018FE496E00E94D21580E1FE01A8
:103DE000EF5BFF4FDE01119601900D928A95E1F78E
:103DF00080E1FE01B196DE01519601900D928A9507
:103E0000E1F740E2BE016F5F7F4FC8010E94AD281D
:103E1000DD2009F45DC000911905109116051111FE
:103E200010C08091150581110CC001110AC06FEFFF
:103E30000E94C9286FEF80E00E94D1280E94BD280F
:103E400047C020E8129FC00111248E599F4F0E9445
:103E50007128D82EBE016F5D7F4F812F0E948D2962
:103E60001F3FA9F040E250E0B701CE0181960E94C9
:103E7000413497FF0CC0812F0E94D928B82EBE0173
:103E80006F5D7F4F0E948D29D12E1B2DE9CF809130
:103E90001605181304C0009316050E94BD281F3F85
:103EA00011F4009315056D2D802F0E94C928612FF4
:103EB000802F0E94D1288FEFD81621F0602F8D2DF2
:103EC0000E94D1281F3F21F0602F812F0E94C92816
:103ED0004C2D50E050933105409330058BE080939A
:103EE0001805C05BDF4F0FB6F894DEBF0FBECDBF25
:103EF000DF91CF911F910F91FF90EF90DF90CF90C6
:103F0000BF900895CF93C82F20E8829FC00111244D
:103F100021E040E265EF74E080960E9440288091A5
:103F2000F5048F3F21F41092F504CF9108958C2F62
:103F30000E94F40565EF74E0CB01CF910C94432906
:103F4000CF93C82F20E8829FC001112421E040E2D6
:103F500065ED74E0805C9F4F0E9440288091D504FD
:103F60008F3F21F41092D504CF9108958C2F0E9499
:103F7000F40565ED74E0CB01CF910C9443298F9249
:103F80009F92AF92BF92CF92DF92EF92FF920F93E8
:103F9000CF93DF93EC017B014A016901E881F9814C
:103FA0000680F781E02D09955C01E881F9810084A4
:103FB000F185E02DCE010995AC14BD0430F0A601C9
:103FC000B401C7010E94163421C0E881F98102843E
:103FD000F385E02DA601B401CE010995E881F981B0
:103FE0000480F581E02DCE0109956C01E881F9810D
:103FF0000484F585E02DAC01B701CE010995E88177
:10400000F9810084F185E02DCE010995E701CC0D01
:10401000DD1DA5014C195D09602F70E0CE010E94E5
:104020001F34F701CE17DF0721F0808180278193AD
:10403000F9CFDF91CF910F91FF90EF90DF90CF906C
:10404000BF90AF909F908F900895CF93DF93282FCC
:1040500030E0F901E65BFD4F8491F901E55DFD4F2C
:10406000D491F901E45FFD4FC491CC2391F081110B
:104070000E947520EC2FF0E0EE0FFF1FE250FE4F84
:10408000A591B491EC91ED2381E090E021F480E0E2
:1040900002C080E090E0DF91CF9108953FB7F8949F
:1040A0008091220790912307A0912407B0912507C2
:1040B00026B5A89B05C02F3F19F00196A11DB11D83
:1040C0003FBFBA2FA92F982F8827820F911DA11DBE
:1040D000B11DBC01CD0142E0660F771F881F991FFB
:1040E0004A95D1F708950E94043490E0FC0131977D
:1040F000EF30F105B0F5E05AFF4F0C949632809105
:1041000080008F7703C0809180008F7D8093800036
:10411000089580918000877FF9CF84B58F7702C0A2
:1041200084B58F7D84BD0895809190008F7707C0FE
:10413000809190008F7D03C080919000877F809355
:10414000900008958091C0008F7703C08091C000D7
:104150008F7D8093C00008958091C200877F8093F7
:10416000C20008951F93CF93DF93282F30E0F90109
:10417000E65BFD4F8491F901E55DFD4FD491F901B6
:10418000E45FFD4FC491CC23C1F0162F81110E9432
:104190007520EC2FF0E0EE0FFF1FE95CF74FA591C3
:1041A000B4919FB7F894111104C08C91D095D82385
:1041B00002C0EC91DE2BDC939FBFDF91CF911F916A
:1041C0000895CF93DF9390E0FC01E55DFD4F2491CE
:1041D000FC01E45FFD4F8491882361F190E0880F3A
:1041E000991FFC01E75DF74FC591D491FC01E95C93
:1041F000F74FA591B491611109C09FB7F8948881D8
:10420000209582238883EC912E230BC0623061F4C9
:104210009FB7F8948881322F309583238883EC915F
:104220002E2B2C939FBF06C08FB7F894E8812E2BBE
:1042300028838FBFDF91CF9108951F93CF93DF9392
:10424000182FEB0161E00E94E120209711F460E05B
:1042500004C0CF3FD10539F461E0812FDF91CF91C8
:104260001F910C94B220E12FF0E0E65BFD4FE4914A
:104270008E2F90E0FC013197EF30F10508F06CC013
:10428000E159FF4F0C94963284B5806884BDC7BD58
:1042900068C084B5806284BDC8BD63C08091800061
:1042A000806880938000D0938900C093880059C0B3
:1042B00080918000806280938000D0938B00C093B7
:1042C0008A004FC080918000886080938000D093E6
:1042D0008D00C0938C0045C08091900080688093D1
:1042E0009000D0939900C09398003BC080919000BB
:1042F000806280939000D0939B00C0939A0031C05D
:1043000080919000886080939000D0939D00C0932E
:104310009C0027C08091C00080688093C00080917D
:10432000C0008F7B8093C000C093CF001AC08091E3
:10433000C00080628093C000C093D00012C0809102
:10434000C20088608093C2008091C2008B7F8093FE
:10435000C200C093D20005C0C038D1050CF07CCF9C
:1043600076CFDF91CF911F9108958F929F92AF9258
:10437000BF92CF92DF92EF92FF926B017C010E947D
:104380004E204B015C01C114D104E104F104F1F0B1
:104390000E944E20DC01CB0188199909AA09BB09AA
:1043A000883E9340A105B10570F321E0C21AD108FF
:1043B000E108F10888EE880E83E0981EA11CB11C6C
:1043C000C114D104E104F10419F7DDCFFF90EF909F
:1043D000DF90CF90BF90AF909F908F9008952FB7B0
:1043E000F89460911E0770911F07809120079091AB
:1043F00021072FBF08951F920F920FB60F9211241D
:104400002F933F938F939F93AF93BF9380911E07FA
:1044100090911F07A0912007B091210730911D07AF
:1044200023E0230F2D3720F40196A11DB11D05C0F7
:1044300026E8230F0296A11DB11D20931D0780932E
:104440001E0790931F07A0932007B0932107809128
:10445000220790912307A0912407B0912507019688
:10446000A11DB11D8093220790932307A0932407D9
:10447000B0932507BF91AF919F918F913F912F915D
:104480000F900FBE0F901F901895FC0187E696EED7
:10449000A9E0BAE682839383A483B58385E89EEA84
:1044A000A7E6BBEB86839783A087B18782E793EF6C
:1044B000AEE6BCE382879387A487B5878AE395EF4E
:1044C000AFE4B5EA86879787A08BB18B8FE792E53B
:1044D000AEE0B1E5828B938BA48BB58B8CE898E62C
:1044E000A5E0BBE9868B978BA08FB18F8BEA99ED06
:1044F000A3E8BFE1828F938FA48FB58F89E19DECF4
:10450000A0EEBBE5868F978FA0A3B1A3DF01A659CC
:10451000BF4F1C92EE59FF4F1082118212821382FC
:10452000148215821682178208950F93CF93DF931A
:10453000EC019A01829606E3AB01BC01CE010E9418
:10454000BF1FFE01EE59FF4F20813181428153810F
:1045500064817581868197813E5F4F4F5F4F6F4FBA
:104560007F4F8F4F9F4F20833183428353836483D8
:10457000758386839783CE01DF91CF910F910C9441
:1045800087196F927F928F929F92AF92BF92CF9234
:10459000DF92EF92FF920F931F93CF93DF934C0123
:1045A0003B01EA01FC01EE59FF4F9A0140E050E067
:1045B00060E070E080E090E003E00E94A332A08021
:1045C000B180C280D380E480F580068117810E948B
:1045D000DA322083318342835383648375838683F5
:1045E0009783840106591F4F80E4A82E740122E2AC
:1045F000E20EF11C209721F1F8018081BA2CB81A43
:104600002B2D30E0C217D30708F4BC2ECB2CD12CB5
:10461000A601B3019701280F311DC9010E9416346C
:10462000F80180818B0D8083CC19DD096C0C7D1C19
:10463000803401F7C4010E948719F8011082DACF93
:10464000DF91CF911F910F91FF90EF90DF90CF906E
:10465000BF90AF909F908F907F906F9008954F92F2
:104660005F926F927F928F929F92AF92BF92CF9202
:10467000DF92EF92FF920F931F93CF93DF937C0112
:104680005B01942E852E6C0182E2C80ED11CF701CD
:10469000E659FF4F2081822F90E0E701CE59DF4F8E
:1046A000D601A80FB91F283308F058C020E82C9372
:1046B000808190E047E350E0481B590B019660E091
:1046C00070E08C0D9D1D0E941F34688179818A8164
:1046D0009B810E949C322B013C01288139814A81B7
:1046E0005B816C817D818E819F8100E20E94BE3260
:1046F000C901DA01F701E65AFF4F0B2F11272227D4
:104700003327782F662755274427042B152B262B74
:10471000372B492F5A2F6B2F772744276627772768
:10472000402B512B622B732BBA2FA92F982F882740
:1047300088279927BB27842B952BA62BB72B808303
:104740009183A283B38334964082518262827382C2
:10475000C7010E948719F701329618C020E82C93F0
:10476000808190E04FE350E0481B590B019660E0D8
:1047700070E08C0D9D1D0E941F34C7010E94871997
:1047800088E3F60111928A95E9F79FCF61917191C3
:10479000819191910E949C32648F758F868F978F43
:1047A000CE16DF0699F7492D582D4132510510F0EC
:1047B00040E250E0B601C501DF91CF911F910F910A
:1047C000FF90EF90DF90CF90BF90AF909F908F9031
:1047D0007F906F905F904F900C941634CF93DF933F
:1047E000EC019C818E81981768F48F856827E88199
:1047F000F9810084F185E02D42E0CE0109958C819C
:104800008F5F8C83DF91CF910895DC01ED91FC9156
:104810000084F185E02D40E00994FC0187818695B4
:1048200086958695681740F465839385690F677050
:10483000606BCF010C94052408950F931F93CF93C1
:10484000FC0126816217A0F4C62F8C016483908539
:10485000C90F6C2F6F70CF010E9405246C2F6295D9
:104860006F706061C801CF911F910F910C94052466
:10487000CF911F910F910895CF92DF92EF92FF9207
:104880000F931F93CF93DF93EC01F62EC42ED22EFD
:104890008F81869586958695081710F00FEF080F83
:1048A0001D2D6F2DCE01011788F00E941D24612F50
:1048B000CE010E940D24EF2CCE1430F06F85CE0176
:1048C0000E94EE23E394F8CF1F5FEBCF0E941D24DC
:1048D0006D2DCE01DF91CF911F910F91FF90EF9041
:1048E000DF90CF900C940D2480E490E0089580E256
:1048F00090E008951F920F920FB60F9211242F93FC
:104900004F935F936F937F938F939F93AF93BF93D7
:10491000209184008091270790912807A091290772
:10492000B0912A07820F911DA11DB11D8093270709
:1049300090932807A0932907B0932A07809127070F
:1049400090912807A0912907B0912A074091270745
:10495000509128076091290770912A072AE0880F53
:10496000991FAA1FBB1F2A95D1F7840F951FA61F59
:10497000B71F8093270790932807A0932907B09328
:104980002A078091270790912807A0912907B091C5
:104990002A074091270750912807609129077091B5
:1049A0002A0726E0B695A795979587952A95D1F77A
:1049B00084279527A627B727809327079093280752
:1049C000A0932907B0932A07809126078F5F8093D1
:1049D0002607BF91AF919F918F917F916F915F91CA
:1049E0004F912F910F900FBE0F901F901895680F49
:1049F000791F8617970721F0FC0110820196F9CFE5
:104A000008956F927F928F929F92AF92BF92CF92B2
:104A1000DF92EF92FF920F931F93CF93DF93CDB767
:104A2000DEB7A0970FB6F894DEBF0FBECDBF7C01F6
:104A30004B013A0169015801DC01ED91FC910484BC
:104A4000F585E02D40E250E0BE016F5F7F4F099594
:104A5000B7016E5D7F4F0CE59301A401C7010E9471
:104A6000BF1FF701EE59FF4F2081318142815381F1
:104A700064817581868197813E5F4F4F5F4F6F4F95
:104A80007F4F8F4F9F4F20833183428353836483B3
:104A9000758386839783C7010E948719D701ED919B
:104AA000FC910284F385E02D40E250E0BE016F5F8F
:104AB0007F4FC7010995D701ED91FC910484F585DD
:104AC000E02DA501B601C701099560E270E0CE01B5
:104AD00001960E94F724A0960FB6F894DEBF0FBE91
:104AE000CDBFDF91CF911F910F91FF90EF90DF909D
:104AF000CF90BF90AF909F908F907F906F900895D0
:104B0000CF93DF93EC0169E670E002960E94F724F0
:104B1000E881F9810084F185E02DCE01DF91CF910C
:104B200009942CE332E0FC0121933193CF0169E633
:104B300070E00C94F724CF93DF93EC010E94912551
:104B4000CE01DF91CF910C947B33CF93DF93DC01C7
:104B5000EB01E981F0E0E05BF64F8491E42FF0E0B7
:104B6000EB5BF64FE491E827EC93EA81F0E0E05B41
:104B7000F64FE4911196EC931197EB81F0E0E05B36
:104B8000F64FE4911296EC931297E881F0E0E05B27
:104B9000F64FE4911396EC93DF91CF9108952F9205
:104BA0003F924F925F926F927F928F929F92AF92BD
:104BB000BF92CF92DF92EF92FF920F931F93CF930A
:104BC000DF9300D000D0CDB7DEB78C01FB01508160
:104BD000918182814381252F30E03C832B83220FFA
:104BE000331F7BE1272E239E302C11243226A92F40
:104BF000B0E09D01220F331F239EB02C1124B2265A
:104C0000482E512C9201220F331F239E902C1124E9
:104C10009226642F70E09B01220F331F239E202CCD
:104C200011242226EB81FC81EE0FFF1FEE0FFF1FE8
:104C3000FA83E9836D01CC0CDD1CCC0CDD1CED2C62
:104C4000FF249701205B3D4FF90180808C24620195
:104C5000CC0CDD1CCC0CDD1CED2CFF249701205B63
:104C60003D4FF901A080AC246B01CC0CDD1CCC0CB9
:104C7000DD1CED2CFF249701205B3D4FF901D08016
:104C8000DC24EB80FC80F3E0EE0CFF1CFA95E1F7EE
:104C90002F2D3327205B3D4FF901F081FE25FB834B
:104CA0003D0133E0660C771C3A95E1F7A72DBB2751
:104CB000A05BBD4FAC91A625F3E0440C551CFA95C2
:104CC000E1F7E52DFF27E05BFD4FE0814E2623E075
:104CD000660F771F2A95E1F7E72FFF27E05BFD4F6F
:104CE000E0816E2729813A81E32FFF27E05BFD4FAA
:104CF0003081298123273B812327392F38273427E7
:104D00003A253A273425362733253B253227F80123
:104D10003083352F3827342738253D25FB813F2721
:104D20003A2734253627B326B924F801B1829527CE
:104D30004927A426AA26A424A6269A249224292513
:104D4000228398279825C92ECD24FB81FC25AF27E7
:104D50004A2664256325262F2225F80123830F90F8
:104D60000F900F900F90DF91CF911F910F91FF90B7
:104D7000EF90DF90CF90BF90AF909F908F907F90FB
:104D80006F905F904F903F902F9008951F93CF9317
:104D9000DF93FC01CB01DB011C9111967C911197F3
:104DA0001296BC91EC01AB81812F90E0880F991F86
:104DB000CBE1C99F602D11246827472F50E0440F95
:104DC000551FC59F802D112448272B2F30E0220F1F
:104DD000331FC39F802D112428278A2F90E0880F2E
:104DE000991FC99FC02D11248C27972F9B279A2785
:104DF000962794279083912F9B279A27492742270C
:104E000041837127A7272A27282722837B277627F4
:104E100087278383DF91CF911F910895CF93DF93ED
:104E2000DC01EB01E881F0E0EB5BF74FE491EC9300
:104E3000ED85F0E0EB5BF74FE4911196EC93119761
:104E4000EA85F0E0EB5BF74FE4911296EC93129752
:104E5000EF81F0E0EB5BF74FE4911396EC9313973F
:104E6000EC81F0E0EB5BF74FE4911496EC93149730
:104E7000E981F0E0EB5BF74FE4911596EC93159721
:104E8000EE85F0E0EB5BF74FE4911696EC93169706
:104E9000EB85F0E0EB5BF74FE4911796EC931797F7
:104EA000E885F0E0EB5BF74FE4911896EC931897E8
:104EB000ED81F0E0EB5BF74FE4911996EC931997D5
:104EC000EA81F0E0EB5BF74FE4911A96EC931A97C6
:104ED000EF85F0E0EB5BF74FE4911B96EC931B97AB
:104EE000EC85F0E0EB5BF74FE4911C96EC931C979C
:104EF000E985F0E0EB5BF74FE4911D96EC931D978D
:104F0000EE81F0E0EB5BF74FE4911E96EC931E9779
:104F1000EB81F0E0EB5BF74FE4911F96EC93DF91B0
:104F2000CF910895CF93DF93DC01EB01E881F0E0AE
:104F3000E05BF64FE491EC93ED81F0E0E05BF64F3F
:104F4000E4911196EC931197EA85F0E0E05BF64F5F
:104F5000E4911296EC931297EF85F0E0E05BF64F48
:104F6000E4911396EC931397EC81F0E0E05BF64F3D
:104F7000E4911496EC931497E985F0E0E05BF64F2A
:104F8000E4911596EC931597EE85F0E0E05BF64F13
:104F9000E4911696EC931697EB81F0E0E05BF64F08
:104FA000E4911796EC931797E885F0E0E05BF64FF5
:104FB000E4911896EC931897ED85F0E0E05BF64FDE
:104FC000E4911996EC931997EA81F0E0E05BF64FD3
:104FD000E4911A96EC931A97EF81F0E0E05BF64FBC
:104FE000E4911B96EC931B97EC85F0E0E05BF64FA9
:104FF000E4911C96EC931C97E981F0E0E05BF64F9E
:10500000E4911D96EC931D97EE81F0E0E05BF64F86
:10501000E4911E96EC931E97EB85F0E0E05BF64F73
:10502000E4911F96EC93DF91CF910895FC01828962
:105030009389853F914010F084E001C081E0809326
:10504000180508958EBD0DB407FEFDCF08952E9866
:1050500086E00E9422282E9A08952E9885E00E94CC
:10506000222880E00E9422282E9A8EB50895CF93A0
:10507000C82F892F0E9422288C2FCF910C94222890
:10508000EF92FF920F931F93CF93DF93EC01062FC4
:10509000E72EF42E122F222311F02E9801C05F98D4
:1050A00083E00E942228CE010E943728C02FDE2DE7
:1050B000CE018F0D911D7C01CE15DF0531F080E012
:1050C0000E9422288EB58993F7CF112311F02E9AD2
:1050D00001C05F9ADF91CF911F910F91FF90EF90E8
:1050E0000895CF93DF93EC012E9883E00E9422284D
:1050F000CE010E94372880E00E9422282E9A8EB589
:10510000DF91CF910895CF92DF92EF92FF920F93AC
:105110001F93CF93DF936C017B01042F0E941D32FC
:10512000F701808311E0101778F4212F30E0C601D9
:10513000820F931F97FD08C0E701C20FD31F1F5FA7
:105140000E941D328883EFCFDF91CF911F910F9185
:10515000FF90EF90DF90CF90089597FD05C09C01E0
:10516000240F311D37FF02C080E00895413208F05E
:1051700040E20E94D61881E008956091160582EC05
:105180009FE70C94001960911C0780EC9FE70C943A
:10519000001920E8829FC00111248E599F4F0C9462
:1051A000001920E8829FC00111248D599F4F0C9453
:1051B000001920E8829FC00111248D599F4F0C9443
:1051C00071280F931F93CF9300E010E0C0E0C80157
:1051D0000E9471288F3F39F0CF5F00581F4FCF3F9B
:1051E000B1F78FEF01C08C2FCF911F910F910895D0
:1051F000CF9382EC9FE70E947128C82F8F3F39F42C
:105200000E94E128C82F809316050E94BD288C2F8C
:10521000CF91089510926F07809116058093150520
:105220000E94D9289091160589130FC020E8829F0B
:10523000C001112441E06FEF70E08D599F4F0E9433
:10524000AD28809116050E94D9288F3FD9F0909102
:105250006F079F5F90936F07809315050E94D92871
:10526000909115058913F1CF20E8829FC001112488
:1052700041E06FEF70E08D599F4F0E94AD28809103
:105280001505E1CF08950F931F93CF93DF93CDB70B
:10529000DEB7A0970FB6F894DEBF0FBECDBF8C016E
:1052A00080E1FB01DE01119601900D928A95E1F7F4
:1052B00080E1FB017096DE01519601900D928A9576
:1052C000E1F7AE014F5F5F4FBA018FE496E00E94B5
:1052D0004414AE014F5E5F4FBA018FE496E00E9426
:1052E000441480E1FE013196D80101900D928A9517
:1052F000E1F780E1FE017196D801509601900D9280
:105300008A95E1F7A0960FB6F894DEBF0FBECDBF29
:10531000DF91CF911F910F9108951F93CF93DF934A
:10532000182FEB0121E040E230E8839FC0011124F7
:105330000E94402888818F3F29F41882DF91CF9105
:105340001F910895812F0E94F405BE01CE01DF91C7
:10535000CF911F910C944329AF92BF92CF92DF92CD
:10536000EF92FF920F931F93CF93DF93CDB7DEB7EA
:105370006C970FB6F894DEBF0FBECDBF6C01FC0179
:1053800001900020E9F731978F01081B190B84EE7B
:1053900095E00E94452256017801E114F10489F05C
:1053A000A7010E151F0508F4A801B50184EE95E0CC
:1053B0000E94C12281E0E81AF1088FEFA81AB80A0A
:1053C000ECCF4CE150E0BE016F5F7F4F84EE95E083
:1053D0000E942F2384EE95E00E9480258CE1FE013F
:1053E0003196D60101900D928A95E1F76C960FB631
:1053F000F894DEBF0FBECDBFDF91CF911F910F910B
:10540000FF90EF90DF90CF90BF90AF900895CF9333
:10541000DF93D62FC42F682F70E085E10E941D21F5
:105420006D2F70E084E10E941D216C2F70E083E1FC
:10543000DF91CF910C941D214FEF60E080E00C9440
:10544000072A40E06FEF80E00C94072A40E060E01C
:105450008FEF0C94072AE62FF0E050E0EE0FFF1FCD
:10546000EC5EFE4FA081B181A40FB51F81110FC06A
:1054700086E48C93A081B181A40FB51F11968C9303
:1054800080819181FC01E40FF51F128208958EE462
:105490008C9380819181FC01E40FF51F11820895A6
:1054A00087EA95E00E941A1960E777E087EA95E0BD
:1054B0000E9429116FE477E087EA95E00C942911A6
:1054C00040E250E064E772E08FE497E00E944F34DE
:1054D0000C94502A40E250E0BC018FE497E00E9417
:1054E0004F3410926E070C94502AEF92FF920F9354
:1054F0001F93CF93DF9300D0CDB7DEB7082F162FC1
:105500008FE497E00E946A2A09831A82612F660F4E
:10551000610F660F665F87EA95E00E941D24FE0119
:105520003196DF010D900020E9F78F01CD01019741
:105530007C010E151F0541F0F80161918F0187EA8A
:1055400095E00E94320EF5CF0F900F90DF91CF9132
:105550001F910F91FF90EF90089540E250E0BC0141
:1055600080E797E00E944F3410928F070C94502AE6
:10557000CF93DF93CDB7DEB7A0970FB6F894DEBF19
:105580000FBECDBF809119050E94A01F80E2E5EDFE
:10559000F4E0DE01119601900D928A95E1F7BE01CB
:1055A0006F5F7F4F8BE995E00E942911A0960FB69F
:1055B000F894DEBF0FBECDBFDF91CF910895CF939A
:1055C000DF93CDB7DEB7A0970FB6F894DEBF0FBE5E
:1055D000CDBF809119050E94821F80E2E5EFF4E0C3
:1055E000DE01119601900D928A95E1F7BE016F5F81
:1055F0007F4F8BE995E00E94141163EB8BE995E0F6
:105600000E94FF1763EB8BE995E00E94BD17A096FF
:105610000FB6F894DEBF0FBECDBFDF91CF910895D6
:10562000CF936FE277E0809119050E948D29C0E049
:10563000EC2FF0E0E15DF84F6081662331F0CF5F41
:105640008BE995E00E946918F3CFCF9108951F92DE
:105650000F920FB60F9211242F933F934F935F93A6
:105660006F937F938F939F93AF93BF93CF93DF936A
:10567000EF93FF938091E3050E942520EC01809138
:10568000E2050E942520E091E105EF70CC0FDD1FBF
:105690008C2B94E0E99FF0011124E85AFD4FE80FAC
:1056A000F11D80818093E1058073803111F487E0E2
:1056B00003C0803219F488E080931805FF91EF91C0
:1056C000DF91CF91BF91AF919F918F917F916F911A
:1056D0005F914F913F912F910F900FBE0F901F90B0
:1056E0001895823029F128F4882349F08130A1F0FF
:1056F0000895833061F1843009F444C008958091A5
:105700002E07811106C06FE277E0809119050E9493
:105710008D298FE297E00AC080912E07811104C085
:10572000809119050E94821F85EF94E00C946A2AEB
:1057300080912E07811104C0809119050E94A01F3D
:1057400080911B078823F1F085ED94E0EFCF8091E5
:105750002E07811114C08091190520E8829FC00195
:10576000112421E042E06CE277E0805A9F4F0E94D2
:10577000402880912C078F3F11F410922C078CE267
:1057800097E0D4CF0C94602A83E080932B0780911C
:105790001605282F30E03093310520933005809393
:1057A000190580911601909117010E94AD2A6FE2B0
:1057B00077E0809130050E948D298FE297E00E946A
:1057C0006A2A10921805089585E08093130184E1F8
:1057D000E2E9F1E0ACE1B5E001900D928A95E1F7E4
:1057E000109231051092300587E080932B0780914D
:1057F0001C0590911D050E94AD2A80912E078111F4
:105800000AC06FE277E0809119050E948D298FE22E
:1058100097E00E946A2A1092180508951F93CF936B
:10582000DF9300D0CDB7DEB7E091C304F0E0EC5CCD
:10583000FE4F908199831A8280932B0770E07093BA
:10584000310560933005CE0101960E946A2A1092BC
:10585000180580911705882381F08FEF9FEF9093B3
:105860003F0580933E0510910B016AE070E080E0F7
:1058700090E00E94B5211123B1F30F900F90DF91BA
:10588000CF911F9108952091C30430E0DC01A20F55
:10589000B31FE0913005F0913105EC5CFE4F808143
:1058A0008C9311961C9280911B07811104C0662372
:1058B00011F08AE207C0E0913005F0913105EC5C0F
:1058C000FE4F8081F901E15BF84F8083F901E15BD4
:1058D000F84F11820E94502A8091C304282F30E093
:1058E0002E3131051CF48F5F8093C304109218058C
:1058F0000895DF92EF92FF920F931F93CF93DF9360
:10590000D82EF92EE42E062F10E0C8010196880F3C
:105910000E943A0D83E00E943A0DCD2DDF2D0C0F31
:105920001D1FC017D10789F0E7FE03C0FE01849157
:1059300001C088810E943A0DF82E80E00E943A0D45
:105940008F2121968111EDCF01C081E0DF91CF91B0
:105950001F910F91FF90EF90DF900895AF92BF924B
:10596000CF92DF92FF920F931F93CF93DF93CDB728
:10597000DEB7A0970FB6F894DEBF0FBECDBFF82EEE
:1059800086E194E00E946A2A00E010E05E0181E274
:10599000A80EB11C40E06FEF8FEF0E94072A21E0B4
:1059A000F11020E040E2BE016F5F7F4FC8010E940E
:1059B0004028F11002C05F9801C02E9886E00E9436
:1059C0002228F11003C05F9A5F9802C02E9A2E9889
:1059D00082E00E942228C8010E943728FE013196E9
:1059E0006F01F60181916F010E942228AC14BD0461
:1059F000C1F7F11002C05F9A02C02E9A30C05F98C2
:105A000085E00E94222880E00E9422285F9A0EB43E
:105A100000FCF5CF005E1F4F0115F0E81F0709F0ED
:105A2000B9CF0E94F82880931605809319050E942B
:105A30000A290E94212A81E294E00E946A2AA09603
:105A40000FB6F894DEBF0FBECDBFDF91CF911F918F
:105A50000F91FF90DF90CF90BF90AF9008950E947C
:105A60002D2880FDFCCFD6CF8FE496E00E94A117B1
:105A700084EE95E00E949125F894A89584B7877FDD
:105A800084BFE0E6F0E080818861808310827894B2
:105A900060E470E08FE796E00E94F72460E470E035
:105AA0008FEB96E00C94F724109235051092340594
:105AB00088EE93E0A0E0B0E0809336059093370540
:105AC000A0933805B09339058CEB91E090933305A2
:105AD000809332058FEF9FEF90933F0580933E05B3
