:100000000C9431050C9459050C9459050C94590520
:100010000C9459050C9459050C9459050C945905E8
:100020000C9459050C94332B0C94D20F0C94891119
:100030000C9480240C9459050C9459050C94590582
:100040000C9459050C9459050C9459050C945905B8
:100050000C9459050C9459050C9459050C940122E3
:100060000C9459050C9459050C9459050C94590598
:100070000C9459050C9459050C9459050C94590588
:100080000C9459050C9459050C9459050C94590578
:100090000C9459050C9459050C9459050C94590568
:1000A0000C9459050C9459050C9459059409BB09F5
:1000B000F409C009C209D609EA09EE09F009F209F2
:1000C000A30A1B0B280B2D0B300B350B380B932081
:1000D0009620852089208F20B720B720B7209A202E
:1000E0009E20A220A820AC20B720B2204A214F2178
:1000F00054215E216821B221B221B22172217C21DA
:10010000862190219D21B221A52100030C0F3033BF
:100110003C3FC0C3CCCFF0F3FCFF080B000202024F
:100120000100090400000102020000052400100182
:100130000524010101042402060524060001070527
:10014000810310004009040100020A0000000705B5
:100150000202400000070583024000000403090476
:1001600012010002EF020140412337800001010229
:10017000030141726475696E6F204C4C43004172FB
:100180006475696E6F204D6963726F000000000036
:10019000000000002A2B28000000000000000000E2
:1001A0000000000000000000000000002C9EB4A031
:1001B000A1A2A434A6A7A5AE362D3738271E1F202E
:1001C000212223242526B333B62EB7B89F848586F3
:1001D0008788898A8B8C8D8E8F9091929394959637
:1001E0009798999A9B9C9D2F3130A3AD35040506B5
:1001F0000708090A0B0C0D0E0F1011121314151617
:100200001718191A1B1C1DAFB1B0B5000000000073
:100210002300260029002C002F00040404040403FA
:100220000405020202020403020202020606060696
:1002300006060404020202040404080201104080BD
:1002400040102040804080080204018040201002BD
:1002500001108010204040200000000200090F0023
:1002600000030401000C000000000000000000007A
:1002700000000000000000982F8A4291443771CF9F
:10028000FBC0B5A5DBB5E95BC25639F111F159A444
:10029000823F92D55E1CAB98AA07D8015B8312BE41
:1002A000853124C37D0C55745DBE72FEB1DE80A71E
:1002B00006DC9B74F19BC1C1699BE48647BEEFC617
:1002C0009DC10FCCA10C246F2CE92DAA84744ADCAB
:1002D000A9B05CDA88F97652513E986DC631A8C84B
:1002E0002703B0C77F59BFF30BE0C64791A7D5518D
:1002F00063CA0667292914850AB72738211B2EFCF3
:100300006D2C4D130D385354730A65BB0A6A762E53
:10031000C9C281852C7292A1E8BFA24B661AA8704F
:100320008B4BC2A3516CC719E892D1240699D6858C
:10033000350EF470A06A1016C1A419086C371E4C53
:10034000774827B5BCB034B30C1C394AAAD84E4FF5
:10035000CA9C5BF36F2E68EE828F746F63A578146E
:1003600078C8840802C78CFAFFBE90EB6C50A4F7E3
:10037000A3F9BEF27871C605010906A1018502053F
:100380000719E029E71500250175019508810295F7
:100390000175088103950675081500257305071971
:1003A0000029738100C0AED580A81FD300408D14F2
:1003B0002002A1C8DA02817FD9F1DB40A4A6AF07F1
:1003C0000605040100080A0B0C0D091A4C0A0D2041
:1003D0006002010306050909010303050702030181
:1003E00003050305050605050505050102060606C4
:1003F000040A0807070807060808030408070B088B
:1004000008060808050708070B0808070303020683
:100410000602050504060404050603020603090690
:10042000050606040403060609050705030103057E
:100430000600000000FE100E000E000000D07856EE
:1004400050F8561800001800001C12FF22C40810B3
:100450003810080C128C40300886408000100800CC
:100460000000081008C0203CD28A46301000081056
:10047000101008101010080E00F00C020830400296
:100480000CF040300814083E081400000000002062
:100490002020FC2020200000000800000000005068
:1004A00030808080000000001000F806180000FC7A
:1004B000020202FC081010100804FE0010181004BC
:1004C0000282423C101810101804022232CC101084
:1004D000101008C0A09884FE8000000000180000E2
:1004E0000C0A12E21010100800F0281412E2081092
:1004F000101008040202F20E00001800008C5222B4
:10050000528C08101010083C4242C27C10100800A7
:10051000001010100050302050505088880000000B
:100520000000005050505050500000000000008863
:1005300088505050200000000000000CC2221C0017
:10054000100000F008E4120A0A927A04F818204811
:1005500090908888904820008078465860800010ED
:100560001810000010181002FE2222223CC01018A1
:100570001010101008F804020202048E0008101077
:1005800010080002FE0202020204F81018101010F7
:1005900010080002FE22227206001018101010101F
:1005A0000802FE22227206101810000000F8040251
:1005B000020224EE20000810101010080002FE2293
:1005C000202022FE02101810000010181002FE0257
:1005D0001018100002FE021810080002FE225088B7
:1005E000060202101810000018101002FE0200008F
:1005F00000001018101010100802FE0618E000E0AD
:100600001806FE0210181000001800001018100242
:10061000FE08106082FE021018100000001800F89A
:10062000040202020204F800081010101008000270
:10063000FE2222221C101810000000F80402020200
:100640000204F8000810103050484002FE2222E256
:100650001C000010181000000810100C122222C6F6
:100660001810101008060202FE0202060000101800
:1006700010000002FE02000002FE0200081010102E
:10068000100800021EE200E21E0200000018000036
:1006900000021EE280621EE280720E02000000185C
:1006A0000000001800000002068A70708A0602101E
:1006B0001810000010181002063AC0300A06020096
:1006C00000101810000000008642320A068210183E
:1006D0001010101018FE020278404006F8000000CA
:1006E0001802FE4078100C02020C100000000000FE
:1006F00000000000000000808080808080040800EE
:1007000000A05050E0000810101810FE201010E05B
:100710000810101008E010103008101008E0101039
:1007200022FE00081010081810E050506008101049
:100730000810FC1202101810006090907010689061
:1007400090906002FE2010E00010181000181010A9
:10075000F20010181010F2807802FE40B010001065
:10076000181000181002FE0010181010F02010E0F1
:100770002010E00010181000181000181010F020C1
:1007800010E000101810001810E0101010E0081011
:1007900010100810F0201010E080F888101008E009
:1007A000101020F00008101088F88010F0201010B1
:1007B000181000605090B01810100810FC100018AD
:1007C0001010F00010F00000081010181030D000C9
:1007D000C0301000001800000010F00090F010C0B1
:1007E00030100000180000180000001030C0301059
:1007F000101800181010709000D030108080483011
:100800000800003010D03010101810101840BC0232
:10081000003840FE7802BC404038008040C0804034
:100820000000000000FC04040404FC181010101068
:1008300018A6031980200000000000240027002AC9
:10084000002D00300000000000250028002B002EA5
:1008500000310052096AD53036A538BF40A39E81C9
:10086000F3D7FB7CE339829B2FFF87348E4344C44C
:10087000DEE9CB547B9432A6C2233DEE4C950B426D
:10088000FAC34E082EA16628D924B2765BA2496D20
:100890008BD12572F8F66486689816D4A45CCC5D7A
:1008A00065B6926C704850FDEDB9DA5E154657A7F3
:1008B0008D9D8490D8AB008CBCD30AF7E45805B862
:1008C000B34506D02C1E8FCA3F0F02C1AFBD030136
:1008D000138A6B3A9111414F67DCEA97F2CFCEF061
:1008E000B4E67396AC7422E7AD3585E2F937E81CBF
:1008F00075DF6E47F11A711D29C5896FB7620EAA9F
:1009000018BE1BFC563E4BC6D279209ADBC0FE783F
:10091000CD5AF41FDDA8338807C731B1121059270B
:1009200080EC5F60517FA919B54A0D2DE57A9F9340
:10093000C99CEFA0E03B4DAE2AF5B0C8EBBB3C83B1
:10094000539961172B047EBA77D626E16914635553
:10095000210C7D0001020408102040801B36637CBE
:10096000777BF26B6FC53001672BFED7AB76CA82FF
:10097000C97DFA5947F0ADD4A2AF9CA472C0B7FDAF
:100980009326363FF7CC34A5E5F171D8311504C76D
:1009900023C31896059A071280E2EB27B2750983E4
:1009A0002C1A1B6E5AA0523BD6B329E32F8453D185
:1009B00000ED20FCB15B6ACBBE394A4C58CFD0EF7A
:1009C000AAFB434D338545F9027F503C9FA851A3B4
:1009D000408F929D38F5BCB6DA2110FFF3D2CD0CD2
:1009E00013EC5F974417C4A77E3D645D1973608163
:1009F0004FDC222A908846EEB814DE5E0BDBE03234
:100A00003A0A4906245CC2D3AC629195E479E7C8FE
:100A1000376D8DD54EA96C56F4EA657AAE08BA7872
:100A2000252E1CA6B4C6E8DD741F4BBD8B8A703E14
:100A3000B5664803F60E613557B986C11D9EE1F8CB
:100A4000981169D98E949B1E87E9CE5528DF8CA119
:100A5000890DBFE6426841992D0FB054BB16602D39
:100A6000402D11241FBECFEFDAE0DEBFCDBF14E072
:100A7000A0E0B1E0E8EEF8E602C005900D92AA3CD5
:100A8000B107D9F727E0AAECB4E001C01D92AA3A59
:100A9000B207E1F715E0C0E3D5E004C02197FE01FD
:100AA0000E949F32CF32D107C9F70E946E2E0C945C
:100AB00067340C940000FC016093BC008091BC0082
:100AC00087FFFCCF9091B900987F90830895CF92D3
:100AD000DF92EF92FF920F931F93CF93DF93EC017E
:100AE000C62ED42E8B89882351F0411108C084E989
:100AF0008093BC008091BC0084FDFCCF1B8AEB88F6
:100B00008E010F5E1F4FE11014C0FA8864EAC8011D
:100B10000E945B058989883011F1803101F1DD2067
:100B200011F080E4E82EE092BB0064E8C8010E9466
:100B30005B05C092BB0064E8C8010E945B0582E0CF
:100B4000D81204C08B898F5F8B8B11C084E980938E
:100B5000BC008091BC0084FDFCCF1B8A08C0FF0C48
:100B6000F092BB0064E8C8010E945B05D8CFDF911A
:100B7000CF911F910F91FF90EF90DF90CF9008954C
:100B8000089580E090E0089587E08093130184E168
:100B9000EEE9F1E0A2E3B5E001900D928A95E1F76C
:100BA000109247051092460589E080934107809195
:100BB0003205909133050E94B92A65E477E080916F
:100BC0002F050E94992985E497E00E94762A1092C9
:100BD0002E0508958093410786E892E00E94762AC8
:100BE00010924705109246056EE08EE40E94812A1D
:100BF00010922E050895CF92DF92EF92FF920F93FD
:100C00001F93CF93DF93CDB7DEB760970FB6F894FD
:100C1000DEBF0FBECDBF20E8829FC00111248C0132
:100C20000C591F4F21E042E0BE016F5F7F4FC801AA
:100C30000E94462889818F3FC9F40E949A31C12CB5
:100C4000D12C7601CA94A70196010E943C32698397
:100C50000E949A31A70196010E943C326A8342E0C9
:100C6000BE016F5F7F4FC8010E94DC188EE0EBEC85
:100C7000F4E0DE01139601900D928A95E1F740E1D0
:100C800050E0BE016F5F7F4F85E696E00E946915D8
:100C900060960FB6F894DEBF0FBECDBFDF91CF9147
:100CA0001F910F91FF90EF90DF90CF9008954F929A
:100CB0005F926F927F928F929F92AF92BF92DF92DC
:100CC000EF92FF920F931F93CF93DF93CDB7DEB7D1
:100CD000CE54D1090FB6F894DEBF0FBECDBF8091C0
:100CE0002E05882361F0F8940E94F52160932D076A
:100CF00070932E0780932F079093300725C0789428
:100D00008091CA048F5F8F3F19F08093CA04A1C6F7
:100D10001092CA040E94F52180902D0790902E0712
:100D2000A0902F07B090300720E8820E2EEE921E82
:100D300026E3A21EB11C681579058A059B0508F4F7
:100D400088C68DE080932E0580912E05873009F0AE
:100D500055C080914107823071F490912C079923FE
:100D600009F4BCC0809146059091470589309105F2
:100D70000CF041C61CC0813031F0883021F09CEF6E
:100D8000980F933050F480914605909147058E3529
:100D900091050CF058C0019652C0893081F48091C1
:100DA000460590914705863091050CF024C60196C2
:100DB00090934705809346050E944A191CC68730C8
:100DC000A9F48091460590914705843091050CF077
:100DD00012C620918507222309F40DC6019690932F
:100DE0004705809346050E944A1959C0833009F08F
:100DF00075C080912F050E94E52862C080912E0564
:100E0000883009F08FC080914107823041F4809191
:100E10004605909147058230910544F5ECC5813037
:100E200031F0883021F09CEF980F9330A8F4809136
:100E3000460590914705181619062CF401979093D2
:100E4000470580934605E0914605F0914705EC5C27
:100E5000FE4F6091D90462C0893081F480914605CB
:100E600090914705181619060CF0C5C50197909387
:100E70004705809346050E943919BDC58730A1F406
:100E80008091460590914705181619060CF0B3C5D8
:100E9000019790934705809346050E9439198091E8
:100EA00046050E947D2BA7C58330C1F480912F0594
:100EB000E0E88E9FC00111248E599F4F0E94772831
:100EC0008F3F29F090E090934705809346058091ED
:100ED000460580932F0565E477E082C096EF980F72
:100EE000923020F08D50823008F085C58091460503
:100EF00090914705019729F41092470510924605F5
:100F000006C081E090E09093470580934605E0910C
:100F10004605F0914705EE5CFE4F6EE080810E9431
:100F2000812A69C580912E05893061F584E1E4E16B
:100F3000F1E0A2E3B5E001900D928A95E1F78AE035
:100F40008093130182E08093410780912C078823CE
:100F500039F081E090E0909347058093460504C006
:100F60001092470510924605E0914605F09147051D
:100F7000FF27EE0FFF1FEE5CFA4F808191810E94E8
:100F8000B92A39C580912E058B3079F584E1E2E9E3
:100F9000F1E0A2E3B5E001900D928A95E1F785E0DA
:100FA0008093130187E080934107809146059091DB
:100FB0004705059720F01092470510924605E091ED
:100FC0004605F0914705FF27EE0FFF1FEE5CFA4F35
:100FD000808191810E94B92A65E477E080912F0594
:100FE0000E94992985E497E004C580912E058430FC
:100FF00009F084C180914107813009F00AC18091D4
:101000002D05882349F040911401509115016EE09F
:101010008BEC94E00E948518E0E081E08E0FF0E018
:10102000E553FB4F9081E82F9111F7CF8D3038F4C5
:10103000E82FF0E0E553FB4F10828F5FF7CF10925F
:10104000D80483EE93E00E9426328F3F09F05BC004
:101050008E010F5B1F4F5801FEE0AF0EB11C7801EF
:101060004DE5442E512C612C712C0E949A31A30124
:1010700092010E943C32DC01CB018196A11DB11D81
:10108000F70181937F01AE16BF0679F735EDE32EA8
:1010900033E0F32EF80161918F01C7010E942E32D7
:1010A000FFEFEF1AFF0A23EEE21623E0F20691F7B4
:1010B0008EE0FE01EF5BFF4FDE01919601900D92F5
:1010C0008A95E1F78EE0EBECF4E0DE019F9601906B
:1010D0000D928A95E1F7CE0181960E94B8298E0182
:1010E0000F5D1F4FF80161918F01C7010E942E32E1
:1010F000FFEFEF1AFF0A2FEFE21623E0F20691F757
:101100000E942D2A38C04CE1BE016F5D7F4F83EEF7
:1011100093E00E9489284EE0BE016F5B7F4F85ED12
:1011200093E00E9489288EE0FE01EF5BFF4FDE0115
:10113000119601900D928A95E1F78EE0EBECF4E0C8
:10114000DE011F9601900D928A95E1F7CE0101967E
:101150000E94B8294CE150E0BE016F5D7F4FCE0187
:1011600001960E941234892B41F40E942D2A10927C
:1011700032070E94CF2881E00AC00E94322A809163
:1011800032078F5F809332070E94CF2880E08093E0
:101190002C07882391F081E090E09093470580939D
:1011A000460582E080934107809134059091350592
:1011B0000E94B92A85E992E01CC4809132078B30E5
:1011C00010F08CE044C4109247051092460582E06E
:1011D0008093410780913205909133050E94B92A8E
:1011E000809132074AE0BE016F5F7F4F90E00E941E
:1011F000F131BE016F5F7F4F85E697E00E94433477
:1012000063EA72E085E697E00E942F340E945C2A30
:10121000F2C3883069F400912F0580E8089F8001AF
:10122000112421E041E06FEA72E085E497E010C00C
:10123000853089F400912F05E0E80E9F800111248C
:10124000005E1F4F20E042E06CEB72E08BE095E027
:101250000E949E1EFEC3863079F400912F05F0E8AF
:101260000F9F80011124005C1F4F20E043E06AECD7
:1012700072E08BEE94E0ECCF8430F1F480912D0598
:10128000882339F048ED52E062E082E497E00E9462
:10129000851880912F0520E8829FC001112442E02B
:1012A00062E477E0805A9F4F0E94B328109247056E
:1012B000109246058BE0CBC3873039F48091440708
:1012C0008111C4C30E94C405C4C3893019F40E94AB
:1012D000D02BBFC3833031F489E080932E050E9468
:1012E0006C2AB7C396EF980F923008F4AFC38E30D4
:1012F00009F4ACC38D3009F0A9C3E4CF80912E0569
:10130000813009F01CC380914107823009F095C0FB
:10131000E0914605F0914705EA30F10508F087C0F5
:10132000EA5AFF4F0C949F3281E08093410788E294
:1013300090E090934705809346051092D90480E28F
:1013400089831A82CE0101960E94762A80912D050A
:10135000882349F18FEF9FEF9093550580935405B3
:1013600010910B016AE070E080E090E00E94BB21E8
:101370001123B1F318C0109244070E94D02B57C01C
:101380008DE029C081E090912D05911180E080933E
:101390002D054AE064E00E94372A80911C0190915B
:1013A0001D010E94B92A10922E0541C081E0909142
:1013B0003107911180E0809331070E94C9284DE0E8
:1013C00065E0809131070E94372A80911E0190913B
:1013D0001F01E7CF8EE080932E0529C080E1FBCF6F
:1013E0008FE0F9CF8CE0F7CF81E0809344070E9433
:1013F000ED2880932F058F3FB1F010920B051092CE
:10140000EB0467EE72E085E497E00E94433485E4E4
:1014100097E00E94762A809185078F5F80938507E9
:101420000E94F02B04C083EF92E00E94762A809104
:101430002E05813009F00DC3DEC2833009F442CF9E
:10144000873009F050C01092D904809146059091E0
:1014500047058230910541F144F40097D9F0019796
:1014600009F0F7C268E285E024C083309105F9F005
:10147000049709F0EEC286E0809341070BEE14E07A
:101480009BE0E92E95E0F92E2DE5822E912CA12CE2
:10149000B12C12C080914407882319F068E288E0DB
:1014A00008C08CEF92E0A5C268E286E002C06EE15F
:1014B00084E00E941A2CCDC20E949A31A5019401A9
:1014C0000E943C32DC01CB018196A11DB11DF801C7
:1014D00081938F0110920A05EE16FF0669F70E94AC
:1014E0006C2A84E0B4C2883021F460E085E497E09F
:1014F00011C0853021F460E08BE095E00BC08630B0
:1015000021F461E08BEE94E005C0843031F460E0BA
:1015100082E497E00E944F2C9CC2893009F0AEC053
:101520004FEF60E08AEA0E94132A10922E05E091A4
:101530004605F0914705E730F10508F09CC0E05AF8
:10154000FF4F0C949F3265E477E080912F050E9455
:10155000992980912F050E94881F80E2EBE0F5E039
:10156000DE01919601900D928A95E1F780912F0509
:101570000E94A61F80E2EBEEF4E0DE0111960190DE
:101580000D928A95E1F780912F05F0E88F9FC001B9
:10159000112421E042E062E477E0805A9F4F0E94EC
:1015A0004628809142078F3F11F41092420780E055
:1015B00011E0180FE1E2F0E0EC0FFD1FE80FF11D64
:1015C0008081882369F0E0E2F0E0EC0FFD1FE10F7D
:1015D000F11D608181EB95E00E946F18812FE8CFAB
:1015E0006EE073E082E497E00E943A34892B39F48C
:1015F0006BE274E081EB95E00E942F110AC063EB6F
:1016000081EB95E00E94051863EB81EB95E00E9469
:10161000C317789468EB7BE080E090E00E94BB21E8
:10162000F894BE016F5F7F4F81EB95E00E942F1110
:1016300080E193E00AC00E94C42A6BE274E081EB6F
:1016400095E00E942F118FE193E00E94762A13C04B
:101650000E94EB2A8DE293E0F8CF0E94C42AF3CFD8
:101660000E941C2B8BE393E0F0CF0E94F02B03C071
:1016700082E180932E050E942D2AEBC1813079F5FD
:101680008091D90490E0E0914605F0914705EC5C2B
:10169000FE4F4081FC01E553FB4F40839C012F5FCF
:1016A0003F4FF901E553FB4F108250913107FC0188
:1016B000EB59F84F552311F0408302C08AE2808332
:1016C000F901EB59F84F10820E945C2A8091D904ED
:1016D000803208F090C18F5F8093D9048CC18A302A
:1016E00061F4E0914605F0914705EE5CFE4F808184
:1016F000893509F0ABC180E00DC08B3071F4E09109
:101700004605F0914705EE5CFE4F8081893509F072
:101710009DC181E00E94BA2C99C18E3009F095C01C
:10172000E0914605F0914705EE5CFE4F80818935DA
:1017300009F08CC180912C07811105C0809132077E
:101740008B3008F47FC11092850710922F051092FC
:101750002C0510922B050E3039F0E02FF0E0E55308
:10176000FB4F10820F5FF7CF10922C078AE493E0B3
:101770000E94B92A00E010E0FF24F39417FD25C071
:1017800001110AC0FF2021F00E94322AF12C04C06E
:101790000E94282AFF24F3940E942D282E9882E08C
:1017A0000E942828C8010E943D2880E2E82E8FEF81
:1017B0000E942828EA94E110FACF2E9A005E1F4F6B
:1017C0000E94332880FDFCCFD9CF0E94282AFF2415
:1017D000F39400E010E0C8018F739927892B51F42E
:1017E000FF2021F00E94322AF12C04C00E94282AF6
:1017F000FF24F3946FEFC8010E942E320F5F1F4F3A
:10180000011524E0120739F70E94282A61E08FEFC2
:101810009FE70E9406190E94282A109232070E9410
:10182000CF2881E0809331070E94C9284DE065E010
:10183000809131070E94372A109245071092EB04DD
:1018400010920B058AE593E0FFC08D3009F001C1CD
:10185000E0914605F0914705EE5CFE4F80818935A9
:1018600009F035CDF0902F0589E793E00E94762AA4
:1018700080E8F89E80011124C8018E599F4F0E9474
:101880007728E82E8F2D0E94E528D82EEFEFEE1650
:1018900029F0682F8E2D0E94DD2802C080932C0530
:1018A000FFEFDF1629F06E2D8D2D0E94D52802C086
:1018B000E0922B056FEF8F2D0E94DD286FEF8F2DAB
:1018C0000E94D528FE013196BE016F5D7F4F7F01DA
:1018D00011926E177F07E1F78FEF89A31AA2229664
:1018E0001FAE229740E2C8010E94B32840E2BE0129
:1018F0006F5B7F4FC80180960E94B32840E2B7011A
:10190000C801805C9F4F0E94B3281092450780E277
:10191000F701ABEEB4E001900D928A95E1F71092D9
:101920000B058091850781508093850780912C0558
:1019300080932F0587E893E00E94762AC8CC809197
:101940002E058E3019F48AE090E014C080912E05A7
:101950008F3019F48BE090E00DC080912E058C3013
:1019600019F48EE090E006C080912E05823129F4B2
:101970008DE090E00E94EA056CC080912E058031D8
:10198000E9F584E993E00E94762A4FEF60E08AEA65
:101990000E94132A80912C0580932F0580912F059A
:1019A0008F3F19F10E941C2B6BE274E081EB95E0F4
:1019B0000E942F110E94EB2A6BE274E081EB95E00C
:1019C0000E942F110E94C42A6BE274E081EB95E023
:1019D0000E942F116BE274E081EB95E00E942F11C1
:1019E00080912F050E94E528D7CF0E942D2A83EAF7
:1019F00093E00E94762A10922E052BC080912E052E
:101A00008D3039F580912C078823E1F08FEA93E03F
:101A10000E94762A109247051092460510922F05D3
:101A20001E3039F0E12FF0E0E553FB4F10821F5FCD
:101A3000F7CF10922C07109232070E94CF280E94F5
:101A4000282A04C08BE693E00E94762A89E08093DE
:101A50002E05C25BDF4F0FB6F894DEBF0FBECDBFC1
:101A6000DF91CF911F910F91FF90EF90DF90BF908A
:101A7000AF909F908F907F906F905F904F90089560
:101A80004091E8045091E9042091E6043091E70484
:101A900042175307B4F49091E8009570E1F39091E8
:101AA000E80092FD19C08093F1008091E8049091C4
:101AB000E90401968F739927892B19F48EEF80938F
:101AC000E8008091E8049091E90401969093E9047C
:101AD0008093E80481E0089580E008952FB7F8949A
:101AE00087708093E9009091E800892F807295FFBC
:101AF00004C09091F20080E4891B2FBF08956150CB
:101B000030F02091F100FC0120830196F8CF289A53
:101B100084E6809330050895CF92DF92EF92FF9292
:101B20000F931F93CF93DF936C017A018B01C0E079
:101B3000D0E0CE15DF0581F0D8016D918D01D60181
:101B4000ED91FC910190F081E02DC6010995892B62
:101B500011F02196EECF7E01C701DF91CF911F9149
:101B60000F91FF90EF90DF90CF900895CF93DF9388
:101B70001F92CDB7DEB76983DC01ED91FC91028045
:101B8000F381E02D41E050E0BE016F5F7F4F09958A
:101B90000F90DF91CF91089583E08093E9008091C9
:101BA000F200882319F08AE38093E800089583E027
:101BB0000E946E0D90E00895FC018485958597FD47
:101BC0000BC09FB7F89482E08093E9008091F20007
:101BD0009FBF90E0019608959FB7F89482E08093AC
:101BE000E9008091F2009FBF90E008950F931F934A
:101BF000CF93DF931F92CDB7DEB78C01FC018485B4
:101C0000958597FF0EC0CE0101960E945F1901973E
:101C100019F4898190E002C08FEF9FEFF80195875A
:101C20008487F801848595850F90DF91CF911F916E
:101C30000F910895CF93DF931F92CDB7DEB7FC01CC
:101C40008485958597FD05C02FEF3FEF3587248765
:101C50000BC0CE0101960E945F19019719F489818A
:101C600090E002C08FEF9FEF0F90DF91CF9108952A
:101C70002F923F924F925F926F927F928F929F929C
:101C8000AF92BF92CF92DF92EF92FF920F931F938A
:101C9000CF93DF93CDB7DEB729970FB6F894DEBFA9
:101CA0000FBECDBFDC011D962D913C911E972115D5
:101CB000310509F459C199878887F9013296449012
:101CC00031967491E72EF12CB7E0EB0EF11C93E006
:101CD000F594E7949A95E1F7EA823196A4913196CA
:101CE000E4916A1758F0462F50E08E2F90E0FC01E7
:101CF000EA0FF11D4E175F070CF46AC06D3031F426
:101D000060E0888599850E94232431C16A3009F0FA
:101D10002BC160E0888599850E942324E885F98598
:101D200000890E9DE02C1124278126952695269565
:101D300065816E0D8E2D821B860F9485992309F483
:101D40000EC118160CF00BC1A885B9851B969C9185
:101D50001B97890F87701B968C931B972E191596CE
:101D60002C9315971D96ED91FC911E97309769F075
:101D70003396E491F0E0379683E0F595E7958A9500
:101D8000E1F70E9FE02D112401C0E0E00FEF020FFC
:101D90000E0FE885F985468141506481CF010E948C
:101DA0004224A885B9851C968C911C97813009F036
:101DB000DEC01B966C911B97660F660F660F6F73E4
:101DC0001A966C931A976064CD010E940B24CFC0C1
:101DD000A9014A5F5F4F6A1BA885B9851996FC91D6
:101DE00019975096EC91FE9FE02D1124EF83F90195
:101DF000A4913196249130E03A2B2230310570F4D1
:101E00004E9CC0014F9C900D1124689F8001699FDA
:101E1000100D1124040F151F312C22C0777021F0F2
:101E200028E0322E371A01C0312CFA0120E0A0E060
:101E3000B0E0261731F03491A30FB11D2F5F31961A
:101E4000F8CFFA01E20FF11D4490EA9E8001EB9E6B
:101E5000100DFA9E100D1124080F191F040F151FE5
:101E6000A885B9851496BC91BB83E885F985F58171
:101E7000FC83842D90E09E838D83812C912CC12C3A
:101E8000D12CC9829A81C91608F068C0212C36016C
:101E9000BFEF6B1A7B0AE885F9858089281608F060
:101EA00055C0F981F11102C0222079F0A885B985C9
:101EB0001596BC901597B3946B81CD010E94232495
:101EC0006B2D888599850E941324A12CB12CA41414
:101ED00010F0B12C2FC0F401EA0DFB1DE00FF11F33
:101EE0005490332061F0E614F70449F4E52DF0E056
:101EF000032C02C0F595E7950A94E2F75E2EE8857B
:101F0000F9858089823069F4E52D2110E295EF7022
:101F1000F0E0E65FFE4F5490652D888599850E941C
:101F2000F423652D888599850E94F423FFEFAF1A6D
:101F3000BF0ACDCF8F81B81639F060E088859985CA
:101F40000E94F423B394F6CF2394A5CF9FEFC91A30
:101F5000D90AAD81BE818A0E9B1E93CF6C81888584
:101F600099850E94132403C080E090E002C081E0C4
:101F700090E029960FB6F894DEBF0FBECDBFDF917B
:101F8000CF911F910F91FF90EF90DF90CF90BF9076
:101F9000AF909F908F907F906F905F904F903F9009
:101FA0002F9008951F920F920FB60F9211248F93C6
:101FB0009F938091E1009091E100937F9093E100E5
:101FC00083FF0FC01092E90091E09093EB00109214
:101FD000EC0092E39093ED001092310598E090931D
:101FE000F00082FF20C093E09093E9009091F2000E
:101FF000992319F09AE39093E8009091EA049923C9
:1020000039F09091EA0491509093EA04992389F170
:1020100090913005992339F090913005915090932B
:102020003005992341F184FF10C08091E2008E7E3B
:1020300081608093E2008091E1008F7E8093E100D7
:1020400080912A078E7E806111C080FF16C080912A
:10205000E2008E7E80618093E2008091E1008E7EBE
:102060008093E10080912A078E7E816080932A0709
:1020700004C05D98CDCF2898D6CF9F918F910F90B7
:102080000FBE0F901F901895DF92EF92FF920F9363
:102090001F93CF93DF93D82E8A017B01E40EF51EA8
:1020A000EB01CE15DF0571F0D7FE03C0FE01849170
:1020B00001C088810E94400D21968111F2CF8FEFDF
:1020C0009FEF01C0C801DF91CF911F910F91FF9049
:1020D000EF90DF9008957F928F929F92AF92BF9280
:1020E000CF92DF92EF92FF920F931F93CF93DF93E4
:1020F000C82E8B017A0180913105811103C08FEFC9
:102100009FEF74C080912A0780FF05C08091E00096
:1021100082608093E000CE2DDF2DD12C8AEFB82E87
:102120008C2D8770982E8C2D8072882E8C2D80742B
:10213000782E9AE3A92E209719F4DD2009F451C0D6
:102140008C2D0E946E0D81110AC0BA94BB20B9F289
:1021500061E070E080E090E00E94BB21ECCF282F8E
:1021600030E0C217D3070CF48C2F9FB7F8949092ED
:10217000E9002091E80025FF32C0282F30E0C21B83
:10218000D30B882029F08150A0F01092F100FBCFF2
:10219000F801C7FE0AC0815050F044914093F1000D
:1021A0003196F9CF41914093F1008150D8F7020F59
:1021B000131FDD2019F0A092E8000AC08091E8000A
:1021C00085FD08C0A092E800DD24D394209739F063
:1021D000D12C05C0209719F47110A092E8009FBF80
:1021E000AACF5D9A84E68093EA04C701DF91CF917C
:1021F0001F910F91FF90EF90DF90CF90BF90AF9025
:102200009F908F907F900895CF93DF93EC01809102
:102210000B01882331F083E00E946B101816190619
:1022200034F081E090E09B838A8380E090E0DF914E
:10223000CF9108956115710579F0FB01019000209F
:10224000E9F73197AF01461B570BDC01ED91FC918B
:102250000280F381E02D099480E090E008950F93CF
:102260001F93CF93DF93EC010E941A118C0169E256
:1022700074E0CE010E941A11800F911FDF91CF915F
:102280001F910F9108958091DE0481110DC082E0AD
:102290008093DA0484E08093DB041092DD041092D2
:1022A000DC0481E08093DE048AED94E008950F93CE
:1022B0001F93CF93DF931F92CDB7DEB782E0898360
:1022C00042E450E06AE171E080E80E9444100E941C
:1022D0004311DC0112960D911C9113970115110504
:1022E00089F0D801ED91FC910280F381E02DBE01CF
:1022F0006F5F7F4FC801099597FD04C0F801008505
:102300001185ECCF89810F90DF91CF911F910F91B3
:1023100008951F920F920FB60F921124CF92DF9261
:10232000EF92FF920F931F932F933F934F935F93DF
:102330006F937F938F939F93AF93BF93EF93FF938D
:10234000CF93DF93CDB7DEB76C97DEBFCDBF1092D2
:10235000E9008091E80083FFEFC168E0CE01459677
:102360000E947F0D82EF8093E8008D8987FF05C072
:102370009091E80090FFFCCF03C09EEF9093E8009F
:10238000982F907609F0C6C09E894F89588D2F8965
:10239000F88C91110CC0803829F480912B07809320
:1023A000F10002C01092F1001092F100BEC1913014
:1023B00051F48111BAC14130510509F0B6C1809183
:1023C0002B078D7F0BC0933061F48111AEC141307A
:1023D000510509F0AAC180912B07826080932B07D9
:1023E000A4C1953049F48091E80080FFFCCF822F92
:1023F00080688093E30099C1963009F05EC00B8D30
:102400001C8D22E01092E9001092E9041092E80479
:10241000F21232C01092E7041092E6040E945711A3
:1024200099E0BE016F5F7F4FDB01E92F1D92EA95B6
:10243000E9F79983FA8291E09E8390EA98879AEF70
:1024400099872091E8043091E904275F3F4F3C834E
:102450002B838D831092E9001092E9041092E80416
:102460001093E7040093E60449E050E080E00E9406
:1024700044100E94571159C11093E7040093E604D9
:102480000E944311DC0112960D911C9113970115C6
:10249000110509F4BFC0D801ED91FC910480F581CC
:1024A000E02DBE016B5E7F4FC8010995009709F0D2
:1024B000ACC0F80100851185EACF973009F439C125
:1024C000983021F481E08093F1002FC1993009F018
:1024D0002CC1837009F02DC1EDE0F1E081E031E025
:1024E00096E32081211109C08EE78093EA001092C3
:1024F000EA008F898093310518C18093E9003093F9
:10250000EB0021912093EC009093ED008F5F8730DA
:1025100041F7EACF8B8D9C8D1092E9001092E9046F
:102520001092E8049093E7048093E604898D81116A
:1025300050C08E899D89913A49F4813209F0F9C0E1
:1025400047E050E064E071E080E0B8C0913209F00B
:10255000F0C0833269F48F89988DA0E0B0E0809359
:10256000000190930101A0930201B0930301DDC02B
:10257000803269F48091E80082FFFCCF67E084E05C
:1025800091E00E947F0D8BEF8093E80006C08232BD
:1025900009F0CBC08F8980930B01809129078111AD
:1025A00003C0E0E0F8E002C0EEEFFAE08091040141
:1025B00090910501A0910601B0910701803B9440E4
:1025C000A105B10509F07DC080910B0180FF95C088
:1025D00078C00E944311DC0112960D911C91139753
:1025E0000115110509F4A5C0D801ED91FC910190E8
:1025F000F081E02DBE016B5E7F4FC801099581110E
:1026000094C0F80100851185EBCF181619060CF45B
:102610008CC08FC0F1E0FF1609F447C0F3E0FF1251
:1026200088C08F89882309F443C0823029F440E8A8
:102630006DE08EE791E006C0813051F440E86BE038
:1026400082E791E00E94852C882309F472C06DC056
:10265000833009F06EC00E944311DC011296ED90A8
:10266000FC9013978E010F5F1F4F6801E114F10476
:1026700079F0D701ED91FC910680F781E02DB8014A
:10268000C7010995080F111DF701E084F184EECF11
:10269000D8011C92F60101900020E9F73197BF01A3
:1026A0006C197D0940E0C601CDCF60E671E002C043
:1026B0006CE571E0FB01449150E080E80E94441019
:1026C00034C00FB6F894A89580916000886180931B
:1026D0006000109260000FBEA895EE3F2AE0F2075E
:1026E00039F08091FE0A9091FF0A918380831DC08A
:1026F0001092FF0A1092FE0A18C0EE3F8AE0F80717
:1027000031F0808191819093FF0A8093FE0A87E7E0
:1027100097E7918380839BE088E10FB6F894A895B2
:10272000809360000FBE909360008EEF8093E8006E
:1027300003C081E28093EB006C960FB6F894DEBF85
:102740000FBECDBFDF91CF91FF91EF91BF91AF91C0
:102750009F918F917F916F915F914F913F912F91B9
:102760001F910F91FF90EF90DF90CF900F900FBED1
:102770000F901F901895089580E190E00895DC0176
:10278000FB0112968C91129790E02481358182177B
:102790009307D1F491818081813A31F481E09130C5
:1027A00091F0933089F411C0813271F49B3021F49F
:1027B00082811F968C9305C09A3031F482815096A5
:1027C0008C9381E00895089580E00895DC01FB0179
:1027D00088E4808389E4818384E482831D969C91CC
:1027E0001D979F709F5B93831D968D919C911E9763
:1027F00024E0969587952A95E1F78F708F5B848307
:1028000085E00895FC0182818F5BFB01808381E07C
:102810000895CF92DF92EF92FF920F931F93CF9381
:10282000DF936C01EB017B01E40EF51E00E010E08C
:10283000CE15DF0581F069916D30D1F3D601ED91B0
:10284000FC910190F081E02DC6010995892B19F0CA
:102850000F5F1F4FEDCFC801DF91CF911F910F91F7
:10286000FF90EF90DF90CF900895CF93DF93EC012E
:1028700060E170E042960E94FD2460E170E0CE01CC
:102880000296DF91CF910C94FD2460E170E00296F6
:102890000C94FD247F928F929F92AF92BF92CF9221
:1028A000DF92EF92FF920F931F93CF93DF93CDB7F9
:1028B000DEB7E4970FB6F894DEBF0FBECDBF962EFD
:1028C000E72E20E1FC017296DE01119601900D9237
:1028D0002A95E1F7BA01CE0101966C01FE017196CD
:1028E000AF017E2E8F2EDB013D91BD01DC012D91CC
:1028F000CD0123272193A417B507A9F7672D782DBC
:10290000CE0181960E94142729858D8582278D8787
:102910009A858E8589278E878B853F8538273F87C7
:102920004C8538893427388B3D81232729872E8190
:1029300092279A879F8189278B87888548274C878C
:10294000498134273D833A8123272E832B81922787
:102950009F839C81892788878E010F5C1F4F4AE0E7
:10296000BE01635F7F4FC8010E94AB25998189A991
:10297000892789839A818AA989278A839B818BA940
:1029800089278B839C818CA989278C8389E0F82EE9
:10299000CE0181965C01FC01DE0111968D91908142
:1029A00089278193E017F107C9F7BE016F5D7F4F5B
:1029B000872D982D0E94D525BE016B5D7F4FCE01DE
:1029C00045960E94D525BE01675D7F4FCE01499691
:1029D0000E94D525BE01635D7F4FCE014D960E94BA
:1029E000D525672D782DCE0181960E941427298543
:1029F0008D8582278D879A858E8589278E878B8501
:102A00003F8538273F874C8538893427388B3D816F
:102A1000232729872E8192279A879F8189278B8751
:102A2000888548274C87498134273D833A8123276D
:102A30002E832B8192279F839C81892788874F2D06
:102A4000BE01635F7F4FC8010E94AB25998189A9B0
:102A5000892789839A818AA989278A839B818BA95F
:102A600089278B839C818CA989278C83FA94F11008
:102A70008FCFE92DFE2DD5019D915D01D6018D9160
:102A80006D0189278193A016B106A9F7E4960FB6C8
:102A9000F894DEBF0FBECDBFDF91CF911F910F9194
:102AA000FF90EF90DF90CF90BF90AF909F908F906E
:102AB0007F9008954031510551F4DC01129680E178
:102AC000FB0101900D928A95E1F781E0089580E085
:102AD0000895CF92DF92EF92FF920F931F93CF93BF
:102AE000DF9300D000D0CDB7DEB78C017B010E9410
:102AF0005A15C82E882309F44DC080E1F701D8018A
:102B0000529601900D928A95E1F7DD24D3947801D5
:102B10008EE1E80EF11C4D2DB701CE0101960E9409
:102B2000AB25F801428989814827428B33898A8104
:102B30003827338B24898B812827248B95898C8196
:102B40008927858B96894927468B97893927378B23
:102B5000908D2927208F918D8927818F928D4927EC
:102B6000428F938D3927338F948D2927248F958D0C
:102B70008927858F968D4927468F978D3927378FDF
:102B800090A1292720A391A1892781A3D394FBE0B9
:102B9000DF12C1CF8C2D0F900F900F900F90DF910F
:102BA000CF911F910F91FF90EF90DF90CF900895FC
:102BB0007F928F929F92AF92BF92CF92DF92EF92CD
:102BC000FF920F931F93CF93DF93CDB7DEB7E497B8
:102BD0000FB6F894DEBF0FBECDBF5B0120E1FC0154
:102BE0003296DE01119601900D922A95E1F7BA0115
:102BF000CE0101966C017E0191E1E90EF11C970175
:102C0000D601FB019191BF018D918927F901819333
:102C10009F01AE15BF05A9F7772473944E01F1E229
:102C20008F0E911C472DBE01635F7F4FCE01C19671
:102C30000E94AB25498189A9482749833A818AA9FD
:102C400038273A832B818BA928272B839C818CA939
:102C500089278C839D8149274D839E8139273E8317
:102C60009F8129272F8398858927888799854927D8
:102C700049879A8539273A879B8529272B879C8501
:102C800089278C879D8549274D879E8539273E87D3
:102C90009F8529272F8798898927888BB701C401A9
:102CA0000E949827B401C7010E94CC26BE016B5D2B
:102CB0007F4FCE0145960E94CC26BE01675D7F4FB7
:102CC000CE0149960E94CC26BE01635D7F4FCE01A6
:102CD0004D960E94CC268701FE0131968191D80144
:102CE0009C9189278D938D01A815B905B9F7739427
:102CF000BAE07B1297CF4AE0BE01635F7F4FCE01FF
:102D0000C1960E94AB25498189A9482749833A8108
:102D10008AA938273A832B818BA928272B839C816A
:102D20008CA989278C839D8149274D839E813927D2
:102D30003E839F8129272F839885892788879985B6
:102D4000492749879A8539273A879B8529272B87E1
:102D50009C8589278C879D8549274D879E853927A6
:102D60003E879F8529272F8798898927888BB701D8
:102D7000C8010E949827F801A5019E012F5C3F4FD2
:102D80009191D6018D916D018927DA018D93AD0165
:102D9000E217F307A9F7E4960FB6F894DEBF0FBE6B
:102DA000CDBFDF91CF911F910F91FF90EF90DF90FA
:102DB000CF90BF90AF909F908F907F900895EF92AB
:102DC000FF920F931F93CF93DF93FB012081213854
:102DD00051F52381223239F5DC0112962C9130E035
:102DE0004481558142175307F1F4EC010B851C8592
:102DF000E12CF12C0115110591F0F8014481558168
:102E00006281738180E80E9444108F3FFFEF9F072B
:102E100069F0E80EF91ED8010D911C91EBCF81E00D
:102E20008F87C70105C080E090E002C08FEF9FEF61
:102E3000DF91CF911F910F91FF90EF900895CF9365
:102E4000DF93CDB7DEB769970FB6F894DEBF0FBE3C
:102E5000CDBFFC01DB018C918F5F8C93BE016F5F56
:102E60007F4F89E1DB011D928A95E9F729E02983EB
:102E700084E08A8391E09D8383E08E832A8721E228
:102E80002B879C879D879F8722E2288B27E02B8BAF
:102E900025E02C8B8E8B20E430E0388F2F8B998FA0
:102EA00082818B8395858685998B8A8B83818068C7
:102EB0008D8B49E150E080E00E94441069960FB686
:102EC000F894DEBF0FBECDBFDF91CF9108950F9371
:102ED0001F93CF93DF931F92CDB7DEB78B01809105
:102EE000A905811105C00E94361E81E08093A905C5
:102EF00082E0898341E050E0BE016F5F7F4F8091A7
:102F00009B050E946B1097FD08C080919B0548E0CF
:102F100050E0B80180640E946B100F90DF91CF9158
:102F20001F910F9108952EEF31E0FC012193319311
:102F3000CF0160E170E00C94FD24CF93DF93EC01AE
:102F40000E949317CE01DF91CF910C948433CF93DD
:102F5000DF93EC0182E192E09983888360E170E085
:102F6000CE0142960E94FD24CE01DF91CF910C94B8
:102F70009317CF93DF93EC010E94A717CE01DF9147
:102F8000CF910C948433DC01683810F0685825C068
:102F9000E62FF0E067FF12C0E058F10981E090E011
:102FA00001C0880FEA95EAF7809514969C911497D2
:102FB000892314968C93149760E00FC0E457FE4F5A
:102FC00064916623F9F067FF08C014968C911497FA
:102FD0008D7F14968C9314976F77FD0186E066239E
:102FE00021F09681691301C01682815031968111BA
:102FF000F6CFCD01BD016C5F7F4F0E94671781E066
:1030000090E0089580E090E00895DC01683810F0C9
:1030100068582DC0E62FF0E067FF11C0E058F109B5
:1030200081E090E001C0880FEA95EAF714969C9140
:103030001497892B14968C93149760E018C0E4576A
:10304000FE4F6491611109C081E090E013969C935A
:103050008E93129780E090E0089567FF08C0149661
:103060008C911497826014968C9314976F771696B0
:103070008C911697681751F117968C9117976817CE
:1030800029F118968C911897681701F119968C916F
:1030900019976817D9F01A968C911A976817B1F09A
:1030A0001B968C911B97681789F0FD01369680E07E
:1030B00090E02191211105C0FD01E80FF91F668301
:1030C00005C0019686309105A1F7BECFCD01BD01A7
:1030D0006C5F7F4F0E94671781E090E00895EF9248
:1030E000FF921F93CF93DF93EC01162F0E940518D8
:1030F0007C01612FCE010E94C317C7019927DF9180
:10310000CF911F91FF90EF900895AF92BF92CF9211
:10311000DF92FF920F931F93CF93DF936C01C62F23
:103120008A0178946BE274E088E495E00E942F11A4
:10313000B80188E495E00E942F1188E495E00E9490
:10314000DC0DC81708F48C2F882359F1F12CC82FF7
:10315000D0E05E0181E0A81AB1088F2D90E08A15B9
:103160009B0584F48601080F191F88E495E00E94EE
:103170001A0EF8018083682F88E495E00E94B60D4E
:10318000F394EBCFCC0DDD1D2197188288E495E0F8
:103190000E94DC0D892B29F088E495E00E941A0E2C
:1031A000F5CFF894DF91CF911F910F91FF90DF90B1
:1031B000CF90BF90AF900895FF920F931F93CF933E
:1031C000DF93EC01F62E072F142F0E942D282E9846
:1031D00082E00E942828CE010E943D28CF2DD02FCA
:1031E000CE01810F911D8C01C017D10721F089916B
:1031F0000E942828F9CF2E9A0E94332880FDFCCF08
:10320000DF91CF911F910F91FF9008950F931F931E
:10321000CF938C01C62F0E942D282E9882E00E9409
:103220002828C8010E943D288C2F0E9428282E9A09
:103230000E94332880FDFCCFCF911F910F910895FC
:103240000F93CF93DF93EC011B861A8660E40E94F4
:103250000B240F8106950695069501504E8141502D
:1032600020E060E0CE010E944224DF91CF910F91D7
:103270000895809146059091470597FD0AC0FC018D
:10328000FF27EE0FFF1FEE5CFA4F808191810C94B7
:10329000B92A089580914605909147052091130120
:1032A00030E08217930754F4FC01FF27EE0FFF1F55
:1032B000EE5CFA4F808191810C94B92A0895209197
:1032C0003105211103C08FEF9FEF08955FB7F89488
:1032D00022E02093E9002091F20030E0121613065C
:1032E00014F421E030E0422FFC0184E6415038F034
:1032F000289A809330059091F1009193F7CF211592
:10330000310521F08091F200882319F05FBFC901D7
:1033100008958BE68093E800F9CF2F923F924F9269
:103320005F926F927F928F929F92AF92BF92CF9255
:10333000DF92EF92FF920F931F93CF93DF93CDB75E
:10334000DEB7CA54D1090FB6F894DEBF0FBECDBFA9
:103350001C018C010E5D1F4F27961FAF0EAF2797E4
:103360009C012E593F4F38A32F8FF8016081718146
:10337000828193810E94A53261937193819391938D
:103380004F8D58A14E175F0789F7D10112968D9185
:103390009D910D90BC91A02D89A39AA3ABA3BCA332
:1033A000D10116968D909D90AD90BC9019978DA2ED
:1033B0009EA2AFA2B8A61A968D909D90AD90BC909B
:1033C0001D9789A69AA6ABA6BCA61E968D909D9029
:1033D000AD90BC9051978DA69EA6AFA6B8AA529666
:1033E0008D909D90AD90BC90559789AA9AAAABAA52
:1033F000BCAA56968D909D90AD90BC9059978DAA81
:103400009EAAAFAAB8AE5A968D909D90AD90BC90F2
:103410005D9789AE9AAEABAEBCAE5E968D909D9038
:10342000AD90BC90919721968CAE9DAEAEAEBFAEE6
:10343000219707E712E01E8B0D8B2DA53EA54FA50A
:1034400058A925962CAF3DAF4EAF5FAF259789A504
:103450009AA5ABA5BCA58F8B988FA98FBA8F8DA08D
:103460009EA0AFA0B8A489869A86AB86BC86A9A088
:10347000BAA0CBA0DCA0A982BA82CB82DC82C9AC84
:10348000DAACEBACFCACCB8EDC8EED8EFE8EEDA818
:10349000FEA80FA918ADE98AFA8A0B8B1C8B09A923
:1034A0001AA92BA93CA90D831E832F833887219647
:1034B0004CAC5DAC6EAC7FAC2197ED89FE8905917B
:1034C0001591259134910D871E872F87388B27966C
:1034D000AEADBFAD27970D911D912D913D912796D2
:1034E000BFAFAEAF2797CD80DE80EF80F884BE2DD2
:1034F000EF2CFC2CCD2CDB2EB701A601440F551F61
:10350000661F771F411D440F551F661F771F411D02
:103510008D809E80AF80B884E82D8B2CBA2CA92C8E
:103520009E2E80FAB794A79497948794B7F8842630
:103530009526A626B726B701A60140FB7795679585
:103540005795479577F940FB779567955795479538
:1035500077F940FB779567955795479577F9482513
:1035600059256A257B258D809E80AF80B884809404
:103570009094A094B094CB8CDC8CED8CFE8C8C2041
:103580009D20AE20BF20CD80DE80EF80F884898929
:103590009A89AB89BC89C822D922EA22FB22C82495
:1035A000D924EA24FB248D849E84AF84B888080D36
:1035B000191D2A1D3B1DC00ED11EE21EF31EC40E96
:1035C000D51EE61EF71E4C0C5D1C6E1C7F1C8981EF
:1035D0009A81AB81BC81982E8B2FBA2FA92F992D60
:1035E000880F991FAA1FBB1F811D8C019D01000F11
:1035F000111F221F331F011D49815A816B817C815C
:1036000040FB779567955795479577F940FB7795F8
:1036100067955795479577F9D901C801842795276C
:10362000A627B72749815A816B817C815A01AB015A
:10363000B501440F551F661F771F411D440F551FCD
:10364000661F771F411D8A019B01000F111F221F5A
:10365000331F011DAC01BD0140275127622773278D
:103660008F89988DA98DBA8DC984DA84EB84FC8406
:103670008C259D25AE25BF25E980FA800B811C8114
:103680008E219F21A023B12309851A852B853C8596
:103690008F88988CA98CBA8C082119212A213B216A
:1036A00080279127A227B327840F951FA61FB71F36
:1036B0002596ACACBDACCEACDFAC2597A40CB51C4C
:1036C000C61CD71CAD86BE86CF86D88A840D951DB4
:1036D000A61DB71D0D891E890C5F1F4F1E8B0D8BFC
:1036E0004B8C5C8C6D8C7E8C2F89388D498D5A8DDE
:1036F00025962CAF3DAF4EAF5FAF25974F8D58A1AC
:1037000027968EAC9FAC27974815590569F12985F6
:103710003A854B855C852F8B388F498F5A8F8980EE
:103720009A80AB80BC8089869A86AB86BC8689836A
:103730009A83AB83BC83A988BA88CB88DC88AB8E9C
:10374000BC8ECD8EDE8ECD80DE80EF80F884C98A7F
:10375000DA8AEB8AFC8AED84FE840F851889ED8273
:10376000FE820F831887A9CE07EB12E01E8B0D8B0C
:1037700021E030E023963FAF2EAF23972396EEADA6
:10378000FFAD2397EF70FF273896EE0FFF1FEE0F68
:10379000FF1FE20DF31D02811381248135812396E1
:1037A000EEADFFAD23973D96EF70FF273896EE0FF5
:1037B000FF1FEE0FFF1FE20DF31D82809380A48098
:1037C000B58022964FAD2297415F4F704F8F7401A5
:1037D0006501C0FAF794E794D794C794F7F8702F6F
:1037E000412F522F632F440F551F661F771F411D16
:1037F00028013901E3E07694679457944794EA9559
:10380000D1F74426552666267726A80189019A0114
:1038100000FB379527951795079537F900FB3795E6
:1038200027951795079537F904251525262537255A
:103830002396EEADFFAD23973896EF70FF273896AD
:10384000EE0FFF1FEE0FFF1FA1014E0F5F1FB10113
:10385000FF8DE4E0FE9F600D711D1124FB01B09609
:10386000F8A3EF8FFA014280538064807580EF8D5A
:10387000F8A14281538164817581440D551D661DF7
:10388000771D040F151F261F371F2601370140FA29
:10389000779467945794479477F840FA77946794AD
:1038A0005794479477F85AE0B694A79497948794DE
:1038B0005A95D1F78C249D24AE24BF2484249524CA
:1038C000A624B724B901A801480D591D6A1D7B1D06
:1038D0004283538364837583ED89FE898590959037
:1038E000A590B4902B968CAE9DAEAEAEBFAE2B978E
:1038F000CD84DE84EF84F8889E2CEF2CFC2CCD2C1C
:10390000D92C26013701440C551C661C771C411C20
:10391000440C551C661C771C411C0D851E852F858B
:103920003889A02E032F322F212F1A2D00FB379517
:1039300027951795079537F9042515252625372549
:10394000C0FAF794E794D794C794F7F8C0FAF794BD
:10395000E794D794C794F7F8C0FAF794E794D7940C
:10396000C794F7F80C251D252E253F254D845E8430
:103970006F8478884094509460947094C988DA88F1
:10398000EB88FC884C205D206E207F20CD84DE8477
:10399000EF84F8888D809E80AF80B884C820D920BD
:1039A000EA20FB20C424D524E624F7242B968CACF3
:1039B0009DACAEACBFAC2B97C80CD91CEA1CFB1C51
:1039C000C00ED11EE21EF31EC40ED51EE61EF71E4B
:1039D0004B8D5C8D6D8D7E8D4C0D5D1D6E1D7F1D27
:1039E000582E692E7A2E4B2E440C551C661C771CC3
:1039F000411C53014201880C991CAA1CBB1C811C50
:103A00006C017D01C0FAF794E794D794C794F7F856
:103A1000C0FAF794E794D794C794F7F824013501D6
:103A20004C245D246E247F247C016D01CC0CDD1CB4
:103A3000EE1CFF1CC11CCC0CDD1CEE1CFF1CC11CB1
:103A400097018601000F111F221F331F011D7301F3
:103A50006201C026D126E226F32609851A852B8528
:103A60003C8589809A80AB80BC80082519252A2551
:103A70003B25082319232A233B232401350189846C
:103A80009A84AB84BC84482059206A207B2040263D
:103A9000512662267326C40CD51CE61CF71C8F88A1
:103AA000988CA98CBA8C840E951EA61EB71EC40EC7
:103AB000D51EE61EF71E23960EAD1FAD23970F5F92
:103AC0001F4F23961FAF0EAF23972D893E892C5F82
:103AD0003F4F3E8B2D8B09891A892B893C890B8F8F
:103AE0001C8F2D8F3E8F29853A854B855C852F8BCA
:103AF000388F498F5A8F23964EAD5FAD2397413350
:103B0000510519F109811A812B813C8109871A8796
:103B10002B873C8789839A83AB83BC83D701C601FB
:103B20002D813E814F815885298B3A8B4B8B5C8B45
:103B3000CD84DE84EF84F888CD82DE82EF82F88641
:103B40008D869E86AF86B88A19CE09A11AA12BA1AF
:103B50003CA1C00ED11EE21EF31EF101C282D3822F
:103B6000E482F582CDA0DEA0EFA0F8A48C0D9D1D0F
:103B7000AE1DBF1D86839783A087B18789A59AA5AF
:103B8000ABA5BCA5C980DA80EB80FC808C0D9D1DA7
:103B9000AE1DBF1D82879387A487B5878DA59EA57F
:103BA000AFA5B8A9C984DA84EB84FC848C0D9D1D73
:103BB000AE1DBF1D86879787A08BB18BC9A8DAA8D9
:103BC000EBA8FCA88C0C9D1CAE1CBF1C828A938A9F
:103BD000A48AB58A8DA99EA9AFA9B8AD8D849E840B
:103BE000AF84B888880D991DAA1DBB1D868B978B45
:103BF000A08FB18F89AD9AADABADBCAD8D809E80ED
:103C0000AF80B884880D991DAA1DBB1D828F938F2C
:103C1000A48FB58F21968CAD9DADAEADBFAD219774
:103C200089889A88AB88BC88880D991DAA1DBB1D00
:103C3000868F978FA0A3B1A3C65BDF4F0FB6F89412
:103C4000DEBF0FBECDBFDF91CF911F910F91FF90CF
:103C5000EF90DF90CF90BF90AF909F908F907F902C
:103C60006F905F904F903F902F90089581E08093E8
:103C70009C0580939D0522EA35E030939F052093B3
:103C80009E051092A1051092A00522EB31E0309321
:103C90009905209398051092A4051092A3051092FF
:103CA000A6051092A5058093A7058093A80581EC31
:103CB0008093A2050E944311FC01218180919C0503
:103CC00090E0820F911D0897C4F5A281B3811097EF
:103CD00029F488E995E0938382830EC018968D912C
:103CE0009C911997009711F0DC01F8CF88E995E0D5
:103CF00019969C938E931897808180939A05818161
:103D000080939B05908180919D05890F808380E041
:103D100090919C05891788F4A0919E05B0919F050C
:103D2000A80FB11D9C91A181B0E0A45FBE4F9C93F0
:103D300091819F5F91838F5FEBCF0895BF92CF9268
:103D4000DF92EF92FF920F931F93CF93DF93CDB744
:103D5000DEB7C055D1090FB6F894DEBF0FBECDBF98
:103D60007C01C42ED22E80912D05882329F0AB0131
:103D700060E2C7010E94851890E081E0890FF70199
:103D8000E90FF11D2081982F2111F7CF803230F4F7
:103D9000F701E80FF11D10828F5FF8CF80912F059A
:103DA0000E94FB0580E1F701DE01AF5BBF4F019090
:103DB0000D928A95E1F780E1F7017096DE01919608
:103DC00001900D928A95E1F7AE014F5B5F4FBA010A
:103DD00085E696E00E94D815AE014F5D5F4FBA01AF
:103DE00085E696E00E94D81580E1FE01EF5BFF4F6B
:103DF000DE01119601900D928A95E1F780E1FE01B6
:103E0000B196DE01519601900D928A95E1F740E25C
:103E1000BE016F5F7F4FC8010E94B328DD2009F407
:103E20005DC000912F0510912C05111110C08091DB
:103E30002B0581110CC001110AC06FEF0E94D5281B
:103E40006FEF80E00E94DD280E94C32847C020E871
:103E5000129FC00111248E599F4F0E947728D82E9F
:103E6000BE016F5D7F4F812F0E9499291F3FA9F0EE
:103E700040E250E0B701CE0181960E944A3497FF9C
:103E80000CC0812F0E94E528B82EBE016F5D7F4FC8
:103E90000E949929D12E1B2DE9CF80912C05181352
:103EA00004C000932C050E94C3281F3F11F4009307
:103EB0002B056D2D802F0E94D528612F802F0E9409
:103EC000DD288FEFD81621F0602F8D2D0E94DD2880
:103ED0001F3F21F0602F812F0E94D5284C2D50E0EC
:103EE00050934705409346058BE080932E05C05BB9
:103EF000DF4F0FB6F894DEBF0FBECDBFDF91CF917D
:103F00001F910F91FF90EF90DF90CF90BF90089599
:103F1000CF93C82F20E8829FC001112421E040E206
:103F20006BE075E080960E94462880910B058F3FDC
:103F300021F410920B05CF9108958C2F0E94FB0560
:103F40006BE075E0CB01CF910C944F29CF93C82F34
:103F500020E8829FC001112421E040E26BEE74E072
:103F6000805C9F4F0E9446288091EB048F3F21F494
:103F70001092EB04CF9108958C2F0E94FB056BEEFD
:103F800074E0CB01CF910C944F298F929F92AF9206
:103F9000BF92CF92DF92EF92FF920F93CF93DF9376
:103FA000EC017B014A016901E881F9810680F78112
:103FB000E02D09955C01E881F9810084F185E02D0F
:103FC000CE010995AC14BD0430F0A601B401C701BF
:103FD0000E941F3421C0E881F9810284F385E02D1D
:103FE000A601B401CE010995E881F9810480F5812B
:103FF000E02DCE0109956C01E881F9810484F585F5
:10400000E02DAC01B701CE010995E881F98100846A
:10401000F185E02DCE010995E701CC0DDD1DA5014F
:104020004C195D09602F70E0CE010E942834F70121
:10403000CE17DF0721F0808180278193F9CFDF91B0
:10404000CF910F91FF90EF90DF90CF90BF90AF9006
:104050009F908F900895CF93DF93282F30E0F90140
:10406000E85AFD4F8491F901E75CFD4FD491F901C5
:10407000E65EFD4FC491CC2391F081110E947B201C
:10408000EC2FF0E0EE0FFF1FE45FFD4FA591B49120
:10409000EC91ED2381E090E021F480E002C080E02B
:1040A00090E0DF91CF9108953FB7F8948091380761
:1040B00090913907A0913A07B0913B0726B5A89B8C
:1040C00005C02F3F19F00196A11DB11D3FBFBA2FAA
:1040D000A92F982F8827820F911DA11DB11DBC010A
:1040E000CD0142E0660F771F881F991F4A95D1F7CF
:1040F00008950E940D3490E0FC013197EF30F105F6
:10410000B0F5E959FF4F0C949F32809180008F7772
:1041100003C0809180008F7D8093800008958091FE
:104120008000877FF9CF84B58F7702C084B58F7DFB
:1041300084BD0895809190008F7707C08091900092
:104140008F7D03C080919000877F809390000895B9
:104150008091C0008F7703C08091C0008F7D8093D5
:10416000C00008958091C200877F8093C2000895A7
:104170001F93CF93DF93282F30E0F901E85AFD4FCA
:104180008491F901E75CFD4FD491F901E65EFD4FA2
:10419000C491CC23C1F0162F81110E947B20EC2FFB
:1041A000F0E0EE0FFF1FEB5BF74FA591B4919FB7C7
:1041B000F894111104C08C91D095D82302C0EC91D1
:1041C000DE2BDC939FBFDF91CF911F910895CF939A
:1041D000DF9390E0FC01E75CFD4F2491FC01E65E7B
:1041E000FD4F8491882361F190E0880F991FFC01B5
:1041F000E95CF74FC591D491FC01EB5BF74FA591BA
:10420000B491611109C09FB7F894888120958223E9
:104210008883EC912E230BC0623061F49FB7F89431
:104220008881322F309583238883EC912E2B2C9319
:104230009FBF06C08FB7F894E8812E2B28838FBFCD
:10424000DF91CF9108951F93CF93DF93182FEB0148
:1042500061E00E94E720209711F460E004C0CF3FA6
:10426000D10539F461E0812FDF91CF911F910C943A
:10427000B820E12FF0E0E85AFD4FE4918E2F90E056
:10428000FC013197EF30F10508F06CC0EA58FF4FA0
:104290000C949F3284B5806884BDC7BD68C084B566
:1042A000806284BDC8BD63C08091800080688093B7
:1042B0008000D0938900C093880059C0809180000D
:1042C000806280938000D0938B00C0938A004FC09F
:1042D00080918000886080938000D0938D00C0938F
:1042E0008C0045C080919000806880939000D093AE
:1042F0009900C09398003BC08091900080628093A9
:104300009000D0939B00C0939A0031C080919000A0
:10431000886080939000D0939D00C0939C0027C03C
:104320008091C00080688093C0008091C0008F7B26
:104330008093C000C093CF001AC08091C0008062FB
:104340008093C000C093D00012C08091C2008860EA
:104350008093C2008091C2008B7F8093C200C09383
:10436000D20005C0C038D1050CF07CCF76CFDF91EC
:10437000CF911F9108958F929F92AF92BF92CF924B
:10438000DF92EF92FF926B017C010E9454204B015F
:104390005C01C114D104E104F104F1F00E94542045
:1043A000DC01CB0188199909AA09BB09883E934011
:1043B000A105B10570F321E0C21AD108E108F108A6
:1043C00088EE880E83E0981EA11CB11CC114D10494
:1043D000E104F10419F7DDCFFF90EF90DF90CF906B
:1043E000BF90AF909F908F9008952FB7F8946091F1
:1043F00034077091350780913607909137072FBFAA
:1044000008951F920F920FB60F9211242F933F938E
:104410008F939F93AF93BF9380913407909135070B
:10442000A0913607B09137073091330723E0230F6F
:104430002D3720F40196A11DB11D05C026E8230FDC
:104440000296A11DB11D20933307809334079093EA
:104450003507A0933607B0933707809138079091BE
:104460003907A0913A07B0913B070196A11DB11DF4
:104470008093380790933907A0933A07B0933B078E
:10448000BF91AF919F918F913F912F910F900FBE50
:104490000F901F901895FC0187E696EEA9E0BAE60A
:1044A00082839383A483B58385E89EEAA7E6BBEB6A
:1044B00086839783A087B18782E793EFAEE6BCE35C
:1044C00082879387A487B5878AE395EFAFE4B5EA3F
:1044D00086879787A08BB18B8FE792E5AEE0B1E539
:1044E000828B938BA48BB58B8CE898E6A5E0BBE917
:1044F000868B978BA08FB18F8BEA99EDA3E8BFE1F4
:10450000828F938FA48FB58F89E19DECA0EEBBE5E0
:10451000868F978FA0A3B1A3DF01A659BF4F1C922E
:10452000EE59FF4F1082118212821382148215827B
:104530001682178208950F93CF93DF93EC019A01AF
:10454000829606E3AB01BC01CE010E94C51FFE01AD
:10455000EE59FF4F20813181428153816481758101
:10456000868197813E5F4F4F5F4F6F4F7F4F8F4FD9
:104570009F4F208331834283538364837583868373
:104580009783CE01DF91CF910F910C948D196F928B
:104590007F928F929F92AF92BF92CF92DF92EF92D3
:1045A000FF920F931F93CF93DF934C013B01EA01DE
:1045B000FC01EE59FF4F9A0140E050E060E070E0EE
:1045C00080E090E003E00E94AC32A080B180C28025
:1045D000D380E480F580068117810E94E332208336
:1045E00031834283538364837583868397838401F5
:1045F00006591F4F80E4A82E740122E2E20EF11C3E
:10460000209721F1F8018081BA2CB81A2B2D30E0C7
:10461000C217D30708F4BC2ECB2CD12CA601B301B2
:104620009701280F311DC9010E941F34F8018081B4
:104630008B0D8083CC19DD096C0C7D1C803401F757
:10464000C4010E948D19F8011082DACFDF91CF9159
:104650001F910F91FF90EF90DF90CF90BF90AF90A0
:104660009F908F907F906F9008954F925F926F927E
:104670007F928F929F92AF92BF92CF92DF92EF92F2
:10468000FF920F931F93CF93DF937C015B01942ED6
:10469000852E6C0182E2C80ED11CF701E659FF4F4E
:1046A0002081822F90E0E701CE59DF4FD601A80F7D
:1046B000B91F283308F058C020E82C93808190E07F
:1046C00047E350E0481B590B019660E070E08C0D09
:1046D0009D1D0E942834688179818A819B810E9476
:1046E000A5322B013C01288139814A815B816C8193
:1046F0007D818E819F8100E20E94C732C901DA016B
:10470000F701E65AFF4F0B2F112722273327782F67
:10471000662755274427042B152B262B372B492F8B
:104720005A2F6B2F7727442766277727402B512B4B
:10473000622B732BBA2FA92F982F882788279927A8
:10474000BB27842B952BA62BB72B80839183A28329
:10475000B38334964082518262827382C7010E9481
:104760008D19F701329618C020E82C93808190E0D3
:104770004FE350E0481B590B019660E070E08C0D50
:104780009D1D0E942834C7010E948D1988E3F601FF
:1047900011928A95E9F79FCF6191719181919191E1
:1047A0000E94A532648F758F868F978FCE16DF0695
:1047B00099F7492D582D4132510510F040E250E053
:1047C000B601C501DF91CF911F910F91FF90EF903E
:1047D000DF90CF90BF90AF909F908F907F906F9021
:1047E0005F904F900C941F34CF93DF93EC019C812A
:1047F0008E81981768F48F856827E881F981008495
:10480000F185E02D42E0CE0109958C818F5F8C838C
:10481000DF91CF910895DC01ED91FC910084F18549
:10482000E02D40E00994FC01878186958695869568
:10483000681740F465839385690F6770606BCF01DB
:104840000C940B2408950F931F93CF93FC012681A2
:104850006217A0F4C62F8C0164839085C90F6C2F5A
:104860006F70CF010E940B246C2F62956F70606196
:10487000C801CF911F910F910C940B24CF911F91E0
:104880000F910895CF92DF92EF92FF920F931F93B3
:10489000CF93DF93EC01F62EC42ED22E8F81869516
:1048A00086958695081710F00FEF080F1D2D6F2DB8
:1048B000CE01011788F00E942324612FCE010E94AF
:1048C0001324EF2CCE1430F06F85CE010E94F42318
:1048D000E394F8CF1F5FEBCF0E9423246D2DCE0110
:1048E000DF91CF911F910F91FF90EF90DF90CF90CC
:1048F0000C94132480E490E0089580E290E0089501
:104900001F920F920FB60F9211242F934F935F9324
:104910006F937F938F939F93AF93BF932091840066
:1049200080913D0790913E07A0913F07B0914007CD
:10493000820F911DA11DB11D80933D0790933E07ED
:10494000A0933F07B093400780913D0790913E07A9
:10495000A0913F07B091400740913D0750913E071D
:1049600060913F07709140072AE0880F991FAA1FA6
:10497000BB1F2A95D1F7840F951FA61FB71F8093E1
:104980003D0790933E07A0933F07B0934007809167
:104990003D0790913E07A0913F07B091400740919D
:1049A0003D0750913E0760913F077091400726E018
:1049B000B695A795979587952A95D1F7842795273A
:1049C000A627B72780933D0790933E07A0933F0704
:1049D000B093400780913C078F5F80933C07BF9165
:1049E000AF919F918F917F916F915F914F912F9197
:1049F0000F900FBE0F901F901895680F791F8617A4
:104A0000970721F0FC0110820196F9CF08956F926B
:104A10007F928F929F92AF92BF92CF92DF92EF924E
:104A2000FF920F931F93CF93DF93CDB7DEB7A0977D
:104A30000FB6F894DEBF0FBECDBF7C014B013A012B
:104A400069015801DC01ED91FC910484F585E02DAC
:104A500040E250E0BE016F5F7F4F0995B7016E5D88
:104A60007F4F0CE59301A401C7010E94C51FF70108
:104A7000EE59FF4F208131814281538164817581DC
:104A8000868197813E5F4F4F5F4F6F4F7F4F8F4FB4
:104A90009F4F20833183428353836483758386834E
:104AA0009783C7010E948D19D701ED91FC91028473
:104AB000F385E02D40E250E0BE016F5F7F4FC701FC
:104AC0000995D701ED91FC910484F585E02DA501B0
:104AD000B601C701099560E270E0CE0101960E941F
:104AE000FD24A0960FB6F894DEBF0FBECDBFDF91B8
:104AF000CF911F910F91FF90EF90DF90CF90BF90DB
:104B0000AF909F908F907F906F900895CF93DF9399
:104B1000EC0169E670E002960E94FD24E881F981CB
:104B20000084F185E02DCE01DF91CF9109942EE331
:104B300032E0FC0121933193CF0169E670E00C94DF
:104B4000FD24CF93DF93EC010E949725CE01DF91E6
:104B5000CF910C948433CF93DF93DC01EB01E98197
:104B6000F0E0E25AF64F8491E42FF0E0ED5AF64F70
:104B7000E491E827EC93EA81F0E0E25AF64FE49101
:104B80001196EC931197EB81F0E0E25AF64FE49125
:104B90001296EC931297E881F0E0E25AF64FE49116
:104BA0001396EC93DF91CF9108952F923F924F92FD
:104BB0005F926F927F928F929F92AF92BF92CF92AD
:104BC000DF92EF92FF920F931F93CF93DF9300D06A
:104BD00000D0CDB7DEB78C01FB015081918182817D
:104BE0004381252F30E03C832B83220F331F7BE151
:104BF000272E239E302C11243226A92FB0E09D01B0
:104C0000220F331F239EB02C1124B226482E512C84
:104C10009201220F331F239E902C11249226642F81
:104C200070E09B01220F331F239E202C112422268B
:104C3000EB81FC81EE0FFF1FEE0FFF1FFA83E9836C
:104C40006D01CC0CDD1CCC0CDD1CED2CFF24970180
:104C50002E5A3D4FF90180808C246201CC0CDD1C62
:104C6000CC0CDD1CED2CFF2497012E5A3D4FF90191
:104C7000A080AC246B01CC0CDD1CCC0CDD1CED2C1D
:104C8000FF2497012E5A3D4FF901D080DC24EB80A0
:104C9000FC80F3E0EE0CFF1CFA95E1F72F2D332793
:104CA0002E5A3D4FF901F081FE25FB833D0133E093
:104CB000660C771C3A95E1F7A72DBB27AE5ABD4F7E
:104CC000AC91A625F3E0440C551CFA95E1F7E52DCF
:104CD000FF27EE5AFD4FE0814E2623E0660F771F37
:104CE0002A95E1F7E72FFF27EE5AFD4FE0816E2767
:104CF00029813A81E32FFF27EE5AFD4F3081298128
:104D000023273B812327392F382734273A253A2771
:104D10003425362733253B253227F8013083352FBC
:104D20003827342738253D25FB813F273A2734256E
:104D30003627B326B924F801B18295274927A4263E
:104D4000AA26A424A6269A249224292522839827D9
:104D50009825C92ECD24FB81FC25AF274A26642542
:104D60006325262F2225F80123830F900F900F90A3
:104D70000F90DF91CF911F910F91FF90EF90DF90F7
:104D8000CF90BF90AF909F908F907F906F905F90EB
:104D90004F903F902F9008951F93CF93DF93FC0186
:104DA000CB01DB011C9111967C9111971296BC915D
:104DB000EC01AB81812F90E0880F991FCBE1C99F57
:104DC000602D11246827472F50E0440F551FC59FC1
:104DD000802D112448272B2F30E0220F331FC39F33
:104DE000802D112428278A2F90E0880F991FC99FB2
:104DF000C02D11248C27972F9B279A27962794271D
:104E00009083912F9B279A27492742274183712717
:104E1000A7272A27282722837B277627872783838C
:104E2000DF91CF911F910895CF93DF93DC01EB01C8
:104E3000E881F0E0ED5AF74FE491EC93ED85F0E076
:104E4000ED5AF74FE4911196EC931197EA85F0E053
:104E5000ED5AF74FE4911296EC931297EF81F0E040
:104E6000ED5AF74FE4911396EC931397EC81F0E031
:104E7000ED5AF74FE4911496EC931497E981F0E022
:104E8000ED5AF74FE4911596EC931597EE85F0E007
:104E9000ED5AF74FE4911696EC931697EB85F0E0F8
:104EA000ED5AF74FE4911796EC931797E885F0E0E9
:104EB000ED5AF74FE4911896EC931897ED81F0E0D6
:104EC000ED5AF74FE4911996EC931997EA81F0E0C7
:104ED000ED5AF74FE4911A96EC931A97EF85F0E0AC
:104EE000ED5AF74FE4911B96EC931B97EC85F0E09D
:104EF000ED5AF74FE4911C96EC931C97E985F0E08E
:104F0000ED5AF74FE4911D96EC931D97EE81F0E07A
:104F1000ED5AF74FE4911E96EC931E97EB81F0E06B
:104F2000ED5AF74FE4911F96EC93DF91CF910895DE
:104F3000CF93DF93DC01EB01E881F0E0E25AF64F1A
:104F4000E491EC93ED81F0E0E25AF64FE491119692
:104F5000EC931197EA85F0E0E25AF64FE49112964D
:104F6000EC931297EF85F0E0E25AF64FE491139636
:104F7000EC931397EC81F0E0E25AF64FE49114962B
:104F8000EC931497E985F0E0E25AF64FE491159618
:104F9000EC931597EE85F0E0E25AF64FE491169601
:104FA000EC931697EB81F0E0E25AF64FE4911796F6
:104FB000EC931797E885F0E0E25AF64FE4911896E3
:104FC000EC931897ED85F0E0E25AF64FE4911996CC
:104FD000EC931997EA81F0E0E25AF64FE4911A96C1
:104FE000EC931A97EF81F0E0E25AF64FE4911B96AA
:104FF000EC931B97EC85F0E0E25AF64FE4911C9697
:10500000EC931C97E981F0E0E25AF64FE4911D968B
:10501000EC931D97EE81F0E0E25AF64FE4911E9674
:10502000EC931E97EB85F0E0E25AF64FE4911F9661
:10503000EC93DF91CF910895FC0182899389853F9C
:10504000914010F084E001C081E080932E05089526
:105050008EBD0DB407FEFDCF08952E9886E00E9408
:1050600028282E9A08952E9885E00E94282880E00E
:105070000E9428282E9A8EB50895CF93C82F892F85
:105080000E9428288C2FCF910C942828EF92FF9211
:105090000F931F93CF93DF93EC01062FE72EF42E8F
:1050A000122F222311F02E9801C05F9883E00E94F6
:1050B0002828CE010E943D28C02FDE2DCE018F0D65
:1050C000911D7C01CE15DF0531F080E00E9428287B
:1050D0008EB58993F7CF112311F02E9A01C05F9AF4
:1050E000DF91CF911F910F91FF90EF900895CF9393
:1050F000DF93EC012E9883E00E942828CE010E94C5
:105100003D2880E00E9428282E9A8EB5DF91CF910D
:105110000895CF92DF92EF92FF920F931F93CF9358
:10512000DF936C017B01042F0E942632F7018083FC
:1051300011E0101778F4212F30E0C601820F931F81
:1051400097FD08C0E701C20FD31F1F5F0E942632E0
:105150008883EFCFDF91CF911F910F91FF90EF9058
:10516000DF90CF90089597FD05C09C01240F311D5D
:1051700037FF02C080E00895413208F040E20E940B
:10518000DC1881E0089560912C0582EC9FE70C9477
:1051900006196091310781EC9FE70C940619609124
:1051A000320780EC9FE70C94061920E8829FC0012B
:1051B00011248E599F4F0C94061920E8829FC0013C
:1051C00011248D599F4F0C94061920E8829FC0012D
:1051D00011248D599F4F0C9477280F931F93CF93D1
:1051E00000E010E0C0E0C8010E9477288F3F39F04E
:1051F000CF5F00581F4FCF3FB1F78FEF01C08C2F0B
:10520000CF911F910F910895CF9382EC9FE70E9459
:105210007728C82F8F3F39F40E94ED28C82F80933C
:105220002C050E94C3288C2FCF91089510928507DA
:1052300080912C0580932B050E94E52890912C05E8
:1052400089130FC020E8829FC001112441E06FEF55
:1052500070E08D599F4F0E94B32880912C050E94C9
:10526000E5288F3FD9F0909185079F5F9093850740
:1052700080932B050E94E52890912B058913F1CF8F
:1052800020E8829FC001112441E06FEF70E08D594A
:105290009F4F0E94B32880912B05E1CF08950F9373
:1052A0001F93CF93DF93CDB7DEB7A0970FB6F894D7
:1052B000DEBF0FBECDBF8C0180E1FB01DE01119688
:1052C00001900D928A95E1F780E1FB017096DE0175
:1052D000519601900D928A95E1F7AE014F5F5F4FB5
:1052E000BA0185E696E00E944A14AE014F5E5F4F18
:1052F000BA0185E696E00E944A1480E1FE013196EB
:10530000D80101900D928A95E1F780E1FE01719636
:10531000D801509601900D928A95E1F7A0960FB6AC
:10532000F894DEBF0FBECDBFDF91CF911F910F91DB
:1053300008951F93CF93DF93182FEB0121E040E2F4
:1053400030E8839FC00111240E94462888818F3F46
:1053500029F41882DF91CF911F910895812F0E9427
:10536000FB05BE01CE01DF91CF911F910C944F2917
:10537000AF92BF92CF92DF92EF92FF920F931F9363
:10538000CF93DF93CDB7DEB76C970FB6F894DEBF3F
:105390000FBECDBF6C01FC0101900020E9F73197F1
:1053A0008F01081B190B8AEF95E00E944B225601D2
:1053B0007801E114F10489F0A7010E151F0508F426
:1053C000A801B5018AEF95E00E94C72281E0E81AA2
:1053D000F1088FEFA81AB80AECCF4CE150E0BE01FB
:1053E0006F5F7F4F8AEF95E00E9435238AEF95E04B
:1053F0000E9486258CE1FE013196D60101900D9226
:105400008A95E1F76C960FB6F894DEBF0FBECDBF5C
:10541000DF91CF911F910F91FF90EF90DF90CF9090
:10542000BF90AF900895CF93DF93D62FC42F682FEE
:1054300070E085E10E9423216D2F70E084E10E94DD
:1054400023216C2F70E083E1DF91CF910C94232115
:105450004FEF60E080E00C94132A40E06FEF80E0B3
:105460000C94132A40E060E08FEF0C94132AE62F8F
:10547000F0E050E0EE0FFF1FEC5EFE4FA081B18127
:10548000A40FB51F81110FC086E48C93A081B18158
:10549000A40FB51F11968C9380819181FC01E40FBC
:1054A000F51F128208958EE48C9380819181FC0116
:1054B000E40FF51F118208958DEB95E00E942019ED
:1054C00066E877E08DEB95E00E942F1165E677E0C6
:1054D0008DEB95E00C942F1140E250E066E772E00E
:1054E00085E697E00E9458340C945C2A40E250E034
:1054F000BC0185E697E00E945834109284070C9412
:105500005C2AEF92FF920F931F93CF93DF9300D00B
:10551000CDB7DEB7082F162F85E697E00E94762AD2
:1055200009831A82612F660F610F660F665F8DEB2C
:1055300095E00E942324FE013196DF010D900020AA
:10554000E9F78F01CD0101977C010E151F0541F090
:10555000F80161918F018DEB95E00E94380EF5CF37
:105560000F900F90DF91CF911F910F91FF90EF90CF
:10557000089540E250E0BC0186E897E00E9458346C
:105580001092A5070C945C2ACF93DF93CDB7DEB7BA
:10559000A0970FB6F894DEBF0FBECDBF80912F0548
:1055A0000E94A61F80E2EBEEF4E0DE01119601906E
:1055B0000D928A95E1F7BE016F5F7F4F81EB95E019
:1055C0000E941A11A0960FB6F894DEBF0FBECDBF91
:1055D000DF91CF910895CF93DF93CDB7DEB7A0973A
:1055E0000FB6F894DEBF0FBECDBF80912F050E948D
:1055F000881F80E2EBE0F5E0DE01119601900D924C
:105600008A95E1F7BE016F5F7F4F81EB95E00E94C5
:105610001A1163EB81EB95E00E94051863EB81EBB7
:1056200095E00E94C317A0960FB6F894DEBF0FBE98
:10563000CDBFDF91CF910895CF9365E477E080915E
:105640002F050E949929C0E0EC2FF0E0EB5BF84FAA
:105650006081662331F0CF5F81EB95E00E946F1887
:10566000F3CFCF9108951F920F920FB60F9211248E
:105670002F933F934F935F936F937F938F939F935A
:10568000AF93BF93CF93DF93EF93FF938091F9058F
:105690000E942B20EC018091F8050E942B20E091C4
:1056A000F705EF70CC0FDD1F8C2B94E0E99FF00124
:1056B0001124E65AFD4FE80FF11D80818093F70514
:1056C0008073803111F487E003C0803219F488E0E0
:1056D00080932E05FF91EF91DF91CF91BF91AF9114
:1056E0009F918F917F916F915F914F913F912F91FA
:1056F0000F900FBE0F901F901895823029F128F45B
:10570000882349F08130A1F00895833061F184301D
:1057100009F444C0089580914407811106C065E4EE
:1057200077E080912F050E94992985E497E00AC0CF
:1057300080914407811104C080912F050E94881F29
:105740008BE095E00C94762A80914407811104C087
:1057500080912F050E94A61F809131078823F1F0C8
:105760008BEE94E0EFCF80914407811114C08091BB
:105770002F0520E8829FC001112421E042E062E46D
:1057800077E0805A9F4F0E944628809142078F3FC2
:1057900011F41092420782E497E0D4CF0C946C2A63
:1057A00083E08093410780912C05282F30E03093CF
:1057B00047052093460580932F058091160190910F
:1057C00017010E94B92A65E477E0809146050E949E
:1057D000992985E497E00E94762A10922E05089573
:1057E00085E08093130184E1E2E9F1E0A2E3B5E012
:1057F00001900D928A95E1F71092470510924605A7
:1058000087E08093410780913205909133050E9493
:10581000B92A8091440781110AC065E477E080913C
:105820002F050E94992985E497E00E94762A10921C
:105830002E0508951F93CF93DF9300D0CDB7DEB729
:10584000E091D904F0E0EC5CFE4F908199831A82DC
:105850008093410770E07093470560934605CE0141
:1058600001960E94762A10922E0580912D0588239C
:1058700081F08FEF9FEF9093550580935405109121
:105880000B016AE070E080E090E00E94BB211123F0
:10589000B1F30F900F90DF91CF911F910895209158
:1058A000D90430E0DC01A20FB31FE0914605F0916E
:1058B0004705EC5CFE4F80818C9311961C92809181
:1058C0003107811104C0662311F08AE207C0E0911C
:1058D0004605F0914705EC5CFE4F8081F901EB59DC
:1058E000F84F8083F901EB59F84F11820E945C2A2E
:1058F0008091D904282F30E02E3131051CF48F5FC0
:105900008093D90410922E050895DF92EF92FF92B2
:105910000F931F93CF93DF93D82EF92EE42E062FEB
:1059200010E0C8010196880F0E94400D83E00E949C
:10593000400DCD2DDF2D0C0F1D1FC017D10789F095
:10594000E7FE03C0FE01849101C088810E94400DE2
:10595000F82E80E00E94400D8F2121968111EDCF1D
:1059600001C081E0DF91CF911F910F91FF90EF90E7
:10597000DF900895AF92BF92CF92DF92FF920F9384
:105980001F93CF93DF93CDB7DEB7A0970FB6F894F0
:10599000DEBF0FBECDBFF82E8CE294E00E94762AC7
:1059A00000E010E05E0181E2A80EB11C40E06FEF64
:1059B0008FEF0E94132A21E0F11020E040E2BE01A7
:1059C0006F5F7F4FC8010E944628F11002C05F98A8
:1059D00001C02E9886E00E942828F11003C05F9A2B
:1059E0005F9802C02E9A2E9882E00E942828C80153
:1059F0000E943D28FE0131966F01F60181916F01F1
:105A00000E942828AC14BD04C1F7F11002C05F9AAF
:105A100002C02E9A30C05F9885E00E94282880E05E
:105A20000E9428285F9A0EB400FCF5CF005E1F4F3D
:105A30000115F0E81F0709F0B9CF0E9404298093EF
:105A40002C0580932F050E9416290E942D2A87E39A
:105A500094E00E94762AA0960FB6F894DEBF0FBE9F
:105A6000CDBFDF91CF911F910F91FF90DF90CF902D
:105A7000BF90AF9008950E94332880FDFCCFD6CF11
:105A800085E696E00E94A7178AEF95E00E94972589
:105A9000F894A89584B7877F84BFE0E6F0E0808122
:105AA000886180831082789460E470E085E996E0F4
:105AB0000E94FD2460E470E085ED96E00C94FD24E6
:105AC00010924B0510924A0588EE93E0A0E0B0E0FA
:105AD00080934C0590934D05A0934E05B0934F05D0
