:100000000C9431050C9459050C9459050C94590520
:100010000C9459050C9459050C9459050C945905E8
:100020000C9459050C941B2B0C94CC0F0C9483113D
:100030000C9468240C9459050C9459050C9459059A
:100040000C9459050C9459050C9459050C945905B8
:100050000C9459050C9459050C9459050C94E921FC
:100060000C9459050C9459050C9459050C94590598
:100070000C9459050C9459050C9459050C94590588
:100080000C9459050C9459050C9459050C94590578
:100090000C9459050C9459050C9459050C94590568
:1000A0000C9459050C9459050C9459058E09B50901
:1000B000EE09BA09BC09D009E409E809EA09EC0922
:1000C0009D0A150B220B270B2A0B2F0B320B7B20C3
:1000D0007E206D20712077209F209F209F208220EE
:1000E00086208A20902094209F209A203221372138
:1000F0003C21462150219A219A219A215A2164219A
:100100006E21782185219A218D2100030C0F303337
:100110003C3FC0C3CCCFF0F3FCFF080B000202024F
:100120000100090400000102020000052400100182
:100130000524010101042402060524060001070527
:10014000810310004009040100020A0000000705B5
:100150000202400000070583024000000403090476
:1001600012010002EF020140412337800001010229
:10017000030141726475696E6F204C4C43004172FB
:100180006475696E6F204D6963726F000000000036
:10019000000000002A2B28000000000000000000E2
:1001A0000000000000000000000000002C9EB4A031
:1001B000A1A2A434A6A7A5AE362D3738271E1F202E
:1001C000212223242526B333B62EB7B89F848586F3
:1001D0008788898A8B8C8D8E8F9091929394959637
:1001E0009798999A9B9C9D2F3130A3AD35040506B5
:1001F0000708090A0B0C0D0E0F1011121314151617
:100200001718191A1B1C1DAFB1B0B5000000000073
:100210002300260029002C002F00040404040403FA
:100220000405020202020403020202020606060696
:1002300006060404020202040404080201104080BD
:1002400040102040804080080204018040201002BD
:1002500001108010204040200000000200090F0023
:1002600000030401000C000000000000000000007A
:1002700000000000000000982F8A4291443771CF9F
:10028000FBC0B5A5DBB5E95BC25639F111F159A444
:10029000823F92D55E1CAB98AA07D8015B8312BE41
:1002A000853124C37D0C55745DBE72FEB1DE80A71E
:1002B00006DC9B74F19BC1C1699BE48647BEEFC617
:1002C0009DC10FCCA10C246F2CE92DAA84744ADCAB
:1002D000A9B05CDA88F97652513E986DC631A8C84B
:1002E0002703B0C77F59BFF30BE0C64791A7D5518D
:1002F00063CA0667292914850AB72738211B2EFCF3
:100300006D2C4D130D385354730A65BB0A6A762E53
:10031000C9C281852C7292A1E8BFA24B661AA8704F
:100320008B4BC2A3516CC719E892D1240699D6858C
:10033000350EF470A06A1016C1A419086C371E4C53
:10034000774827B5BCB034B30C1C394AAAD84E4FF5
:10035000CA9C5BF36F2E68EE828F746F63A578146E
:1003600078C8840802C78CFAFFBE90EB6C50A4F7E3
:10037000A3F9BEF27871C605010906A1018502053F
:100380000719E029E71500250175019508810295F7
:100390000175088103950675081500257305071971
:1003A0000029738100C0AED580A81FD300408D14F2
:1003B0002002A1C8DA02817FD9F1DB40A4A6AF07F1
:1003C0000605040100080A0B0C0D091A4C0A0D2041
:1003D0006002010306050909010303050702030181
:1003E00003050305050605050505050102060606C4
:1003F000040A0807070807060808030408070B088B
:1004000008060808050708070B0808070303020683
:100410000602050504060404050603020603090690
:10042000050606040403060609050705030103057E
:100430000600000000FE100E000E000000D07856EE
:1004400050F8561800001800001C12FF22C40810B3
:100450003810080C128C40300886408000100800CC
:100460000000081008C0203CD28A46301000081056
:10047000101008101010080E00F00C020830400296
:100480000CF040300814083E081400000000002062
:100490002020FC2020200000000800000000005068
:1004A00030808080000000001000F806180000FC7A
:1004B000020202FC081010100804FE0010181004BC
:1004C0000282423C101810101804022232CC101084
:1004D000101008C0A09884FE8000000000180000E2
:1004E0000C0A12E21010100800F0281412E2081092
:1004F000101008040202F20E00001800008C5222B4
:10050000528C08101010083C4242C27C10100800A7
:10051000001010100050302050505088880000000B
:100520000000005050505050500000000000008863
:1005300088505050200000000000000CC2221C0017
:10054000100000F008E4120A0A927A04F818204811
:1005500090908888904820008078465860800010ED
:100560001810000010181002FE2222223CC01018A1
:100570001010101008F804020202048E0008101077
:1005800010080002FE0202020204F81018101010F7
:1005900010080002FE22227206001018101010101F
:1005A0000802FE22227206101810000000F8040251
:1005B000020224EE20000810101010080002FE2293
:1005C000202022FE02101810000010181002FE0257
:1005D0001018100002FE021810080002FE225088B7
:1005E000060202101810000018101002FE0200008F
:1005F00000001018101010100802FE0618E000E0AD
:100600001806FE0210181000001800001018100242
:10061000FE08106082FE021018100000001800F89A
:10062000040202020204F800081010101008000270
:10063000FE2222221C101810000000F80402020200
:100640000204F8000810103050484002FE2222E256
:100650001C000010181000000810100C122222C6F6
:100660001810101008060202FE0202060000101800
:1006700010000002FE02000002FE0200081010102E
:10068000100800021EE200E21E0200000018000036
:1006900000021EE280621EE280720E02000000185C
:1006A0000000001800000002068A70708A0602101E
:1006B0001810000010181002063AC0300A06020096
:1006C00000101810000000008642320A068210183E
:1006D0001010101018FE020278404006F8000000CA
:1006E0001802FE4078100C02020C100000000000FE
:1006F00000000000000000808080808080040800EE
:1007000000A05050E0000810101810FE201010E05B
:100710000810101008E010103008101008E0101039
:1007200022FE00081010081810E050506008101049
:100730000810FC1202101810006090907010689061
:1007400090906002FE2010E00010181000181010A9
:10075000F20010181010F2807802FE40B010001065
:10076000181000181002FE0010181010F02010E0F1
:100770002010E00010181000181000181010F020C1
:1007800010E000101810001810E0101010E0081011
:1007900010100810F0201010E080F888101008E009
:1007A000101020F00008101088F88010F0201010B1
:1007B000181000605090B01810100810FC100018AD
:1007C0001010F00010F00000081010181030D000C9
:1007D000C0301000001800000010F00090F010C0B1
:1007E00030100000180000180000001030C0301059
:1007F000101800181010709000D030108080483011
:100800000800003010D03010101810101840BC0232
:10081000003840FE7802BC404038008040C0804034
:100820000000000000FC04040404FC181010101068
:1008300018A6031980200000000000240027002AC9
:10084000002D00300000000000250028002B002EA5
:1008500000310052096AD53036A538BF40A39E81C9
:10086000F3D7FB7CE339829B2FFF87348E4344C44C
:10087000DEE9CB547B9432A6C2233DEE4C950B426D
:10088000FAC34E082EA16628D924B2765BA2496D20
:100890008BD12572F8F66486689816D4A45CCC5D7A
:1008A00065B6926C704850FDEDB9DA5E154657A7F3
:1008B0008D9D8490D8AB008CBCD30AF7E45805B862
:1008C000B34506D02C1E8FCA3F0F02C1AFBD030136
:1008D000138A6B3A9111414F67DCEA97F2CFCEF061
:1008E000B4E67396AC7422E7AD3585E2F937E81CBF
:1008F00075DF6E47F11A711D29C5896FB7620EAA9F
:1009000018BE1BFC563E4BC6D279209ADBC0FE783F
:10091000CD5AF41FDDA8338807C731B1121059270B
:1009200080EC5F60517FA919B54A0D2DE57A9F9340
:10093000C99CEFA0E03B4DAE2AF5B0C8EBBB3C83B1
:10094000539961172B047EBA77D626E16914635553
:10095000210C7D0001020408102040801B36637CBE
:10096000777BF26B6FC53001672BFED7AB76CA82FF
:10097000C97DFA5947F0ADD4A2AF9CA472C0B7FDAF
:100980009326363FF7CC34A5E5F171D8311504C76D
:1009900023C31896059A071280E2EB27B2750983E4
:1009A0002C1A1B6E5AA0523BD6B329E32F8453D185
:1009B00000ED20FCB15B6ACBBE394A4C58CFD0EF7A
:1009C000AAFB434D338545F9027F503C9FA851A3B4
:1009D000408F929D38F5BCB6DA2110FFF3D2CD0CD2
:1009E00013EC5F974417C4A77E3D645D1973608163
:1009F0004FDC222A908846EEB814DE5E0BDBE03234
:100A00003A0A4906245CC2D3AC629195E479E7C8FE
:100A1000376D8DD54EA96C56F4EA657AAE08BA7872
:100A2000252E1CA6B4C6E8DD741F4BBD8B8A703E14
:100A3000B5664803F60E613557B986C11D9EE1F8CB
:100A4000981169D98E949B1E87E9CE5528DF8CA119
:100A5000890DBFE6426841992D0FB054BB16872D12
:100A6000672D11241FBECFEFDAE0DEBFCDBF14E04B
:100A7000A0E0B1E0E6E3F9E602C005900D92A83CE3
:100A8000B107D9F727E0A8ECB4E001C01D92A83A5D
:100A9000B207E1F715E0C0E3D5E004C02197FE01FD
:100AA0000E94C632CF32D107C9F70E94952E0C940E
:100AB0008E340C940000FC016093BC008091BC005B
:100AC00087FFFCCF9091B900987F90830895CF92D3
:100AD000DF92EF92FF920F931F93CF93DF93EC017E
:100AE000C62ED42E8B89882351F0411108C084E989
:100AF0008093BC008091BC0084FDFCCF1B8AEB88F6
:100B00008E010F5E1F4FE11014C0FA8864EAC8011D
:100B10000E945B058989883011F1803101F1DD2067
:100B200011F080E4E82EE092BB0064E8C8010E9466
:100B30005B05C092BB0064E8C8010E945B0582E0CF
:100B4000D81204C08B898F5F8B8B11C084E980938E
:100B5000BC008091BC0084FDFCCF1B8A08C0FF0C48
:100B6000F092BB0064E8C8010E945B05D8CFDF911A
:100B7000CF911F910F91FF90EF90DF90CF9008954C
:100B8000089580E090E0089587E08093130184E168
:100B9000EEE9F1E0A0E3B5E001900D928A95E1F76E
:100BA000109245051092440589E080933F0780919B
:100BB0003005909131050E94A12A63E477E080918D
:100BC0002D050E94812983E497E00E945E2A1092FD
:100BD0002C05089580933F0786E892E00E945E2AE4
:100BE00010924505109244056EE08EE40E94692A39
:100BF00010922C050895CF92DF92EF92FF920F93FF
:100C00001F93CF93DF93CDB7DEB760970FB6F894FD
:100C1000DEBF0FBECDBF20E8829FC00111248C0132
:100C20000C591F4F21E042E0BE016F5F7F4FC801AA
:100C30000E942E2889818F3FC9F40E94C131C12CA6
:100C4000D12C7601CA94A70196010E946332698370
:100C50000E94C131A70196010E9463326A8342E07B
:100C6000BE016F5F7F4FC8010E94C5188EE0E9EC9E
:100C7000F4E0DE01139601900D928A95E1F740E1D0
:100C800050E0BE016F5F7F4F83E696E00E946315E0
:100C900060960FB6F894DEBF0FBECDBFDF91CF9147
:100CA0001F910F91FF90EF90DF90CF9008954F929A
:100CB0005F926F927F928F929F92AF92BF92DF92DC
:100CC000EF92FF920F931F93CF93DF93CDB7DEB7D1
:100CD000CE54D1090FB6F894DEBF0FBECDBF8091C0
:100CE0002C05882361F0F8940E94DD2160932B0786
:100CF00070932C0780932D0790932E0725C078942E
:100D00008091C8048F5F8F3F19F08093C8049BC601
:100D10001092C8040E94DD2180902B0790902C0730
:100D2000A0902D07B0902E0720E8820E2EEE921E86
:100D300026E3A21EB11C681579058A059B0508F4F7
:100D400082C68DE080932C0580912C05873009F0B8
:100D500055C080913F07823071F490912A07992302
:100D600009F4BCC0809144059091450589309105F6
:100D70000CF03BC61CC0813031F0883021F09CEF74
:100D8000980F933050F480914405909145058E352D
:100D900091050CF058C0019652C0893081F48091C1
:100DA000440590914505863091050CF01EC60196CC
:100DB00090934505809344050E94331916C68730E9
:100DC000A9F48091440590914505843091050CF07B
:100DD0000CC620918307222309F407C6019690933D
:100DE0004505809344050E94331959C0833009F0AA
:100DF00075C080912D050E94CD2862C080912C0580
:100E0000883009F08FC080913F07823041F4809193
:100E10004405909145058230910544F5E6C5813041
:100E200031F0883021F09CEF980F9330A8F4809136
:100E3000440590914505181619062CF401979093D6
:100E4000450580934405E0914405F0914505EC5C2F
:100E5000FE4F6091D70462C0893081F480914405CF
:100E600090914505181619060CF0BFC5019790938F
:100E70004505809344050E942219B7C58730A1F427
:100E80008091440590914505181619060CF0ADC5E2
:100E9000019790934505809344050E942219809103
:100EA00044050E94652BA1C58330C1F480912D05B6
:100EB000E0E88E9FC00111248E599F4F0E945F2849
:100EC0008F3F29F090E090934505809344058091F1
:100ED000440580932D0563E477E082C096EF980F78
:100EE000923020F08D50823008F07FC5809144050B
:100EF00090914505019729F41092450510924405FB
:100F000006C081E090E09093450580934405E09110
:100F10004405F0914505EE5CFE4F6EE080810E9435
:100F2000692A63C580912C05893061F584E1E4E18B
:100F3000F1E0A0E3B5E001900D928A95E1F78AE037
:100F40008093130182E080933F0780912A078823D2
:100F500039F081E090E0909345058093440504C00A
:100F60001092450510924405E0914405F091450525
:100F7000FF27EE0FFF1FE05DFA4F808191810E94F5
:100F8000A12A33C580912C058B3079F584E1E2E903
:100F9000F1E0A0E3B5E001900D928A95E1F785E0DC
:100FA0008093130187E080933F07809144059091DF
:100FB0004505059720F01092450510924405E091F3
:100FC0004405F0914505FF27EE0FFF1FE05DFA4F46
:100FD000808191810E94A12A63E477E080912D05B0
:100FE0000E94812983E497E0FEC480912C0584301F
:100FF00009F07EC180913F07813009F006C18091E0
:101000002B05882329F06EE089EC94E00E947F187C
:10101000E0E081E08E0FF0E0E753FB4F9081E82F96
:101020009111F7CF8D3038F4E82FF0E0E753FB4F04
:1010300010828F5FF7CF1092D60483EE93E00E9468
:101040004D328F3F09F05BC08E010F5B1F4F58017F
:10105000FEE0AF0EB11C78014DE5442E512C612C01
:10106000712C0E94C131A30192010E946332DC0104
:10107000CB018196A11DB11DF70181937F01AE16B1
:10108000BF0679F735EDE32E33E0F32EF8016191D9
:101090008F01C7010E945532FFEFEF1AFF0A23EEBE
:1010A000E21623E0F20691F78EE0FE01EF5BFF4FC0
:1010B000DE01919601900D928A95E1F78EE0E9ECC0
:1010C000F4E0DE019F9601900D928A95E1F7CE0142
:1010D00081960E94A0298E010F5D1F4FF80161913A
:1010E0008F01C7010E945532FFEFEF1AFF0A2FEF61
:1010F000E21623E0F20691F70E94152A38C04CE16F
:10110000BE016F5D7F4F83EE93E00E9471284EE039
:10111000BE016F5B7F4F85ED93E00E9471288EE0EA
:10112000FE01EF5BFF4FDE01119601900D928A9553
:10113000E1F78EE0E9ECF4E0DE011F9601900D92FC
:101140008A95E1F7CE0101960E94A0294CE150E07A
:10115000BE016F5D7F4FCE0101960E943934892B0D
:1011600041F40E94152A109230070E94B72881E0AE
:101170000AC00E941A2A809130078F5F809330073F
:101180000E94B72880E080932A07882391F081E0AD
:1011900090E0909345058093440582E080933F075B
:1011A00080913205909133050E94A12A88E992E04E
:1011B0001AC4809130078B3010F08CE042C410923A
:1011C00045051092440582E080933F0780913005E9
:1011D000909131050E94A12A809130074AE0BE011A
:1011E0006F5F7F4F90E00E941832BE016F5F7F4FAC
:1011F00083E697E00E946A3466EA72E083E697E04D
:101200000E9456340E94442AF0C3883069F4009149
:101210002D0580E8089F8001112421E041E062EB68
:1012200072E083E497E010C0853089F400912D05C9
:10123000E0E80E9F80011124005E1F4F20E042E095
:101240006FEB72E089E095E00E94871EFCC3863058
:1012500079F400912D05F0E80F9F80011124005CC6
:101260001F4F20E043E06DEC72E089EE94E0ECCF9C
:101270008430E1F480912B05882329F062E080E43A
:1012800097E00E947F1880912D0520E8829FC00181
:10129000112442E060E477E0805A9F4F0E949B282F
:1012A00010924505109244058BE0CBC3873039F48A
:1012B000809142078111C4C30E94C405C4C3893010
:1012C00019F40E94B82BBFC3833031F489E08093B6
:1012D0002C050E94542AB7C396EF980F923008F459
:1012E000AFC38E3009F4ACC38D3009F0A9C3E4CF8D
:1012F00080912C05813009F01CC380913F0782301A
:1013000009F095C0E0914405F0914505EA30F105FA
:1013100008F087C0EA5AFF4F0C94C63281E08093F0
:101320003F0788E290E09093450580934405109232
:10133000D70480E289831A82CE0101960E945E2A38
:1013400080912B05882349F18FEF9FEF90935305F0
:101350008093520510910B016AE070E080E090E00C
:101360000E94A3211123B1F318C0109242070E94DA
:10137000B82B57C08DE029C081E090912B059111C9
:1013800080E080932B054AE064E00E941F2A809150
:101390001C0190911D010E94A12A10922C0541C0B0
:1013A00081E090912F07911180E080932F070E9498
:1013B000B1284DE065E080912F070E941F2A80919F
:1013C0001E0190911F01E7CF8EE080932C0529C06C
:1013D00080E1FBCF8FE0F9CF8CE0F7CF81E0809305
:1013E00042070E94D52880932D058F3FB1F01092BF
:1013F00009051092E9046BED72E083E497E00E9426
:101400006A3483E497E00E945E2A809183078F5FAD
:10141000809383070E94D82B04C087EE92E00E943D
:101420005E2A80912C05813009F00DC3DEC2833025
:1014300009F442CF873009F050C01092D704809150
:101440004405909145058230910541F144F400979F
:10145000D9F0019709F0F7C268E285E024C0833033
:101460009105F9F0049709F0EEC286E080933F07FA
:1014700009EE14E099E0E92E95E0F92E2DE5822E93
:10148000912CA12CB12C12C080914207882319F015
:1014900068E288E008C080EF92E0A5C268E286E0DA
:1014A00002C06EE184E00E94022CCDC20E94C131D4
:1014B000A50194010E946332DC01CB018196A11D3C
:1014C000B11DF80181938F0110920805EE16FF06F9
:1014D00069F70E94542A84E0B4C2883021F460E0A5
:1014E00083E497E011C0853021F460E089E095E065
:1014F0000BC0863021F461E089EE94E005C08430B1
:1015000031F460E080E497E00E94762C9CC2893040
:1015100009F0AEC04FEF60E08AEA0E94FB2910920A
:101520002C05E0914405F0914505E730F10508F000
:101530009CC0E05AFF4F0C94C63263E477E0809180
:101540002D050E94812980912D050E94701F80E247
:10155000E9E0F5E0DE01919601900D928A95E1F7C0
:1015600080912D050E948E1F80E2E9EEF4E0DE01FD
:10157000119601900D928A95E1F780912D05F0E882
:101580008F9FC001112421E042E060E477E0805A9F
:101590009F4F0E942E28809140078F3F11F4109298
:1015A000400780E011E0180FE1E2F0E0EC0FFD1FD2
:1015B000E80FF11D8081882369F0E0E2F0E0EC0F94
:1015C000FD1FE10FF11D60818FEA95E00E9469180F
:1015D000812FE8CF63E574E080E497E00E946134F6
:1015E000892B39F467E972E08FEA95E00E942911AE
:1015F0000AC063EB8FEA95E00E94FF1763EB8FEA66
:1016000095E00E94BD17789468EB7BE080E090E065
:101610000E94A321F894BE016F5F7F4F8FEA95E08F
:101620000E94291182E093E00AC00E94AC2A67E977
:1016300072E08FEA95E00E94291181E193E00E9417
:101640005E2A13C00E94D32A8FE193E0F8CF0E9454
:10165000AC2AF3CF0E94042B8DE293E0F0CF0E94DE
:10166000D82B03C082E180932C050E94152AEBC180
:10167000813079F58091D70490E0E0914405F091B4
:101680004505EC5CFE4F4081FC01E753FB4F408376
:101690009C012F5F3F4FF901E753FB4F10825091A0
:1016A0002F07FC01ED59F84F552311F0408302C07C
:1016B0008AE28083F901ED59F84F10820E94442A92
:1016C0008091D704803208F090C18F5F8093D70457
:1016D0008CC18A3061F4E0914405F0914505EE5CDF
:1016E000FE4F8081893509F0ABC180E00DC08B30A1
:1016F00071F4E0914405F0914505EE5CFE4F808168
:10170000893509F09DC181E00E94E12C99C18E309C
:1017100009F095C0E0914405F0914505EE5CFE4F5F
:101720008081893509F08CC180912A07811105C01B
:10173000809130078B3008F47FC11092830710929C
:101740002D0510922A05109229050E3039F0E02F50
:10175000F0E0E753FB4F10820F5FF7CF10922A079C
:101760008CE393E00E94A12A00E010E0FF24F394B0
:1017700017FD25C001110AC0FF2021F00E941A2A7E
:10178000F12C04C00E94102AFF24F3940E94152813
:101790002E9882E00E941028C8010E94252880E22D
:1017A000E82E8FEF0E941028EA94E110FACF2E9ACB
:1017B000005E1F4F0E941B2880FDFCCFD9CF0E94E6
:1017C000102AFF24F39400E010E0C8018F739927DA
:1017D000892B51F4FF2021F00E941A2AF12C04C019
:1017E0000E94102AFF24F3946FEFC8010E94553223
:1017F0000F5F1F4F011524E0120739F70E94102ACE
:1018000061E08FEF9FE70E94EF180E94102A10926C
:1018100030070E94B72881E080932F070E94B128EB
:101820004DE065E080912F070E941F2A1092430728
:101830001092E904109209058CE493E0FFC08D300A
:1018400009F001C1E0914405F0914505EE5CFE4FC1
:101850008081893509F035CDF0902D058BE693E038
:101860000E945E2A80E8F89E80011124C8018E59EA
:101870009F4F0E945F28E82E8F2D0E94CD28D82EE2
:10188000EFEFEE1629F0682F8E2D0E94C52802C0BA
:1018900080932A05FFEFDF1629F06E2D8D2D0E9413
:1018A000BD2802C0E09229056FEF8F2D0E94C52848
:1018B0006FEF8F2D0E94BD28FE013196BE016F5D36
:1018C0007F4F7F0111926E177F07E1F78FEF89A39A
:1018D0001AA222961FAE229740E2C8010E949B28BE
:1018E00040E2BE016F5B7F4FC80180960E949B283B
:1018F00040E2B701C801805C9F4F0E949B28109274
:10190000430780E2F701A9EEB4E001900D928A95B9
:10191000E1F7109209058091830781508093830736
:1019200080912A0580932D0589E793E00E945E2A25
:10193000C8CC80912C058E3019F48AE090E014C058
:1019400080912C058F3019F48BE090E00DC08091D0
:101950002C058C3019F48EE090E006C080912C05A7
:10196000823129F48DE090E00E94EA056CC08091FC
:101970002C058031E9F586E893E00E945E2A4FEF5E
:1019800060E08AEA0E94FB2980912A0580932D0558
:1019900080912D058F3F19F10E94042B67E972E0B9
:1019A0008FEA95E00E9429110E94D32A67E972E02C
:1019B0008FEA95E00E9429110E94AC2A67E972E043
:1019C0008FEA95E00E94291167E972E08FEA95E0BD
:1019D0000E94291180912D050E94CD28D7CF0E9409
:1019E000152A85E993E00E945E2A10922C052BC0EF
:1019F00080912C058D3039F580912A078823E1F0FC
:101A000081EA93E00E945E2A1092450510924405F7
:101A100010922D051E3039F0E12FF0E0E753FB4F17
:101A200010821F5FF7CF10922A07109230070E9492
:101A3000B7280E94102A04C08DE593E00E945E2A18
:101A400089E080932C05C25BDF4F0FB6F894DEBFB0
:101A50000FBECDBFDF91CF911F910F91FF90EF90FF
:101A6000DF90BF90AF909F908F907F906F905F902E
:101A70004F9008954091E6045091E7042091E404CA
:101A80003091E50442175307B4F49091E800957043
:101A9000E1F39091E80092FD19C08093F1008091EC
:101AA000E6049091E70401968F739927892B19F426
:101AB0008EEF8093E8008091E6049091E704019610
:101AC0009093E7048093E60481E0089580E0089510
:101AD0002FB7F89487708093E9009091E800892FE0
:101AE000807295FF04C09091F20080E4891B2FBFA3
:101AF0000895615030F02091F100FC01208301969F
:101B0000F8CF289A84E680932E050895CF92DF922D
:101B1000EF92FF920F931F93CF93DF936C017A01A3
:101B20008B01C0E0D0E0CE15DF0581F0D8016D91CA
:101B30008D01D601ED91FC910190F081E02DC6015F
:101B40000995892B11F02196EECF7E01C701DF9117
:101B5000CF911F910F91FF90EF90DF90CF9008955C
:101B6000CF93DF931F92CDB7DEB76983DC01ED9190
:101B7000FC910280F381E02D41E050E0BE016F5FF7
:101B80007F4F09950F90DF91CF91089583E0809367
:101B9000E9008091F200882319F08AE38093E8003D
:101BA000089583E00E94680D90E00895FC0184850B
:101BB000958597FD0BC09FB7F89482E08093E9006C
:101BC0008091F2009FBF90E0019608959FB7F8942E
:101BD00082E08093E9008091F2009FBF90E0089539
:101BE0000F931F93CF93DF931F92CDB7DEB78C0176
:101BF000FC018485958597FF0EC0CE0101960E9459
:101C00004819019719F4898190E002C08FEF9FEF86
:101C1000F80195878487F801848595850F90DF9179
:101C2000CF911F910F910895CF93DF931F92CDB75E
:101C3000DEB7FC018485958597FD05C02FEF3FEF4A
:101C4000358724870BC0CE0101960E944819019761
:101C500019F4898190E002C08FEF9FEF0F90DF9120
:101C6000CF9108952F923F924F925F926F927F9201
:101C70008F929F92AF92BF92CF92DF92EF92FF929C
:101C80000F931F93CF93DF93CDB7DEB729970FB68E
:101C9000F894DEBF0FBECDBFDC011D962D913C91A7
:101CA0001E972115310509F459C199878887F901D3
:101CB0003296449031967491E72EF12CB7E0EB0EFA
:101CC000F11C93E0F594E7949A95E1F7EA82319656
:101CD000A4913196E4916A1758F0462F50E08E2F68
:101CE00090E0FC01EA0FF11D4E175F070CF46AC08B
:101CF0006D3031F460E0888599850E940B2431C1F4
:101D00006A3009F02BC160E0888599850E940B2418
:101D1000E885F98500890E9DE02C11242781269500
:101D20002695269565816E0D8E2D821B860F9485D6
:101D3000992309F40EC118160CF00BC1A885B985BA
:101D40001B969C911B97890F87701B968C931B97F2
:101D50002E1915962C9315971D96ED91FC911E97B3
:101D6000309769F03396E491F0E0379683E0F5958B
:101D7000E7958A95E1F70E9FE02D112401C0E0E080
:101D80000FEF020F0E0FE885F985468141506481FF
:101D9000CF010E942A24A885B9851C968C911C9796
:101DA000813009F0DEC01B966C911B97660F660FA1
:101DB000660F6F731A966C931A976064CD010E9438
:101DC000F323CFC0A9014A5F5F4F6A1BA885B9857D
:101DD0001996FC9119975096EC91FE9FE02D1124D5
:101DE000EF83F901A4913196249130E03A2B22300F
:101DF000310570F44E9CC0014F9C900D1124689FDA
:101E00008001699F100D1124040F151F312C22C071
:101E1000777021F028E0322E371A01C0312CFA01F8
:101E200020E0A0E0B0E0261731F03491A30FB11DFF
:101E30002F5F3196F8CFFA01E20FF11D4490EA9E30
:101E40008001EB9E100DFA9E100D1124080F191F32
:101E5000040F151FA885B9851496BC91BB83E8852E
:101E6000F985F581FC83842D90E09E838D83812C00
:101E7000912CC12CD12CC9829A81C91608F068C056
:101E8000212C3601BFEF6B1A7B0AE885F985808922
:101E9000281608F055C0F981F11102C0222079F00E
:101EA000A885B9851596BC901597B3946B81CD0123
:101EB0000E940B246B2D888599850E94FB23A12C01
:101EC000B12CA41410F0B12C2FC0F401EA0DFB1DAD
:101ED000E00FF11F5490332061F0E614F70449F449
:101EE000E52DF0E0032C02C0F595E7950A94E2F7A2
:101EF0005E2EE885F9858089823069F4E52D211010
:101F0000E295EF70F0E0E65FFE4F5490652D888516
:101F100099850E94DC23652D888599850E94DC23A4
:101F2000FFEFAF1ABF0ACDCF8F81B81639F060E04E
:101F3000888599850E94DC23B394F6CF2394A5CF9E
:101F40009FEFC91AD90AAD81BE818A0E9B1E93CF1D
:101F50006C81888599850E94FB2303C080E090E016
:101F600002C081E090E029960FB6F894DEBF0FBE64
:101F7000CDBFDF91CF911F910F91FF90EF90DF9038
:101F8000CF90BF90AF909F908F907F906F905F9019
:101F90004F903F902F9008951F920F920FB60F927F
:101FA00011248F939F938091E1009091E100937FA2
:101FB0009093E10083FF0FC01092E90091E09093AD
:101FC000EB001092EC0092E39093ED0010922F053D
:101FD00098E09093F00082FF20C093E09093E90096
:101FE0009091F200992319F09AE39093E800909170
:101FF000E804992339F09091E80491509093E80413
:10200000992389F190912E05992339F090912E050D
:10201000915090932E05992341F184FF10C0809137
:10202000E2008E7E81608093E2008091E1008F7EED
:102030008093E100809128078E7E806111C080FF2F
:1020400016C08091E2008E7E80618093E2008091D4
:10205000E1008E7E8093E100809128078E7E816072
:102060008093280704C05D98CDCF2898D6CF9F9144
:102070008F910F900FBE0F901F901895DF92EF92E7
:10208000FF920F931F93CF93DF93D82E8A017B018A
:10209000E40EF51EEB01CE15DF0571F0D7FE03C08F
:1020A000FE01849101C088810E943A0D2196811120
:1020B000F2CF8FEF9FEF01C0C801DF91CF911F9149
:1020C0000F91FF90EF90DF9008957F928F929F92F3
:1020D000AF92BF92CF92DF92EF92FF920F931F9336
:1020E000CF93DF93C82E8B017A0180912F05811148
:1020F00003C08FEF9FEF74C08091280780FF05C059
:102100008091E00082608093E000CE2DDF2DD12C05
:102110008AEFB82E8C2D8770982E8C2D8072882E89
:102120008C2D8074782E9AE3A92E209719F4DD2047
:1021300009F451C08C2D0E94680D81110AC0BA9417
:10214000BB20B9F261E070E080E090E00E94A32142
:10215000ECCF282F30E0C217D3070CF48C2F9FB799
:10216000F8949092E9002091E80025FF32C0282FD2
:1021700030E0C21BD30B882029F08150A0F01092D0
:10218000F100FBCFF801C7FE0AC0815050F0449126
:102190004093F1003196F9CF41914093F100815085
:1021A000D8F7020F131FDD2019F0A092E8000AC033
:1021B0008091E80085FD08C0A092E800DD24D3945A
:1021C000209739F0D12C05C0209719F47110A092F6
:1021D000E8009FBFAACF5D9A84E68093E804C70118
:1021E000DF91CF911F910F91FF90EF90DF90CF90F3
:1021F000BF90AF909F908F907F900895CF93DF9383
:10220000EC0180910B01882331F083E00E9465107E
:102210001816190634F081E090E09B838A8380E0F1
:1022200090E0DF91CF9108956115710579F0FB0180
:1022300001900020E9F73197AF01461B570BDC01F5
:10224000ED91FC910280F381E02D099480E090E013
:1022500008950F931F93CF93DF93EC010E94141105
:102260008C0165E972E0CE010E941411800F911F6C
:10227000DF91CF911F910F9108958091DC0481111E
:102280000DC082E08093D80484E08093D90410923A
:10229000DB041092DA0481E08093DC0488ED94E0A2
:1022A00008950F931F93CF93DF931F92CDB7DEB79F
:1022B00082E0898342E450E06AE171E080E80E94B4
:1022C0003E100E943D11DC0112960D911C91139756
:1022D0000115110589F0D801ED91FC910280F3817F
:1022E000E02DBE016F5F7F4FC801099597FD04C0C7
:1022F000F80100851185ECCF89810F90DF91CF9196
:102300001F910F9108951F920F920FB60F921124F3
:10231000CF92DF92EF92FF920F931F932F933F93F1
:102320004F935F936F937F938F939F93AF93BF93DD
:10233000EF93FF93CF93DF93CDB7DEB76C97DEBFFC
:10234000CDBF1092E9008091E80083FFEFC168E003
:10235000CE0145960E94790D82EF8093E8008D8929
:1023600087FF05C09091E80090FFFCCF03C09EEF6F
:102370009093E800982F907609F0C6C09E894F8907
:10238000588D2F89F88C91110CC0803829F48091D8
:1023900029078093F10002C01092F1001092F10021
:1023A000BEC1913051F48111BAC14130510509F0DB
:1023B000B6C1809129078D7F0BC0933061F48111E4
:1023C000AEC14130510509F0AAC180912907826050
:1023D00080932907A4C1953049F48091E80080FFDB
:1023E000FCCF822F80688093E30099C1963009F07A
:1023F0005EC00B8D1C8D22E01092E9001092E70464
:102400001092E604F21232C01092E5041092E40435
:102410000E94511199E0BE016F5F7F4FDB01E92FF0
:102420001D92EA95E9F79983FA8291E09E8390EAFA
:1024300098879AEF99872091E6043091E704275F07
:102440003F4F3C832B838D831092E9001092E70469
:102450001092E6041093E5040093E40449E050E090
:1024600080E00E943E100E94511159C11093E50472
:102470000093E4040E943D11DC0112960D911C9121
:1024800013970115110509F4BFC0D801ED91FC9116
:102490000480F581E02DBE016B5E7F4FC801099578
:1024A000009709F0ACC0F80100851185EACF97309C
:1024B00009F439C1983021F481E08093F1002FC1F3
:1024C000993009F02CC1837009F02DC1EDE0F1E0E5
:1024D00081E031E096E32081211109C08EE78093ED
:1024E000EA001092EA008F8980932F0518C180932B
:1024F000E9003093EB0021912093EC009093ED00E4
:102500008F5F873041F7EACF8B8D9C8D1092E90069
:102510001092E7041092E6049093E5048093E4049B
:10252000898D811150C08E899D89913A49F48132FB
:1025300009F0F9C047E050E064E071E080E0B8C025
:10254000913209F0F0C0833269F48F89988DA0E050
:10255000B0E08093000190930101A0930201B09339
:102560000301DDC0803269F48091E80082FFFCCF76
:1025700067E084E091E00E94790D8BEF8093E800A2
:1025800006C0823209F0CBC08F8980930B01809105
:102590002707811103C0E0E0F8E002C0EEEFFAE0A7
:1025A0008091040190910501A0910601B09107016D
:1025B000803B9440A105B10509F07DC080910B01DD
:1025C00080FF95C078C00E943D11DC0112960D91EC
:1025D0001C9113970115110509F4A5C0D801ED91BF
:1025E000FC910190F081E02DBE016B5E7F4FC80130
:1025F0000995811194C0F80100851185EBCF18165B
:1026000019060CF48CC08FC0F1E0FF1609F447C026
:10261000F3E0FF1288C08F89882309F443C0823019
:1026200029F440E86DE08EE791E006C0813051F476
:1026300040E86BE082E791E00E94AC2C882309F42B
:1026400072C06DC0833009F06EC00E943D11DC0184
:102650001296ED90FC9013978E010F5F1F4F68014B
:10266000E114F10479F0D701ED91FC910680F78136
:10267000E02DB801C7010995080F111DF701E0848D
:10268000F184EECFD8011C92F60101900020E9F709
:102690003197BF016C197D0940E0C601CDCF60E6DE
:1026A00071E002C06CE571E0FB01449150E080E80C
:1026B0000E943E1034C00FB6F894A8958091600037
:1026C000886180936000109260000FBEA895EE3F75
:1026D0002AE0F20739F08091FE0A9091FF0A918377
:1026E00080831DC01092FF0A1092FE0A18C0EE3FB0
:1026F0008AE0F80731F0808191819093FF0A8093FE
:10270000FE0A87E797E7918380839BE088E10FB615
:10271000F894A895809360000FBE909360008EEFB0
:102720008093E80003C081E28093EB006C960FB6C3
:10273000F894DEBF0FBECDBFDF91CF91FF91EF9137
:10274000BF91AF919F918F917F916F915F914F91C9
:102750003F912F911F910F91FF90EF90DF90CF90BD
:102760000F900FBE0F901F901895089580E190E094
:102770000895DC01FB0112968C91129790E0248160
:10278000358182179307D1F491818081813A31F4A8
:1027900081E0913091F0933089F411C0813271F46D
:1027A0009B3021F482811F968C9305C09A3031F4BE
:1027B000828150968C9381E00895089580E0089579
:1027C000DC01FB0188E4808389E4818384E48283E3
:1027D0001D969C911D979F709F5B93831D968D9175
:1027E0009C911E9724E0969587952A95E1F78F7026
:1027F0008F5B848385E00895FC0182818F5BFB0100
:10280000808381E00895CF92DF92EF92FF920F9341
:102810001F93CF93DF936C01EB017B01E40EF51E58
:1028200000E010E0CE15DF0581F069916D30D1F345
:10283000D601ED91FC910190F081E02DC601099542
:10284000892B19F00F5F1F4FEDCFC801DF91CF919A
:102850001F910F91FF90EF90DF90CF900895CF934D
:10286000DF93EC0160E170E042960E94E52460E1B4
:1028700070E0CE010296DF91CF910C94E52460E1E7
:1028800070E002960C94E5247F928F929F92AF9213
:10289000BF92CF92DF92EF92FF920F931F93CF934D
:1028A000DF93CDB7DEB7E4970FB6F894DEBF0FBE67
:1028B000CDBF962EE72E20E1FC017296DE01119627
:1028C00001900D922A95E1F7BA01CE0101966C01B3
:1028D000FE017196AF017E2E8F2EDB013D91BD0171
:1028E000DC012D91CD0123272193A417B507A9F76A
:1028F000672D782DCE0181960E94FC2629858D8535
:1029000082278D879A858E8589278E878B853F853F
:1029100038273F874C8538893427388B3D812327DA
:1029200029872E8192279A879F8189278B8788857F
:1029300048274C87498134273D833A8123272E83BA
:102940002B8192279F839C81892788878E010F5C2A
:102950001F4F4AE0BE01635F7F4FC8010E9493256D
:10296000998189A9892789839A818AA989278A8354
:102970009B818BA989278B839C818CA989278C8338
:1029800089E0F82ECE0181965C01FC01DE011196F2
:102990008D91908189278193E017F107C9F7BE01D6
:1029A0006F5D7F4F872D982D0E94BD25BE016B5D09
:1029B0007F4FCE0145960E94BD25BE01675D7F4FCA
:1029C000CE0149960E94BD25BE01635D7F4FCE01B9
:1029D0004D960E94BD25672D782DCE0181960E94CF
:1029E000FC2629858D8582278D879A858E85892766
:1029F0008E878B853F8538273F874C8538893427DC
:102A0000388B3D81232729872E8192279A879F81A2
:102A100089278B87888548274C87498134273D83C0
:102A20003A8123272E832B8192279F839C8189279C
:102A300088874F2DBE01635F7F4FC8010E94932599
:102A4000998189A9892789839A818AA989278A8373
:102A50009B818BA989278B839C818CA989278C8357
:102A6000FA94F1108FCFE92DFE2DD5019D915D01D6
:102A7000D6018D916D0189278193A016B106A9F722
:102A8000E4960FB6F894DEBF0FBECDBFDF91CF91B5
:102A90001F910F91FF90EF90DF90CF90BF90AF907C
:102AA0009F908F907F9008954031510551F4DC0143
:102AB000129680E1FB0101900D928A95E1F781E089
:102AC000089580E00895CF92DF92EF92FF920F93E6
:102AD0001F93CF93DF9300D000D0CDB7DEB78C012A
:102AE0007B010E945415C82E882309F44DC080E153
:102AF000F701D801529601900D928A95E1F7DD24F5
:102B0000D39478018EE1E80EF11C4D2DB701CE0172
:102B100001960E949325F801428989814827428BBA
:102B200033898A813827338B24898B812827248B0A
:102B300095898C818927858B96894927468B97892A
:102B40003927378B908D2927208F918D8927818F69
:102B5000928D4927428F938D3927338F948D292762
:102B6000248F958D8927858F968D4927468F978D40
:102B70003927378F90A1292720A391A1892781A3E5
:102B8000D394FBE0DF12C1CF8C2D0F900F900F90EC
:102B90000F90DF91CF911F910F91FF90EF90DF90F9
:102BA000CF9008957F928F929F92AF92BF92CF92D3
:102BB000DF92EF92FF920F931F93CF93DF93CDB7E6
:102BC000DEB7E4970FB6F894DEBF0FBECDBF5B0152
:102BD00020E1FC013296DE01119601900D922A95BA
:102BE000E1F7BA01CE0101966C017E0191E1E90E97
:102BF000F11C9701D601FB019191BF018D918927AD
:102C0000F90181939F01AE15BF05A9F7772473944D
:102C10004E01F1E28F0E911C472DBE01635F7F4F85
:102C2000CE01C1960E949325498189A948274983ED
:102C30003A818AA938273A832B818BA928272B83AD
:102C40009C818CA989278C839D8149274D839E81F6
:102C500039273E839F8129272F8398858927888755
:102C60009985492749879A8539273A879B85292756
:102C70002B879C8589278C879D8549274D879E8535
:102C800039273E879F8529272F8798898927888B11
:102C9000B701C4010E948027B401C7010E94B42675
:102CA000BE016B5D7F4FCE0145960E94B426BE01EA
:102CB000675D7F4FCE0149960E94B426BE01635DD9
:102CC0007F4FCE014D960E94B4268701FE013196BA
:102CD0008191D8019C9189278D938D01A815B90503
:102CE000B9F77394BAE07B1297CF4AE0BE01635FF5
:102CF0007F4FCE01C1960E949325498189A948271B
:102D000049833A818AA938273A832B818BA92827BE
:102D10002B839C818CA989278C839D8149274D8396
:102D20009E8139273E839F8129272F839885892774
:102D300088879985492749879A8539273A879B85C6
:102D400029272B879C8589278C879D8549274D8737
:102D50009E8539273E879F8529272F879889892730
:102D6000888BB701C8010E948027F801A5019E0148
:102D70002F5C3F4F9191D6018D916D018927DA012A
:102D80008D93AD01E217F307A9F7E4960FB6F89417
:102D9000DEBF0FBECDBFDF91CF911F910F91FF908E
:102DA000EF90DF90CF90BF90AF909F908F907F90EB
:102DB0000895EF92FF920F931F93CF93DF93FB0140
:102DC0002081213851F52381223239F5DC01129618
:102DD0002C9130E04481558142175307F1F4EC0106
:102DE0000B851C85E12CF12C0115110591F0F801E2
:102DF000448155816281738180E80E943E108F3F3B
:102E0000FFEF9F0769F0E80EF91ED8010D911C91A4
:102E1000EBCF81E08F87C70105C080E090E002C062
:102E20008FEF9FEFDF91CF911F910F91FF90EF9068
:102E30000895CF93DF93CDB7DEB769970FB6F894B7
:102E4000DEBF0FBECDBFFC01DB018C918F5F8C9389
:102E5000BE016F5F7F4F89E1DB011D928A95E9F723
:102E600029E0298384E08A8391E09D8383E08E8337
:102E70002A8721E22B879C879D879F8722E2288BC8
:102E800027E02B8B25E02C8B8E8B20E430E0388FD5
:102E90002F8B998F82818B8395858685998B8A8BE1
:102EA000838180688D8B49E150E080E00E943E1074
:102EB00069960FB6F894DEBF0FBECDBFDF91CF91FC
:102EC00008950F931F93CF93DF931F92CDB7DEB773
:102ED0008B018091A705811105C00E941F1E81E012
:102EE0008093A70582E0898341E050E0BE016F5FD7
:102EF0007F4F809199050E94651097FD08C08091D1
:102F0000990548E050E0B80180640E9465100F9078
:102F1000DF91CF911F910F9108952EEF31E0FC01C9
:102F200021933193CF0160E170E00C94E524CF93BD
:102F3000DF93EC010E948D17CE01DF91CF910C94AD
:102F4000AB33CF93DF93EC0182E192E099838883E6
:102F500060E170E0CE0142960E94E524CE01DF914F
:102F6000CF910C948D17CF93DF93EC010E94A117A2
:102F7000CE01DF91CF910C94AB33DC01683810F0B7
:102F8000685825C0E62FF0E067FF12C0E058F1094D
:102F900081E090E001C0880FEA95EAF780951496E9
:102FA0009C911497892314968C93149760E00FC01A
:102FB000E457FE4F64916623F9F067FF08C014964A
:102FC0008C9114978D7F14968C9314976F77FD01D5
:102FD00086E0662321F09681691301C01682815034
:102FE00031968111F6CFCD01BD016C5F7F4F0E94FC
:102FF000611781E090E0089580E090E00895DC01A1
:10300000683810F068582DC0E62FF0E067FF11C057
:10301000E058F10981E090E001C0880FEA95EAF7F5
:1030200014969C911497892B14968C93149760E0B6
:1030300018C0E457FE4F6491611109C081E090E02F
:1030400013969C938E93129780E090E0089567FF0B
:1030500008C014968C911497826014968C931497E0
:103060006F7716968C911697681751F117968C9179
:103070001797681729F118968C911897681701F11E
:1030800019968C9119976817D9F01A968C911A97FE
:103090006817B1F01B968C911B97681789F0FD019A
:1030A000369680E090E02191211105C0FD01E80FE6
:1030B000F91F668305C0019686309105A1F7BECF42
:1030C000CD01BD016C5F7F4F0E94611781E090E0F0
:1030D0000895EF92FF921F93CF93DF93EC01162F89
:1030E0000E94FF177C01612FCE010E94BD17C7010E
:1030F0009927DF91CF911F91FF90EF900895AF92A4
:10310000BF92CF92DF92FF920F931F93CF93DF93E3
:103110006C01C62F789486E495E00E94D60DC817FE
:1031200008F48C2F882331F1F12CC82FD0E05E01F8
:1031300081E0A81AB1088F2D90E08A159B055CF4F8
:103140008601080F191F86E495E00E94140EF8010D
:103150008083F394F0CFCC0DDD1D2197188286E497
:1031600095E00E94D60D892B29F086E495E00E9417
:10317000140EF5CFF894DF91CF911F910F91FF902E
:10318000DF90CF90BF90AF900895FF920F931F9361
:10319000CF93DF93EC01F62E072F142F0E941528F2
:1031A0002E9882E00E941028CE010E942528CF2D63
:1031B000D02FCE01810F911D8C01C017D10721F0B6
:1031C00089910E941028F9CF2E9A0E941B2880FD19
:1031D000FCCFDF91CF911F910F91FF9008950F9336
:1031E0001F93CF938C01C62F0E9415282E9882E042
:1031F0000E941028C8010E9425288C2F0E941028A8
:103200002E9A0E941B2880FDFCCFCF911F910F9119
:1032100008950F93CF93DF93EC011B861A8660E429
:103220000E94F3230F8106950695069501504E8165
:10323000415020E060E0CE010E942A24DF91CF912E
:103240000F910895809144059091450597FD0AC01E
:10325000FC01FF27EE0FFF1FE05DFA4F8081918197
:103260000C94A12A089580914405909145052091E0
:10327000130130E08217930754F4FC01FF27EE0F8F
:10328000FF1FE05DFA4F808191810C94A12A08957F
:1032900020912F05211103C08FEF9FEF08955FB795
:1032A000F89422E02093E9002091F20030E0121619
:1032B000130614F421E030E0422FFC0184E6415073
:1032C00038F0289A80932E059091F1009193F7CFD2
:1032D0002115310521F08091F200882319F05FBF9C
:1032E000C90108958BE68093E800F9CF2F923F92B1
:1032F0004F925F926F927F928F929F92AF92BF9206
:10330000CF92DF92EF92FF920F931F93CF93DF93B1
:10331000CDB7DEB7CA54D1090FB6F894DEBF0FBEE1
:10332000CDBF1C018C010E5D1F4F27961FAF0EAF46
:1033300027979C012E593F4F38A32F8FF8016081AA
:103340007181828193810E94CC32619371938193C8
:1033500091934F8D58A14E175F0789F7D1011296AF
:103360008D919D910D90BC91A02D89A39AA3ABA3A3
:10337000BCA3D10116968D909D90AD90BC901997ED
:103380008DA29EA2AFA2B8A61A968D909D90AD90E8
:10339000BC901D9789A69AA6ABA6BCA61E968D903A
:1033A0009D90AD90BC9051978DA69EA6AFA6B8AA51
:1033B00052968D909D90AD90BC90559789AA9AAAEF
:1033C000ABAABCAA56968D909D90AD90BC90599793
:1033D0008DAA9EAAAFAAB8AE5A968D909D90AD9038
:1033E000BC905D9789AE9AAEABAEBCAE5E968D904A
:1033F0009D90AD90BC90919721968CAE9DAEAEAE57
:10340000BFAE219707E712E01E8B0D8B2DA53EA5C1
:103410004FA558A925962CAF3DAF4EAF5FAF25976E
:1034200089A59AA5ABA5BCA58F8B988FA98FBA8FBC
:103430008DA09EA0AFA0B8A489869A86AB86BC86D4
:10344000A9A0BAA0CBA0DCA0A982BA82CB82DC82E0
:10345000C9ACDAACEBACFCACCB8EDC8EED8EFE8E68
:10346000EDA8FEA80FA918ADE98AFA8A0B8B1C8B70
:1034700009A91AA92BA93CA90D831E832F8338877C
:1034800021964CAC5DAC6EAC7FAC2197ED89FE898A
:1034900005911591259134910D871E872F87388BC3
:1034A0002796AEADBFAD27970D911D912D913D9102
:1034B0002796BFAFAEAF2797CD80DE80EF80F88430
:1034C000BE2DEF2CFC2CCD2CDB2EB701A601440F1A
:1034D000551F661F771F411D440F551F661F771F1D
:1034E000411D8D809E80AF80B884E82D8B2CBA2C36
:1034F000A92C9E2E80FAB794A79497948794B7F836
:1035000084269526A626B726B701A60140FB779507
:1035100067955795479577F940FB77956795579548
:10352000479577F940FB779567955795479577F9D4
:10353000482559256A257B258D809E80AF80B884DB
:1035400080949094A094B094CB8CDC8CED8CFE8C09
:103550008C209D20AE20BF20CD80DE80EF80F884BF
:1035600089899A89AB89BC89C822D922EA22FB229F
:10357000C824D924EA24FB248D849E84AF84B8888F
:10358000080D191D2A1D3B1DC00ED11EE21EF31E83
:10359000C40ED51EE61EF71E4C0C5D1C6E1C7F1C57
:1035A00089819A81AB81BC81982E8B2FBA2FA92F4C
:1035B000992D880F991FAA1FBB1F811D8C019D018A
:1035C000000F111F221F331F011D49815A816B817A
:1035D0007C8140FB779567955795479577F940FB38
:1035E000779567955795479577F9D901C80184274D
:1035F0009527A627B72749815A816B817C815A017B
:10360000AB01B501440F551F661F771F411D440FC5
:10361000551F661F771F411D8A019B01000F111F57
:10362000221F331F011DAC01BD0140275127622716
:1036300073278F89988DA98DBA8DC984DA84EB841C
:10364000FC848C259D25AE25BF25E980FA800B8161
:103650001C818E219F21A023B12309851A852B85EA
:103660003C858F88988CA98CBA8C082119212A2135
:103670003B2180279127A227B327840F951FA61FE0
:10368000B71F2596ACACBDACCEACDFAC2597A40C77
:10369000B51CC61CD71CAD86BE86CF86D88A840DC5
:1036A000951DA61DB71D0D891E890C5F1F4F1E8B12
:1036B0000D8B4B8C5C8C6D8C7E8C2F89388D498D5D
:1036C0005A8D25962CAF3DAF4EAF5FAF25974F8DEE
:1036D00058A127968EAC9FAC27974815590569F1DC
:1036E00029853A854B855C852F8B388F498F5A8F7A
:1036F00089809A80AB80BC8089869A86AB86BC869E
:1037000089839A83AB83BC83A988BA88CB88DC88F9
:10371000AB8EBC8ECD8EDE8ECD80DE80EF80F884C9
:10372000C98ADA8AEB8AFC8AED84FE840F851889BF
:10373000ED82FE820F831887A9CE07EB12E01E8B65
:103740000D8B21E030E023963FAF2EAF23972396D9
:10375000EEADFFAD2397EF70FF273896EE0FFF1FFA
:10376000EE0FFF1FE20DF31D0281138124813581CD
:103770002396EEADFFAD23973D96EF70FF27389669
:10378000EE0FFF1FEE0FFF1FE20DF31D82809380EF
:10379000A480B58022964FAD2297415F4F704F8F26
:1037A00074016501C0FAF794E794D794C794F7F8C9
:1037B000702F412F522F632F440F551F661F771F05
:1037C000411D28013901E3E07694679457944794AA
:1037D000EA95D1F74426552666267726A801890161
:1037E0009A0100FB379527951795079537F900FB48
:1037F000379527951795079537F90425152526251B
:1038000037252396EEADFFAD23973896EF70FF274F
:103810003896EE0FFF1FEE0FFF1FA1014E0F5F1F27
:10382000B101FF8DE4E0FE9F600D711D1124FB01CD
:10383000B096F8A3EF8FFA014280538064807580C0
:10384000EF8DF8A14281538164817581440D551D2E
:10385000661D771D040F151F261F371F2601370110
:1038600040FA779467945794479477F840FA77949E
:1038700067945794479477F85AE0B694A79497942E
:1038800087945A95D1F78C249D24AE24BF24842498
:103890009524A624B724B901A801480D591D6A1D15
:1038A0007B1D4283538364837583ED89FE898590F4
:1038B0009590A590B4902B968CAE9DAEAEAEBFAE5B
:1038C0002B97CD84DE84EF84F8889E2CEF2CFC2C83
:1038D000CD2CD92C26013701440C551C661C771CB5
:1038E000411C440C551C661C771C411C0D851E8513
:1038F0002F853889A02E032F322F212F1A2D00FB60
:10390000379527951795079537F904251525262509
:103910003725C0FAF794E794D794C794F7F8C0FA1C
:10392000F794E794D794C794F7F8C0FAF794E7941C
:10393000D794C794F7F80C251D252E253F254D84D7
:103940005E846F8478884094509460947094C988A1
:10395000DA88EB88FC884C205D206E207F20CD84A7
:10396000DE84EF84F8888D809E80AF80B884C82084
:10397000D920EA20FB20C424D524E624F7242B9662
:103980008CAC9DACAEACBFAC2B97C80CD91CEA1C60
:10399000FB1CC00ED11EE21EF31EC40ED51EE61E79
:1039A000F71E4B8D5C8D6D8D7E8D4C0D5D1D6E1DDE
:1039B0007F1D582E692E7A2E4B2E440C551C661CEA
:1039C000771C411C53014201880C991CAA1CBB1C8A
:1039D000811C6C017D01C0FAF794E794D794C794D9
:1039E000F7F8C0FAF794E794D794C794F7F824014E
:1039F00035014C245D246E247F247C016D01CC0CA8
:103A0000DD1CEE1CFF1CC11CCC0CDD1CEE1CFF1CC5
:103A1000C11C97018601000F111F221F331F011DBA
:103A200073016201C026D126E226F32609851A8594
:103A30002B853C8589809A80AB80BC800825192520
:103A40002A253B25082319232A233B23240135015A
:103A500089849A84AB84BC84482059206A207B20C6
:103A60004026512662267326C40CD51CE61CF71C82
:103A70008F88988CA98CBA8C840E951EA61EB71EB2
:103A8000C40ED51EE61EF71E23960EAD1FAD23975E
:103A90000F5F1F4F23961FAF0EAF23972D893E89CF
:103AA0002C5F3F4F3E8B2D8B09891A892B893C89CE
:103AB0000B8F1C8F2D8F3E8F29853A854B855C851A
:103AC0002F8B388F498F5A8F23964EAD5FAD23973A
:103AD0004133510519F109811A812B813C810987F4
:103AE0001A872B873C8789839A83AB83BC83D70152
:103AF000C6012D813E814F815885298B3A8B4B8B96
:103B00005C8BCD84DE84EF84F888CD82DE82EF8208
:103B1000F8868D869E86AF86B88A19CE09A11AA12D
:103B20002BA13CA1C00ED11EE21EF31EF101C282E8
:103B3000D382E482F582CDA0DEA0EFA0F8A48C0DA4
:103B40009D1DAE1DBF1D86839783A087B18789A564
:103B50009AA5ABA5BCA5C980DA80EB80FC808C0D52
:103B60009D1DAE1DBF1D82879387A487B5878DA538
:103B70009EA5AFA5B8A9C984DA84EB84FC848C0D1A
:103B80009D1DAE1DBF1D86879787A08BB18BC9A8D1
:103B9000DAA8EBA8FCA88C0C9D1CAE1CBF1C828A6A
:103BA000938AA48AB58A8DA99EA9AFA9B8AD8D8440
:103BB0009E84AF84B888880D991DAA1DBB1D868B75
:103BC000978BA08FB18F89AD9AADABADBCAD8D8019
:103BD0009E80AF80B884880D991DAA1DBB1D828F61
:103BE000938FA48FB58F21968CAD9DADAEADBFAD3B
:103BF000219789889A88AB88BC88880D991DAA1D51
:103C0000BB1D868F978FA0A3B1A3C65BDF4F0FB6F6
:103C1000F894DEBF0FBECDBFDF91CF911F910F9102
:103C2000FF90EF90DF90CF90BF90AF909F908F90DC
:103C30007F906F905F904F903F902F90089581E01C
:103C400080939A0580939B0520EA35E030939D058B
:103C500020939C0510929F0510929E0522EB31E067
:103C600030939705209396051092A2051092A10516
:103C70001092A4051092A3058093A5058093A60534
:103C800081EC8093A0050E943D11FC01218180916F
:103C90009A0590E0820F911D0897C4F5A281B38127
:103CA000109729F486E995E0938382830EC01896D5
:103CB0008D919C911997009711F0DC01F8CF86E95E
:103CC00095E019969C938E93189780818093980520
:103CD000818180939905908180919B05890F8083D4
:103CE00080E090919A05891788F4A0919C05B09185
:103CF0009D05A80FB11D9C91A181B0E0A45FBE4FAE
:103D00009C9391819F5F91838F5FEBCF0895BF92CA
:103D1000CF92DF92EF92FF920F931F93CF93DF9397
:103D2000CDB7DEB7C055D1090FB6F894DEBF0FBED0
:103D3000CDBF7C01C42ED22E80912B05882321F08B
:103D400060E2C7010E947F1890E081E0890FF701CF
:103D5000E90FF11D2081982F2111F7CF803230F427
:103D6000F701E80FF11D10828F5FF8CF80912D05CC
:103D70000E94FB0580E1F701DE01AF5BBF4F0190C0
:103D80000D928A95E1F780E1F7017096DE01919638
:103D900001900D928A95E1F7AE014F5B5F4FBA013A
:103DA00083E696E00E94D215AE014F5D5F4FBA01E7
:103DB00083E696E00E94D21580E1FE01EF5BFF4FA3
:103DC000DE01119601900D928A95E1F780E1FE01E6
:103DD000B196DE01519601900D928A95E1F740E28D
:103DE000BE016F5F7F4FC8010E949B28DD2009F450
:103DF0005DC000912D0510912A05111110C0809110
:103E0000290581110CC001110AC06FEF0E94BD2865
:103E10006FEF80E00E94C5280E94AB2847C020E8D1
:103E2000129FC00111248E599F4F0E945F28D82EE7
:103E3000BE016F5D7F4F812F0E9481291F3FA9F036
:103E400040E250E0B701CE0181960E94713497FFA5
:103E50000CC0812F0E94CD28B82EBE016F5D7F4F10
:103E60000E948129D12E1B2DE9CF80912A0518139C
:103E700004C000932A050E94AB281F3F11F4009351
:103E800029056D2D802F0E94BD28612F802F0E9453
:103E9000C5288FEFD81621F0602F8D2D0E94C528E0
:103EA0001F3F21F0602F812F0E94BD284C2D50E034
:103EB00050934505409344058BE080932C05C05BEF
:103EC000DF4F0FB6F894DEBF0FBECDBFDF91CF91AD
:103ED0001F910F91FF90EF90DF90CF90BF900895CA
:103EE000CF93C82F20E8829FC001112421E040E237
:103EF00069E075E080960E942E28809109058F3F29
:103F000021F410920905CF9108958C2F0E94FB0592
:103F100069E075E0CB01CF910C943729CF93C82F7E
:103F200020E8829FC001112421E040E269EE74E0A4
:103F3000805C9F4F0E942E288091E9048F3F21F4DE
:103F40001092E904CF9108958C2F0E94FB0569EE31
:103F500074E0CB01CF910C9437298F929F92AF924E
:103F6000BF92CF92DF92EF92FF920F93CF93DF93A6
:103F7000EC017B014A016901E881F9810680F78142
:103F8000E02D09955C01E881F9810084F185E02D3F
:103F9000CE010995AC14BD0430F0A601B401C701EF
:103FA0000E94463421C0E881F9810284F385E02D26
:103FB000A601B401CE010995E881F9810480F5815B
:103FC000E02DCE0109956C01E881F9810484F58525
:103FD000E02DAC01B701CE010995E881F98100849B
:103FE000F185E02DCE010995E701CC0DDD1DA50180
:103FF0004C195D09602F70E0CE010E944F34F7012B
:10400000CE17DF0721F0808180278193F9CFDF91E0
:10401000CF910F91FF90EF90DF90CF90BF90AF9036
:104020009F908F900895CF93DF93282F30E0F90170
:10403000E85AFD4F8491F901E75CFD4FD491F901F5
:10404000E65EFD4FC491CC2391F081110E94632064
:10405000EC2FF0E0EE0FFF1FE45FFD4FA591B49150
:10406000EC91ED2381E090E021F480E002C080E05B
:1040700090E0DF91CF9108953FB7F8948091360793
:1040800090913707A0913807B091390726B5A89BC2
:1040900005C02F3F19F00196A11DB11D3FBFBA2FDA
:1040A000A92F982F8827820F911DA11DB11DBC013A
:1040B000CD0142E0660F771F881F991F4A95D1F7FF
:1040C00008950E94343490E0FC013197EF30F105FF
:1040D000B0F5E959FF4F0C94C632809180008F777C
:1040E00003C0809180008F7D80938000089580912F
:1040F0008000877FF9CF84B58F7702C084B58F7D2C
:1041000084BD0895809190008F7707C080919000C2
:104110008F7D03C080919000877F809390000895E9
:104120008091C0008F7703C08091C0008F7D809305
:10413000C00008958091C200877F8093C2000895D7
:104140001F93CF93DF93282F30E0F901E85AFD4FFA
:104150008491F901E75CFD4FD491F901E65EFD4FD2
:10416000C491CC23C1F0162F81110E946320EC2F43
:10417000F0E0EE0FFF1FEB5BF74FA591B4919FB7F7
:10418000F894111104C08C91D095D82302C0EC9101
:10419000DE2BDC939FBFDF91CF911F910895CF93CA
:1041A000DF9390E0FC01E75CFD4F2491FC01E65EAB
:1041B000FD4F8491882361F190E0880F991FFC01E5
:1041C000E95CF74FC591D491FC01EB5BF74FA591EA
:1041D000B491611109C09FB7F8948881209582231A
:1041E0008883EC912E230BC0623061F49FB7F89462
:1041F0008881322F309583238883EC912E2B2C934A
:104200009FBF06C08FB7F894E8812E2B28838FBFFD
:10421000DF91CF9108951F93CF93DF93182FEB0178
:1042200061E00E94CF20209711F460E004C0CF3FEE
:10423000D10539F461E0812FDF91CF911F910C946A
:10424000A020E12FF0E0E85AFD4FE4918E2F90E09E
:10425000FC013197EF30F10508F06CC0EA58FF4FD0
:104260000C94C63284B5806884BDC7BD68C084B56F
:10427000806284BDC8BD63C08091800080688093E7
:104280008000D0938900C093880059C0809180003D
:10429000806280938000D0938B00C0938A004FC0CF
:1042A00080918000886080938000D0938D00C093BF
:1042B0008C0045C080919000806880939000D093DE
:1042C0009900C09398003BC08091900080628093D9
:1042D0009000D0939B00C0939A0031C080919000D1
:1042E000886080939000D0939D00C0939C0027C06D
:1042F0008091C00080688093C0008091C0008F7B57
:104300008093C000C093CF001AC08091C00080622B
:104310008093C000C093D00012C08091C20088601A
:104320008093C2008091C2008B7F8093C200C093B3
:10433000D20005C0C038D1050CF07CCF76CFDF911C
:10434000CF911F9108958F929F92AF92BF92CF927B
:10435000DF92EF92FF926B017C010E943C204B01A7
:104360005C01C114D104E104F104F1F00E943C208D
:10437000DC01CB0188199909AA09BB09883E934041
:10438000A105B10570F321E0C21AD108E108F108D6
:1043900088EE880E83E0981EA11CB11CC114D104C4
:1043A000E104F10419F7DDCFFF90EF90DF90CF909B
:1043B000BF90AF909F908F9008952FB7F894609121
:1043C00032077091330780913407909135072FBFE2
:1043D00008951F920F920FB60F9211242F933F93BF
:1043E0008F939F93AF93BF93809132079091330740
:1043F000A0913407B09135073091310723E0230FA6
:104400002D3720F40196A11DB11D05C026E8230F0C
:104410000296A11DB11D209331078093320790931E
:104420003307A0933407B0933507809136079091F6
:104430003707A0913807B09139070196A11DB11D2A
:104440008093360790933707A0933807B0933907C6
:10445000BF91AF919F918F913F912F910F900FBE80
:104460000F901F901895FC0187E696EEA9E0BAE63A
:1044700082839383A483B58385E89EEAA7E6BBEB9A
:1044800086839783A087B18782E793EFAEE6BCE38C
:1044900082879387A487B5878AE395EFAFE4B5EA6F
:1044A00086879787A08BB18B8FE792E5AEE0B1E569
:1044B000828B938BA48BB58B8CE898E6A5E0BBE947
:1044C000868B978BA08FB18F8BEA99EDA3E8BFE124
:1044D000828F938FA48FB58F89E19DECA0EEBBE511
:1044E000868F978FA0A3B1A3DF01A659BF4F1C925F
:1044F000EE59FF4F108211821282138214821582AC
:104500001682178208950F93CF93DF93EC019A01DF
:10451000829606E3AB01BC01CE010E94AD1FFE01F5
:10452000EE59FF4F20813181428153816481758131
:10453000868197813E5F4F4F5F4F6F4F7F4F8F4F09
:104540009F4F2083318342835383648375838683A3
:104550009783CE01DF91CF910F910C9476196F92D2
:104560007F928F929F92AF92BF92CF92DF92EF9203
:10457000FF920F931F93CF93DF934C013B01EA010E
:10458000FC01EE59FF4F9A0140E050E060E070E01E
:1045900080E090E003E00E94D332A080B180C2802E
:1045A000D380E480F580068117810E940A3320833E
:1045B0003183428353836483758386839783840125
:1045C00006591F4F80E4A82E740122E2E20EF11C6E
:1045D000209721F1F8018081BA2CB81A2B2D30E0F8
:1045E000C217D30708F4BC2ECB2CD12CA601B301E3
:1045F0009701280F311DC9010E944634F8018081BE
:104600008B0D8083CC19DD096C0C7D1C803401F787
:10461000C4010E947619F8011082DACFDF91CF91A0
:104620001F910F91FF90EF90DF90CF90BF90AF90D0
:104630009F908F907F906F9008954F925F926F92AE
:104640007F928F929F92AF92BF92CF92DF92EF9222
:10465000FF920F931F93CF93DF937C015B01942E06
:10466000852E6C0182E2C80ED11CF701E659FF4F7E
:104670002081822F90E0E701CE59DF4FD601A80FAD
:10468000B91F283308F058C020E82C93808190E0AF
:1046900047E350E0481B590B019660E070E08C0D39
:1046A0009D1D0E944F34688179818A819B810E947F
:1046B000CC322B013C01288139814A815B816C819C
:1046C0007D818E819F8100E20E94EE32C901DA0174
:1046D000F701E65AFF4F0B2F112722273327782F98
:1046E000662755274427042B152B262B372B492FBC
:1046F0005A2F6B2F7727442766277727402B512B7C
:10470000622B732BBA2FA92F982F882788279927D8
:10471000BB27842B952BA62BB72B80839183A28359
:10472000B38334964082518262827382C7010E94B1
:104730007619F701329618C020E82C93808190E01A
:104740004FE350E0481B590B019660E070E08C0D80
:104750009D1D0E944F34C7010E94761988E3F6011F
:1047600011928A95E9F79FCF619171918191919111
:104770000E94CC32648F758F868F978FCE16DF069E
:1047800099F7492D582D4132510510F040E250E083
:10479000B601C501DF91CF911F910F91FF90EF906E
:1047A000DF90CF90BF90AF909F908F907F906F9051
:1047B0005F904F900C944634CF93DF93EC019C8133
:1047C0008E81981768F48F856827E881F9810084C5
:1047D000F185E02D42E0CE0109958C818F5F8C83BD
:1047E000DF91CF910895DC01ED91FC910084F1857A
:1047F000E02D40E00994FC01878186958695869599
:10480000681740F465839385690F6770606BCF010B
:104810000C94F32308950F931F93CF93FC012681EB
:104820006217A0F4C62F8C0164839085C90F6C2F8A
:104830006F70CF010E94F3236C2F62956F706061DF
:10484000C801CF911F910F910C94F323CF911F9129
:104850000F910895CF92DF92EF92FF920F931F93E3
:10486000CF93DF93EC01F62EC42ED22E8F81869546
:1048700086958695081710F00FEF080F1D2D6F2DE8
:10488000CE01011788F00E940B24612FCE010E94F7
:10489000FB23EF2CCE1430F06F85CE010E94DC2379
:1048A000E394F8CF1F5FEBCF0E940B246D2DCE0158
:1048B000DF91CF911F910F91FF90EF90DF90CF90FC
:1048C0000C94FB2380E490E0089580E290E008954A
:1048D0001F920F920FB60F9211242F934F935F9355
:1048E0006F937F938F939F93AF93BF932091840097
:1048F00080913B0790913C07A0913D07B0913E0706
:10490000820F911DA11DB11D80933B0790933C0721
:10491000A0933D07B0933E0780913B0790913C07E1
:10492000A0913D07B0913E0740913B0750913C0755
:1049300060913D0770913E072AE0880F991FAA1FDA
:10494000BB1F2A95D1F7840F951FA61FB71F809311
:104950003B0790933C07A0933D07B0933E0780919F
:104960003B0790913C07A0913D07B0913E074091D5
:104970003B0750913C0760913D0770913E0726E050
:10498000B695A795979587952A95D1F7842795276A
:10499000A627B72780933B0790933C07A0933D073A
:1049A000B0933E0780913A078F5F80933A07BF919B
:1049B000AF919F918F917F916F915F914F912F91C7
:1049C0000F900FBE0F901F901895680F791F8617D4
:1049D000970721F0FC0110820196F9CF08956F929C
:1049E0007F928F929F92AF92BF92CF92DF92EF927F
:1049F000FF920F931F93CF93DF93CDB7DEB7A097AE
:104A00000FB6F894DEBF0FBECDBF7C014B013A015B
:104A100069015801DC01ED91FC910484F585E02DDC
:104A200040E250E0BE016F5F7F4F0995B7016E5DB8
:104A30007F4F0CE59301A401C7010E94AD1FF70150
:104A4000EE59FF4F2081318142815381648175810C
:104A5000868197813E5F4F4F5F4F6F4F7F4F8F4FE4
:104A60009F4F20833183428353836483758386837E
:104A70009783C7010E947619D701ED91FC910284BA
:104A8000F385E02D40E250E0BE016F5F7F4FC7012C
:104A90000995D701ED91FC910484F585E02DA501E0
:104AA000B601C701099560E270E0CE0101960E944F
:104AB000E524A0960FB6F894DEBF0FBECDBFDF9100
:104AC000CF911F910F91FF90EF90DF90CF90BF900B
:104AD000AF909F908F907F906F900895CF93DF93CA
:104AE000EC0169E670E002960E94E524E881F98114
:104AF0000084F185E02DCE01DF91CF9109942EE362
:104B000032E0FC0121933193CF0169E670E00C940F
:104B1000E524CF93DF93EC010E947F25CE01DF9146
:104B2000CF910C94AB33CF93DF93DC01EB01E981A0
:104B3000F0E0E25AF64F8491E42FF0E0ED5AF64FA0
:104B4000E491E827EC93EA81F0E0E25AF64FE49131
:104B50001196EC931197EB81F0E0E25AF64FE49155
:104B60001296EC931297E881F0E0E25AF64FE49146
:104B70001396EC93DF91CF9108952F923F924F922D
:104B80005F926F927F928F929F92AF92BF92CF92DD
:104B9000DF92EF92FF920F931F93CF93DF9300D09A
:104BA00000D0CDB7DEB78C01FB01508191818281AD
:104BB0004381252F30E03C832B83220F331F7BE181
:104BC000272E239E302C11243226A92FB0E09D01E0
:104BD000220F331F239EB02C1124B226482E512CB5
:104BE0009201220F331F239E902C11249226642FB2
:104BF00070E09B01220F331F239E202C11242226BC
:104C0000EB81FC81EE0FFF1FEE0FFF1FFA83E9839C
:104C10006D01CC0CDD1CCC0CDD1CED2CFF249701B0
:104C20002E5A3D4FF90180808C246201CC0CDD1C92
:104C3000CC0CDD1CED2CFF2497012E5A3D4FF901C1
:104C4000A080AC246B01CC0CDD1CCC0CDD1CED2C4D
:104C5000FF2497012E5A3D4FF901D080DC24EB80D0
:104C6000FC80F3E0EE0CFF1CFA95E1F72F2D3327C3
:104C70002E5A3D4FF901F081FE25FB833D0133E0C3
:104C8000660C771C3A95E1F7A72DBB27AE5ABD4FAE
:104C9000AC91A625F3E0440C551CFA95E1F7E52DFF
:104CA000FF27EE5AFD4FE0814E2623E0660F771F67
:104CB0002A95E1F7E72FFF27EE5AFD4FE0816E2797
:104CC00029813A81E32FFF27EE5AFD4F3081298158
:104CD00023273B812327392F382734273A253A27A2
:104CE0003425362733253B253227F8013083352FED
:104CF0003827342738253D25FB813F273A2734259F
:104D00003627B326B924F801B18295274927A4266E
:104D1000AA26A424A6269A24922429252283982709
:104D20009825C92ECD24FB81FC25AF274A26642572
:104D30006325262F2225F80123830F900F900F90D3
:104D40000F90DF91CF911F910F91FF90EF90DF9027
:104D5000CF90BF90AF909F908F907F906F905F901B
:104D60004F903F902F9008951F93CF93DF93FC01B6
:104D7000CB01DB011C9111967C9111971296BC918D
:104D8000EC01AB81812F90E0880F991FCBE1C99F87
:104D9000602D11246827472F50E0440F551FC59FF1
:104DA000802D112448272B2F30E0220F331FC39F63
:104DB000802D112428278A2F90E0880F991FC99FE2
:104DC000C02D11248C27972F9B279A27962794274D
:104DD0009083912F9B279A27492742274183712748
:104DE000A7272A27282722837B27762787278383BD
:104DF000DF91CF911F910895CF93DF93DC01EB01F9
:104E0000E881F0E0ED5AF74FE491EC93ED85F0E0A6
:104E1000ED5AF74FE4911196EC931197EA85F0E083
:104E2000ED5AF74FE4911296EC931297EF81F0E070
:104E3000ED5AF74FE4911396EC931397EC81F0E061
:104E4000ED5AF74FE4911496EC931497E981F0E052
:104E5000ED5AF74FE4911596EC931597EE85F0E037
:104E6000ED5AF74FE4911696EC931697EB85F0E028
:104E7000ED5AF74FE4911796EC931797E885F0E019
:104E8000ED5AF74FE4911896EC931897ED81F0E006
:104E9000ED5AF74FE4911996EC931997EA81F0E0F7
:104EA000ED5AF74FE4911A96EC931A97EF85F0E0DC
:104EB000ED5AF74FE4911B96EC931B97EC85F0E0CD
:104EC000ED5AF74FE4911C96EC931C97E985F0E0BE
:104ED000ED5AF74FE4911D96EC931D97EE81F0E0AB
:104EE000ED5AF74FE4911E96EC931E97EB81F0E09C
:104EF000ED5AF74FE4911F96EC93DF91CF9108950F
:104F0000CF93DF93DC01EB01E881F0E0E25AF64F4A
:104F1000E491EC93ED81F0E0E25AF64FE4911196C2
:104F2000EC931197EA85F0E0E25AF64FE49112967D
:104F3000EC931297EF85F0E0E25AF64FE491139666
:104F4000EC931397EC81F0E0E25AF64FE49114965B
:104F5000EC931497E985F0E0E25AF64FE491159648
:104F6000EC931597EE85F0E0E25AF64FE491169631
:104F7000EC931697EB81F0E0E25AF64FE491179626
:104F8000EC931797E885F0E0E25AF64FE491189613
:104F9000EC931897ED85F0E0E25AF64FE4911996FC
:104FA000EC931997EA81F0E0E25AF64FE4911A96F1
:104FB000EC931A97EF81F0E0E25AF64FE4911B96DA
:104FC000EC931B97EC85F0E0E25AF64FE4911C96C7
:104FD000EC931C97E981F0E0E25AF64FE4911D96BC
:104FE000EC931D97EE81F0E0E25AF64FE4911E96A5
:104FF000EC931E97EB85F0E0E25AF64FE4911F9692
:10500000EC93DF91CF910895FC0182899389853FCC
:10501000914010F084E001C081E080932C05089558
:105020008EBD0DB407FEFDCF08952E9886E00E9438
:1050300010282E9A08952E9885E00E94102880E06E
:105040000E9410282E9A8EB50895CF93C82F892FCD
:105050000E9410288C2FCF910C941028EF92FF9271
:105060000F931F93CF93DF93EC01062FE72EF42EBF
:10507000122F222311F02E9801C05F9883E00E9426
:105080001028CE010E942528C02FDE2DCE018F0DC5
:10509000911D7C01CE15DF0531F080E00E941028C3
:1050A0008EB58993F7CF112311F02E9A01C05F9A24
:1050B000DF91CF911F910F91FF90EF900895CF93C3
:1050C000DF93EC012E9883E00E941028CE010E940D
:1050D000252880E00E9410282E9A8EB5DF91CF916E
:1050E0000895CF92DF92EF92FF920F931F93CF9389
:1050F000DF936C017B01042F0E944D32F701808306
:1051000011E0101778F4212F30E0C601820F931FB1
:1051100097FD08C0E701C20FD31F1F5F0E944D32E9
:105120008883EFCFDF91CF911F910F91FF90EF9088
:10513000DF90CF90089597FD05C09C01240F311D8D
:1051400037FF02C080E00895413208F040E20E943B
:10515000C51881E0089560912A0582EC9FE70C94C0
:10516000EF1860912F0781EC9FE70C94EF18609186
:10517000300780EC9FE70C94EF1820E8829FC00175
:1051800011248E599F4F0C94EF1820E8829FC00184
:1051900011248D599F4F0C94EF1820E8829FC00175
:1051A00011248D599F4F0C945F280F931F93CF9319
:1051B00000E010E0C0E0C8010E945F288F3F39F096
:1051C000CF5F00581F4FCF3FB1F78FEF01C08C2F3B
:1051D000CF911F910F910895CF9382EC9FE70E948A
:1051E0005F28C82F8F3F39F40E94D528C82F80939D
:1051F0002A050E94AB288C2FCF9108951092830727
:1052000080912A05809329050E94CD2890912A0536
:1052100089130FC020E8829FC001112441E06FEF85
:1052200070E08D599F4F0E949B2880912A050E9413
:10523000CD288F3FD9F0909183079F5F909383078C
:10524000809329050E94CD28909129058913F1CFDB
:1052500020E8829FC001112441E06FEF70E08D597A
:105260009F4F0E949B2880912905E1CF08950F93BD
:105270001F93CF93DF93CDB7DEB7A0970FB6F89407
:10528000DEBF0FBECDBF8C0180E1FB01DE011196B8
:1052900001900D928A95E1F780E1FB017096DE01A5
:1052A000519601900D928A95E1F7AE014F5F5F4FE5
:1052B000BA0183E696E00E944414AE014F5E5F4F50
:1052C000BA0183E696E00E94441480E1FE01319623
:1052D000D80101900D928A95E1F780E1FE01719667
:1052E000D801509601900D928A95E1F7A0960FB6DD
:1052F000F894DEBF0FBECDBFDF91CF911F910F910C
:1053000008951F93CF93DF93182FEB0121E040E224
:1053100030E8839FC00111240E942E2888818F3F8E
:1053200029F41882DF91CF911F910895812F0E9457
:10533000FB05BE01CE01DF91CF911F910C9437295F
:10534000AF92BF92CF92DF92EF92FF920F931F9393
:10535000CF93DF93CDB7DEB76C970FB6F894DEBF6F
:105360000FBECDBF6C01FC0101900020E9F7319721
:105370008F01081B190B88EF95E00E94332256011C
:105380007801E114F10489F0A7010E151F0508F456
:10539000A801B50188EF95E00E94AF2281E0E81AEC
:1053A000F1088FEFA81AB80AECCF4CE150E0BE012B
:1053B0006F5F7F4F88EF95E00E941D2388EF95E097
:1053C0000E946E258CE1FE013196D60101900D926E
:1053D0008A95E1F76C960FB6F894DEBF0FBECDBF8D
:1053E000DF91CF911F910F91FF90EF90DF90CF90C1
:1053F000BF90AF900895CF93DF93D62FC42F682F1F
:1054000070E085E10E940B216D2F70E084E10E9425
:105410000B216C2F70E083E1DF91CF910C940B2175
:105420004FEF60E080E00C94FB2940E06FEF80E0FC
:105430000C94FB2940E060E08FEF0C94FB29E62FF1
:10544000F0E050E0EE0FFF1FEC5EFE4FA081B18157
:10545000A40FB51F81110FC086E48C93A081B18188
:10546000A40FB51F11968C9380819181FC01E40FEC
:10547000F51F128208958EE48C9380819181FC0146
:10548000E40FF51F118208958BEB95E00E94091936
:1054900064E877E08BEB95E00E94291163E677E002
:1054A0008BEB95E00C94291140E250E066E772E046
:1054B00083E697E00E947F340C94442A40E250E057
:1054C000BC0183E697E00E947F34109282070C941F
:1054D000442AEF92FF920F931F93CF93DF9300D054
:1054E000CDB7DEB7082F162F83E697E00E945E2A1D
:1054F00009831A82612F660F610F660F665F8BEB5F
:1055000095E00E940B24FE013196DF010D900020F2
:10551000E9F78F01CD0101977C010E151F0541F0C0
:10552000F80161918F018BEB95E00E94320EF5CF6F
:105530000F900F90DF91CF911F910F91FF90EF90FF
:10554000089540E250E0BC0184E897E00E947F3477
:105550001092A3070C94442ACF93DF93CDB7DEB704
:10556000A0970FB6F894DEBF0FBECDBF80912D057A
:105570000E948E1F80E2E9EEF4E0DE0111960190B8
:105580000D928A95E1F7BE016F5F7F4F8FEA95E03C
:105590000E941411A0960FB6F894DEBF0FBECDBFC7
:1055A000DF91CF910895CF93DF93CDB7DEB7A0976A
:1055B0000FB6F894DEBF0FBECDBF80912D050E94BF
:1055C000701F80E2E9E0F5E0DE01119601900D9296
:1055D0008A95E1F7BE016F5F7F4F8FEA95E00E94E9
:1055E000141163EB8FEA95E00E94FF1763EB8FEADB
:1055F00095E00E94BD17A0960FB6F894DEBF0FBECF
:10560000CDBFDF91CF910895CF9363E477E0809190
:105610002D050E948129C0E0EC2FF0E0ED5BF84FF2
:105620006081662331F0CF5F8FEA95E00E946918B0
:10563000F3CFCF9108951F920F920FB60F921124BE
:105640002F933F934F935F936F937F938F939F938A
:10565000AF93BF93CF93DF93EF93FF938091F705C1
:105660000E941320EC018091F6050E941320E09126
:10567000F505EF70CC0FDD1F8C2B94E0E99FF00156
:105680001124E65AFD4FE80FF11D80818093F50546
:105690008073803111F487E003C0803219F488E010
:1056A00080932C05FF91EF91DF91CF91BF91AF9146
:1056B0009F918F917F916F915F914F913F912F912A
:1056C0000F900FBE0F901F901895823029F128F48B
:1056D000882349F08130A1F00895833061F184304E
:1056E00009F444C0089580914207811106C063E423
:1056F00077E080912D050E94812983E497E00AC01C
:1057000080914207811104C080912D050E94701F75
:1057100089E095E00C945E2A80914207811104C0D3
:1057200080912D050E948E1F80912F078823F1F014
:1057300089EE94E0EFCF80914207811114C08091EF
:105740002D0520E8829FC001112421E042E060E4A1
:1057500077E0805A9F4F0E942E28809140078F3F0C
:1057600011F41092400780E497E0D4CF0C94542AAF
:1057700083E080933F0780912A05282F30E0309303
:1057800045052093440580932D0580911601909145
:1057900017010E94A12A63E477E0809144050E94EA
:1057A000812983E497E00E945E2A10922C050895D7
:1057B00085E08093130184E1E2E9F1E0A0E3B5E044
:1057C00001900D928A95E1F71092450510924405DB
:1057D00087E080933F0780913005909131050E94CA
:1057E000A12A8091420781110AC063E477E0809189
:1057F0002D050E94812983E497E00E945E2A109281
:105800002C050895CF92DF92EF92FF920F931F9392
:10581000CF93DF93CDB7DEB7A3970FB6F894DEBF73
:105820000FBECDBF182FE091D704F0E0EC5CFE4F27
:1058300080818AA31BA210933F0770E070934505F7
:1058400060934405CE0182960E945E2A10922C0538
:1058500080912B0581110FC07894212F30E040E01A
:1058600050E019A28E010F5D1F4F8AE0C82ED12C87
:10587000E12CF12C11C08FEF9FEF90935305809393
:10588000520500910B016AE070E080E090E00E9418
:10589000A3210023B1F3E0CFCA01B901A70196010A
:1058A0000E949532605DF80162938F0121153105E8
:1058B0004105510589F7BF0186E495E00E94141166
:1058C00065E972E086E495E00E941411F894A396CD
:1058D0000FB6F894DEBF0FBECDBFDF91CF911F9101
:1058E0000F91FF90EF90DF90CF9008952091D70413
:1058F00030E0DC01A20FB31FE0914405F0914505B3
:10590000EC5CFE4F80818C9311961C9280912F0746
:10591000811104C0662311F08AE207C0E0914405BA
:10592000F0914505EC5CFE4F8081F901ED59F84F8F
:105930008083F901ED59F84F11820E94442A809129
:10594000D704282F30E02E3131051CF48F5F80936F
:10595000D70410922C050895DF92EF92FF920F93D7
:105960001F93CF93DF93D82EF92EE42E062F10E04D
:10597000C8010196880F0E943A0D83E00E943A0DFB
:10598000CD2DDF2D0C0F1D1FC017D10789F0E7FEAD
:1059900003C0FE01849101C088810E943A0DF82E57
:1059A00080E00E943A0D8F2121968111EDCF01C038
:1059B00081E0DF91CF911F910F91FF90EF90DF90E9
:1059C0000895AF92BF92CF92DF92FF920F931F93F1
:1059D000CF93DF93CDB7DEB7A0970FB6F894DEBFB5
:1059E0000FBECDBFF82E8AE294E00E945E2A00E04E
:1059F00010E05E0181E2A80EB11C40E06FEF8FEF76
:105A00000E94FB2921E0F11020E040E2BE016F5F1F
:105A10007F4FC8010E942E28F11002C05F9801C07C
:105A20002E9886E00E941028F11003C05F9A5F98BC
:105A300002C02E9A2E9882E00E941028C8010E946F
:105A40002528FE0131966F01F60181916F010E94B8
:105A50001028AC14BD04C1F7F11002C05F9A02C057
:105A60002E9A30C05F9885E00E94102880E00E9446
:105A700010285F9A0EB400FCF5CF005E1F4F011591
:105A8000F0E81F0709F0B9CF0E94EC2880932A059F
:105A900080932D050E94FE280E94152A85E394E03C
:105AA0000E945E2AA0960FB6F894DEBF0FBECDBF4F
:105AB000DF91CF911F910F91FF90DF90CF90BF901A
:105AC000AF9008950E941B2880FDFCCFD6CF83E6BF
:105AD00096E00E94A11788EF95E00E947F25F89438
